:020000040800F2
:10000000005000202151000815500008175000082A
:10001000195000081B5000081D5000080000000087
:100020000000000000000000000000001F50000859
:10003000215000080000000023500008255000084F
:1000400069510008695100086951000869510008A8
:100050006951000869510008695100086951000898
:100060006951000869510008695100086951000888
:100070006951000869510008695100086951000878
:100080006951000869510008695100086951000868
:100090006951000869510008695100086951000858
:1000A00069510008BD420008695100086951000803
:1000B0006951000869510008295000086951000879
:1000C0006951000869510008695100086951000828
:1000D0006951000869510008695100086951000818
:1000E00069510008695100086951000800000000CA
:1000F0000000000000000000000000000000000000
:0C01000000000000000000005FF808F1A3
:1001100010B5054C237833B9044B13B10448AFF341
:1001200000800123237010BD80000020000000002B
:100130001464000808B5034B1BB103490348AFF32F
:10014000008008BD00000000840000201464000846
:1001500081F0004102E000BF83F0004330B54FEA78
:1001600041044FEA430594EA050F08BF90EA020FE5
:100170001FBF54EA000C55EA020C7FEA645C7FEA78
:10018000655C00F0E2804FEA5454D4EB5555B8BF9B
:100190006D420CDD2C4480EA020281EA030382EA0C
:1001A000000083EA010180EA020281EA0303362D9E
:1001B00088BF30BD11F0004F4FEA01314FF4801C71
:1001C0004CEA113102D0404261EB410113F0004F83
:1001D0004FEA03334CEA133302D0524263EB43033A
:1001E00094EA050F00F0A780A4F10104D5F1200ED8
:1001F0000DDB02FA0EFC22FA05F2801841F1000133
:1002000003FA0EF2801843FA05F359410EE0A5F106
:1002100020050EF1200E012A03FA0EFC28BF4CF037
:10022000020C43FA05F3C01851EBE37101F00045ED
:1002300007D54FF0000EDCF1000C7EEB00006EEBFA
:100240000101B1F5801F1BD3B1F5001F0CD3490884
:100250005FEA30004FEA3C0C04F101044FEA4452DB
:1002600012F5800F80F09A80BCF1004F08BF5FEA62
:10027000500C50F1000041EB045141EA050130BD42
:100280005FEA4C0C404141EB010111F4801FA4F1E5
:100290000104E9D191F0000F04BF01460020B1FA3A
:1002A00081F308BF2033A3F10B03B3F120020CDA72
:1002B0000C3208DD02F1140CC2F10C0201FA0CF050
:1002C00021FA02F10CE002F11402D8BFC2F1200CB5
:1002D00001FA02F120FA0CFCDCBF41EA0C0190406B
:1002E000E41AA2BF01EB0451294330BD6FEA0404B4
:1002F0001F3C1CDA0C340EDC04F11404C4F120029F
:1003000020FA04F001FA02F340EA030021FA04F3B0
:1003100045EA030130BDC4F10C04C4F1200220FA07
:1003200002F001FA04F340EA0300294630BD21FA45
:1003300004F0294630BD94F0000F83F4801306BF0B
:1003400081F480110134013D4EE77FEA645C18BFFF
:100350007FEA655C29D094EA050F08BF90EA020F96
:1003600005D054EA000C04BF1946104630BD91EA8E
:10037000030F1EBF0021002030BD5FEA545C05D191
:100380004000494128BF41F0004130BD14F58004D0
:100390003CBF01F5801130BD01F0004545F0FE4144
:1003A00041F470014FF0000030BD7FEA645C1ABF79
:1003B000194610467FEA655C1CBF0B46024650EAB0
:1003C000013406BF52EA033591EA030F41F40021DC
:1003D00030BD00BF90F0000F04BF0021704730B562
:1003E0004FF4806404F132044FF000054FF0000137
:1003F00050E700BF90F0000F04BF0021704730B5F8
:100400004FF4806404F1320410F0004548BF4042CC
:100410004FF000013EE700BF42004FEAE2014FEA21
:1004200031014FEA02701FBF12F07F4393F07F4FFC
:1004300081F06051704792F0000F14BF93F07F4F2E
:10044000704730B54FF4607401F0004521F0004171
:1004500020E700BF50EA010208BF704730B54FF0F7
:1004600000050AE050EA010208BF704730B511F0FC
:10047000004502D5404261EB41014FF4806404F134
:1004800032045FEA915C3FF4DCAE4FF003025FEAB6
:10049000DC0C18BF03325FEADC0C18BF033202EB3E
:1004A000DC02C2F1200300FA03FC20FA02F001FA98
:1004B00003FE40EA0E0021FA02F11444C1E600BF37
:1004C00070B54FF0FF0C4CF4E06C1CEA11541DBFEA
:1004D0001CEA135594EA0C0F95EA0C0F00F0DEF8B5
:1004E0002C4481EA030621EA4C5123EA4C5350EA9A
:1004F000013518BF52EA033541F4801143F48013EB
:1005000038D0A0FB02CE4FF00005E1FB02E506F07B
:100510000042E0FB03E54FF00006E1FB03569CF0D0
:10052000000F18BF4EF0010EA4F1FF04B6F5007FD6
:1005300064F5407404D25FEA4E0E6D4146EB060648
:1005400042EAC62141EA55514FEAC52040EA5E50D1
:100550004FEACE2EB4F1FD0C88BFBCF5E06F1ED87B
:10056000BEF1004F08BF5FEA500E50F1000041EBB2
:10057000045170BD06F0004646EA010140EA02005F
:1005800081EA0301B4EB5C04C2BFD4EB0C0541EA81
:10059000045170BD41F480114FF0000E013C00F396
:1005A000AB8014F1360FDEBF002001F0004170BDBA
:1005B000C4F10004203C35DA0C341BDC04F11404D3
:1005C000C4F1200500FA05F320FA04F001FA05F25F
:1005D00040EA020001F0004221F0004110EBD3702C
:1005E00021FA04F642EB06015EEA430E08BF20EA58
:1005F000D37070BDC4F10C04C4F1200500FA04F3FB
:1006000020FA05F001FA04F240EA020001F000418C
:1006100010EBD37041F100015EEA430E08BF20EAFF
:10062000D37070BDC4F1200500FA05F24EEA020E47
:1006300020FA04F301FA05F243EA020321FA04F076
:1006400001F0004121FA04F220EA020000EBD3702D
:100650005EEA430E08BF20EAD37070BD94F0000F2D
:100660000FD101F00046400041EB010111F4801F61
:1006700008BF013CF7D041EA060195F0000F18BF12
:10068000704703F00046520043EB030313F4801F4E
:1006900008BF013DF7D043EA0603704794EA0C0F08
:1006A0000CEA135518BF95EA0C0F0CD050EA41061E
:1006B00018BF52EA4306D1D181EA030101F000419B
:1006C0004FF0000070BD50EA410606BF10461946C3
:1006D00052EA430619D094EA0C0F02D150EA0136CF
:1006E00013D195EA0C0F05D152EA03361CBF104610
:1006F00019460AD181EA030101F0004141F0FE41AF
:1007000041F470014FF0000070BD41F0FE4141F432
:10071000780170BD70B54FF0FF0C4CF4E06C1CEA32
:1007200011541DBF1CEA135594EA0C0F95EA0C0FE7
:1007300000F0A7F8A4EB050481EA030E52EA0335A2
:100740004FEA013100F088804FEA03334FF08055C3
:1007500045EA131343EA12634FEA022245EA1115F0
:1007600045EA10654FEA00260EF000419D4208BFA1
:10077000964244F1FD0404F5407402D25B084FEA4E
:100780003202B61A65EB03055B084FEA32024FF4FA
:1007900080104FF4002CB6EB020E75EB030E22BF57
:1007A000B61A754640EA0C005B084FEA3202B6EB17
:1007B000020E75EB030E22BFB61A754640EA5C00C6
:1007C0005B084FEA3202B6EB020E75EB030E22BF56
:1007D000B61A754640EA9C005B084FEA3202B6EB57
:1007E000020E75EB030E22BFB61A754640EADC0016
:1007F00055EA060E18D04FEA051545EA16754FEA78
:1008000006164FEAC30343EA52734FEAC2025FEA95
:100810001C1CC0D111F4801F0BD141EA00014FF024
:1008200000004FF0004CB6E711F4801F04BF0143F5
:100830000020B4F1FD0C88BFBCF5E06F3FF6AFAE11
:10084000B5EB030C04BFB6EB020C5FEA500C50F1A1
:10085000000041EB045170BD0EF0004E4EEA113124
:1008600014EB5C04C2BFD4EB0C0541EA045170BD2B
:1008700041F480114FF0000E013C90E645EA060E6F
:100880008DE60CEA135594EA0C0F08BF95EA0C0F9D
:100890003FF43BAF94EA0C0F0AD150EA01347FF4E5
:1008A00034AF95EA0C0F7FF425AF104619462CE7BC
:1008B00095EA0C0F06D152EA03353FF4FDAE10461F
:1008C000194622E750EA410618BF52EA43067FF470
:1008D000C5AE50EA41047FF40DAF52EA43057FF400
:1008E000EBAE12E74FF0FF3C06E000BF4FF0010C0B
:1008F00002E000BF4FF0010C4DF804CD4FEA410C6F
:100900007FEA6C5C4FEA430C18BF7FEA6C5C1BD03B
:1009100001B050EA410C0CBF52EA430C91EA030FBC
:1009200002BF90EA020F0020704710F1000F91EA19
:10093000030F58BF994208BF90422CBFD8176FEAE7
:10094000E37040F0010070474FEA410C7FEA6C5CB5
:1009500002D150EA013C07D14FEA430C7FEA6C5CBC
:10096000D6D152EA033CD3D05DF8040B704700BFE8
:100970008446104662468C461946634600E000BF36
:1009800001B5FFF7B7FF002848BF10F1000F01BD08
:100990004DF808EDFFF7F4FF0CBF012000205DF8D3
:1009A00008FB00BF4DF808EDFFF7EAFF34BF012058
:1009B00000205DF808FB00BF4DF808EDFFF7E0FFF1
:1009C00094BF012000205DF808FB00BF4DF808ED42
:1009D000FFF7CEFF94BF012000205DF808FB00BFA9
:1009E0004DF808EDFFF7C4FF34BF012000205DF88B
:1009F00008FB00BF4FEA410212F5001215D211D5D3
:100A00006FF47873B3EB625212D94FEAC12343F00B
:100A1000004343EA505311F0004F23FA02F018BF8D
:100A2000404270474FF00000704750EA013005D156
:100A300011F0004008BF6FF0004070474FF0000019
:100A4000704700BF80F0004002E000BF81F000412D
:100A500042001FBF5FEA410392EA030F7FEA226C64
:100A60007FEA236C6AD04FEA1262D2EB1363C1BFF4
:100A7000D218414048404140B8BF5B42192B88BF63
:100A8000704710F0004F40F4000020F07F4018BF86
:100A9000404211F0004F41F4000121F07F4118BFA6
:100AA000494292EA030F3FD0A2F1010241FA03FC4E
:100AB00010EB0C00C3F1200301FA03F100F0004336
:100AC00002D5494260EB4000B0F5000F13D3B0F1FE
:100AD000807F06D340084FEA310102F10102FE2A6D
:100AE00051D2B1F1004F40EBC25008BF20F00100DD
:100AF00040EA03007047490040EB000010F4000F8B
:100B0000A2F10102EDD1B0FA80FCACF1080CB2EB1D
:100B10000C0200FA0CF0AABF00EBC250524218437C
:100B2000BCBFD0401843704792F0000F81F4000121
:100B300006BF80F400000132013BB5E74FEA4103F4
:100B40007FEA226C18BF7FEA236C21D092EA030F60
:100B500004D092F0000F08BF0846704790EA010FDA
:100B60001CBF0020704712F07F4F04D1400028BF07
:100B700040F00040704712F100723CBF00F50000E9
:100B8000704700F0004343F0FE4040F4000070471F
:100B90007FEA226216BF08467FEA236301464202CB
:100BA00006BF5FEA412390EA010F40F480007047DE
:100BB0004FF0000304E000BF10F0004348BF404284
:100BC0005FEA000C08BF704743F0964301464FF0C0
:100BD00000001CE050EA010208BF70474FF000031C
:100BE0000AE000BF50EA010208BF704711F000435D
:100BF00002D5404261EB41015FEA010C02BF84462D
:100C00000146002043F0B64308BFA3F18053A3F58B
:100C10000003BCFA8CF2083AA3EBC25310DB01FAD2
:100C200002FC634400FA02FCC2F12002BCF1004F56
:100C300020FA02F243EB020008BF20F001007047E7
:100C400002F1200201FA02FCC2F1200250EA4C003B
:100C500021FA02F243EB020008BF20EADC70704781
:100C60004FF0FF0C1CEAD0521EBF1CEAD15392EA8F
:100C70000C0F93EA0C0F6FD01A4480EA010C40026B
:100C800018BF5FEA41211ED04FF0006343EA5010C5
:100C900043EA5111A0FB01310CF00040B1F5000F07
:100CA0003EBF490041EAD3715B0040EA010062F1B6
:100CB0007F02FD2A1DD8B3F1004F40EBC25008BFA0
:100CC00020F00100704790F0000F0CF0004C08BFBE
:100CD00049024CEA502040EA51207F3AC2BFD2F18B
:100CE000FF0340EAC250704740F400004FF0000399
:100CF000013A5DDC12F1190FDCBF00F000407047D3
:100D0000C2F10002410021FA02F1C2F1200200FA10
:100D100002FC5FEA310040F1000053EA4C0308BFD7
:100D200020EADC70704792F0000F00F0004C02BF28
:100D3000400010F4000F013AF9D040EA0C0093F0A3
:100D4000000F01F0004C02BF490011F4000F013BFD
:100D5000F9D041EA0C018FE70CEAD15392EA0C0F6B
:100D600018BF93EA0C0F0AD030F0004C18BF31F0D6
:100D7000004CD8D180EA010000F00040704790F0AC
:100D8000000F17BF90F0004F084691F0000F91F050
:100D9000004F14D092EA0C0F01D142020FD193EA16
:100DA0000C0F03D14B0218BF084608D180EA01009E
:100DB00000F0004040F0FE4040F40000704740F07A
:100DC000FE4040F4400070474FF0FF0C1CEAD05248
:100DD0001EBF1CEAD15392EA0C0F93EA0C0F69D0A4
:100DE000A2EB030280EA010C49024FEA402037D00F
:100DF0004FF0805343EA111143EA10130CF0004006
:100E00008B4238BF5B0042F17D024FF4000C8B42F5
:100E100024BF5B1A40EA0C00B3EB510F24BFA3EBD5
:100E2000510340EA5C00B3EB910F24BFA3EB9103A5
:100E300040EA9C00B3EBD10F24BFA3EBD10340EAFF
:100E4000DC001B0118BF5FEA1C1CE0D1FD2A3FF645
:100E500050AF8B4240EBC25008BF20F001007047FA
:100E60000CF0004C4CEA50207F32C2BFD2F1FF039D
:100E700040EAC250704740F400004FF00003013ACE
:100E800037E792F0000F00F0004C02BF400010F472
:100E9000000F013AF9D040EA0C0093F0000F01F086
:100EA000004C02BF490011F4000F013BF9D041EAA8
:100EB0000C0195E70CEAD15392EA0C0F08D14202DB
:100EC0007FF47DAF93EA0C0F7FF470AF084676E7AE
:100ED00093EA0C0F04D14B023FF44CAF08466EE787
:100EE00030F0004C18BF31F0004CCAD130F0004255
:100EF0007FF45CAF31F000437FF43CAF5FE700BFAD
:100F00004FEA4002B2F1FE4F0FD34FF09E03B3EB16
:100F100012620DD94FEA002343F0004310F0004F56
:100F200023FA02F018BF404270474FF000007047AC
:100F300012F1610F01D1420205D110F0004008BF4B
:100F40006FF0004070474FF00000704738B50E4B0F
:100F5000054618784FF47A73B3FBF0F30B4A106828
:100F6000B0FBF3F000F0ACF8044658B90F2D09D8E7
:100F7000024629464FF0FF3000F054F8044B20465B
:100F80001D6038BD012038BD000000201800002081
:100F900004000020074A08B51368032043F010033B
:100FA000136000F02DF80020FFF7D0FF03F02EFFB4
:100FB000002008BD00200240034A044B11681B7842
:100FC0000B441360704700BF240100200000002084
:100FD000014B1868704700BF2401002038B5044653
:100FE000FFF7F6FF0546631C1EBF044B1B78E41891
:100FF000FFF7EEFF401B8442FAD838BD0000002006
:10100000074A0002D36800F4E06023F4E0631B04A5
:101010001B0C43F0BF6343F400330343D3607047BA
:1010200000ED00E0174B30B5DC68C4F30224C4F1D6
:101030000703251D042B28BF0423062D4FF00105AF
:1010400098BF002405FA03F303F1FF3388BF033C84
:101050001940A14005FA04F4013C2240002842EA6C
:1010600001024FEA0212AFBF00F16040064B00F0F0
:101070000F00D2B2A5BFD2B200F561401A5480F879
:10108000002330BD00ED00E014ED00E00123420933
:1010900000F01F0003FA00F0014B43F822007047F4
:1010A00000E100E00122430900F01F0002FA00F015
:1010B000024A203342F82300704700BF00E100E0FD
:1010C0000138B0F1807F0AD2F021064B064A586001
:1010D00082F823100020072298601A6070470120D0
:1010E000704700BF10E000E000ED00E02DE9F74F91
:1010F00000221646654BDFF8A4E1DFF8A4C14FF0EB
:1011000001080C6808FA06F808EA0404A0457FD133
:101110004D68122D00F0AF8000F28880022D00F0A3
:10112000A7807CD8002D00F08E80012D00F09E80DD
:101130004FF00F09FF2C93BF824606F18045083D12
:10114000D0F800B092BFB500D0F804B0AD0009FAF5
:1011500005F82BEA080802FA05F588BF00F1040A31
:1011600048EA0505CAF80050D1F804A01AF0805FDB
:101170004ED0474D464FAD6926F0030845F00105B6
:10118000BD61BD6908F1804805F00105019508F5CC
:10119000803806F0030B019D4FEA8B0BD8F80850FE
:1011A00009FA0BF925EA09093A4DA84268D005F574
:1011B0008065A84266D005F58065A84264D005F533
:1011C0008065A8420CBF0325042505FA0BF545EA06
:1011D0000905C8F808501D681AF4803F14BF25435C
:1011E000A5431D605D681AF4003F14BF2543A54365
:1011F0005D609D681AF4801F14BF2543A5439D6060
:10120000DD681AF4001F14BF2C4325EA0404DC60D7
:101210000136102E7FF473AF03B0BDE8F08F032DBD
:1012200022D0112D84D1CA68043281E71A4FBD4201
:1012300009D012D8DFF86C904D4504D009F58039FB
:101240004D457FF475AF8A68C2B1012A0CBFC0F862
:101250001080C0F8148008226AE77545F3D0654510
:10126000F1D0DFF84490EBE7002261E7CA685FE75E
:10127000CA6808325CE7CA680C3259E7042257E7AB
:101280000025A2E70125A0E702259EE70004014012
:101290000010024000080140000021100000311041
:1012A0000000321000001110000022108368194263
:1012B00014BF0120002070470268536913F4806353
:1012C0000DD06FF480635361042320220364002354
:1012D000036380F83C3080F83D20012070471846B9
:1012E00070472DE9F843044617469946C1F307486D
:1012F0008EB22568B8F1010F0CBF6B69AB6936EA95
:10130000030314BF0120002008B9BDE8F8836B690E
:101310005A0512D52B68202243F400732B606FF41A
:1013200080636B610423236400230120236384F81A
:101330003C3084F83D20BDE8F8837B1CD9D04FB900
:1013400000232022236384F83C3084F83D200320CE
:10135000BDE8F883FFF73CFEA0EB09008742C8D246
:10136000EEE72DE9F843044690461F46089EC1F378
:1013700007498DB22368B9F1010F0CBF5B699B6906
:1013800035EA03030CBF01230023434502D00020AC
:10139000BDE8F8837B1CEDD05FB9002320222363D6
:1013A00084F83C3084F83D20032084F83E30BDE8CA
:1013B000F883FFF70DFE801B8742DBD2EDE770B5A7
:1013C00004460D46164623685B691B0601D50020BE
:1013D00070BD2046FFF770FFA8B96A1CF3D065B94D
:1013E000236C202243F02003236400230320236383
:1013F00084F83C3084F83D2070BDFFF7E9FD801B88
:101400008542E0D2ECE7012070BD00002DE9FF41EC
:1014100015460268984613680B9E43F48073136068
:101420000F4600960A9B00224FF001110446FFF779
:1014300098FF68B9236807F0FE071F610A9A3346D0
:101440001A492046FFF74DFF30B1236C042B18D00A
:10145000032004B0BDE8F081236803905A690A991B
:1014600003929B69324603932046039BFFF7A7FF35
:1014700048B1236C042BEBD12268136843F400734A
:1014800013600120E5E7B8F1010F236802D1EDB246
:101490001D61DEE72A0A1A610A9932462046FFF7E3
:1014A0008EFF0028E5D12368F1E700BF02000100AC
:1014B0002DE9FF419846036816461A680B9D42F4D1
:1014C00080621A601A680F4642F480721A604FF008
:1014D000011100950A9B00220446FFF742FF80B9E4
:1014E0002368FFB207F0FE021A612D492B460A9AC3
:1014F0002046FFF7F6FE40B1236C042B01D10120FA
:1015000000E0032004B0BDE8F081236803905A692D
:101510000A9903929B692A4603932046039BFFF78F
:101520004EFF40B1236C042BEBD12268136843F4C7
:1015300000731360E3E7B8F1010F236824D1F6B21A
:101540001E612A460A992046FFF739FF0246002805
:10155000E8D1216820460B6843F480730B60009546
:101560000A9B4FF00111FFF7FCFE0028C9D1236848
:1015700047F001071F610A9A2B4609492046FFF7E9
:10158000B0FE0028B8D1BDE7320A1A610A992A468E
:101590002046FFF714FF0028C4D12368CFE700BF1F
:1015A0000200010070B504460D46164620684369E6
:1015B00013F0400301D0002070BD4269D2060BD564
:1015C0006FF0100242612022236484F83C302363D0
:1015D000012084F83D2070BD5DB9236C032043F0E9
:1015E00020032364202384F83D30002384F83C301A
:1015F00070BDFFF7EDFC801B8542D7D2EDE770B5DB
:1016000004460D46164623685B695B0701D500203A
:1016100070BD2046FFF750FEA8B96A1CF3D065B92B
:10162000236C202243F02003236400230320236340
:1016300084F83C3084F83D2070BDFFF7C9FC801B66
:101640008542E0D2ECE7012070BD000038B50446C9
:1016500008B9012038BD90F83D3003F0FF021BB9F6
:1016600080F83C2003F03AFC2423226884F83D30C3
:10167000136823F00103136000F0A6FF63682F4A8C
:10168000934230D82E4A9042E3D92E4A2168B0FBCB
:10169000F2F24A6001320A62284A0138934232D893
:1016A0005B00B0FBF3F0431CC3F30B03042B38BF08
:1016B0000423CB61226AE369002013430B60E268D4
:1016C000236913438B60A26963691343CB600B6882
:1016D00043F001030B602023206484F83D30206335
:1016E00084F83E0038BD184A9042B2D9154D4FF4E7
:1016F0009672B0FBF5F521686A434D604FF47A7538
:10170000B2FBF5F2C6E7A26852B903EB4303B0FBA4
:10171000F3F0431CC3F30B036BB143F40043C8E77E
:1017200019225343B0FBF3F0431CC3F30B0313B173
:1017300043F44043BDE70123BBE700BFA08601009F
:101740007F841E0040420F00FF083D002DE9FF414D
:1017500004461F460D469046FFF73AFC94F83D308C
:101760000646202B04D00225284604B0BDE8F081AF
:101770000090192301225D492046FFF7F2FD002861
:10178000F1D194F83C30012BEDD0012384F83C30AA
:1017900023681A68D2075EBF1A6842F001021A6015
:1017A0001A6822F400621A60212284F83D20102277
:1017B00084F83E2000222264A2F580326785E2622E
:1017C000628DC4F824802285E26A042A04D0012AAA
:1017D00002D012F5803F04D11A6842F480721A6078
:1017E00002E0226B122AF7D000960A9B00224FF0EB
:1017F00001112046FFF7B5FD28BB23692268B3F528
:10180000804F12D105F0FE05156133460A9A38491A
:101810002046FFF766FD0546A0B9236803905A6984
:1018200003929B690393039B50E0EB1103F00603C3
:1018300043F0F00313612F4933460A9A2046FFF71D
:1018400050FD48B1236C236C042B4FF0000307D1EB
:1018500084F83C30012587E72368EDB21D61D4E7A9
:1018600084F83C3003257FE732460A992046FFF78B
:10187000A6FD40B1236C042BF4D12268136843F415
:1018800000731360E6E7616A20684B1C63620B78A3
:10189000228D0361638D013B9BB263854769531EB3
:1018A0009BB27F0723850AD54BB18B1C63624B78B3
:1018B000023A0361638D2285013B9BB26385324608
:1018C0000A992046FFF79BFE0028D3D1238D002BD9
:1018D000CAD121680A6842F400720A60202284F8A2
:1018E0003C3084F83D2084F83E303DE70200100093
:1018F00002000100080001002DE9F043044689B010
:1019000098460D469146109FFFF762FB94F83D30D4
:101910000646202B04D00225284609B0BDE8F083F6
:10192000009019230122A2492046FFF71AFD002842
:10193000F1D194F83C30012BEDD0012384F83C30F8
:1019400023681A68D2075EBF1A6842F001021A6063
:101950001A6822F400621A60222284F83D201022C4
:1019600084F83E2000222264A2F58032A4F82A8066
:10197000E262628DC4F824902285E26A1968042A22
:1019800041F48061196004D0012A02D012F5803F31
:1019900004D11A6842F480721A6002E0226B112AA4
:1019A000F7D000963B4600224FF001112046FFF78A
:1019B000D8FC00284DD12369B3F5804F236839D175
:1019C00045F00105EDB21D6133463A46794920469E
:1019D000FFF787FC054600283AD1228D2368002AAC
:1019E00069D0012A7AD11A6822F480621A6072B62C
:1019F000236804955A6904929A690492049A1A68B1
:101A000042F400721A6062B6DFF8B081238D002BB9
:101A10005BD0032B00F2D480012B7BD132463946B8
:101A20002046FFF7BFFD002800F09380236C202B99
:101A300016D13EE04FEAE51808F0060848F0F0023B
:101A40001A615D4933463A462046FFF74AFC48B1E1
:101A5000236C236C042B4FF0000328D184F83C3016
:101A6000012559E72368EDB21D613A4633465149D5
:101A70002046FFF736FC02460028E9D1236807908C
:101A8000596920460791996907910799196841F4A6
:101A90008071196000963B464FF00111FFF761FC21
:101AA0000028D6D1226848F0F10313618CE784F84E
:101AB0003C30032530E703955A6903929A690392F3
:101AC000039A1A6842F400721A60202384F83D30A9
:101AD000002384F83E3084F83C301DE7022A1A685F
:101AE0000ED142F400621A6072B6236805955A69F5
:101AF00005929A690592059A1A6822F4806281E734
:101B000042F480621A6006955A6906929B690693B0
:101B1000069B79E7022B00963B464FF000024146B8
:101B2000204624D1FFF71DFC0028C2D172B62368DD
:101B30001A6842F400721A60626A1B69511C616281
:101B40001370238D013B2385638D013B9BB263851D
:101B500062B6636A5A1C6262226812691A70238D27
:101B6000013B2385638D013B9BB263854EE7FFF705
:101B7000F8FB024600289CD121680B6823F480639F
:101B80000B6072B6636A2046591C6162216809695C
:101B90001970238D0096013B2385638D4146013BDF
:101BA0009BB263853B46FFF7DCFB0028BFD080E794
:101BB0000200100002000100080001000400010002
:101BC000324639462046FFF7EDFC00287FF42EAF61
:101BD000636A5A1C6262226812691A70238D226835
:101BE000013B2385638D013B9BB2638553695B0792
:101BF0007FF50CAF636A591C6162AEE72DE9F347CC
:101C000004469A46884691460C9EFFF7E1F994F8FF
:101C10003D300546202B03D0022002B0BDE8F087FE
:101C20000090192301223E492046FFF79AFB002825
:101C3000F2D194F83C30012BEED0012384F83C30F3
:101C4000236800271A684146D20758BF1A68204601
:101C50005CBF42F001021A601A6822F400621A6046
:101C6000212384F83D30402384F83E300A9B2764CA
:101C70006362BDF82C30019563852A4B0096E362C0
:101C8000638D4A4623855346FFF7C0FB00282AD0C0
:101C9000236C84F83C70042B07D10120BDE7FFF7CB
:101CA0008EFB20B1236C042B34D00320B5E7616A8E
:101CB00027684B1C63620B78228D3B61638D501E3D
:101CC000013B9BB263857B6980B25B0720850AD5A7
:101CD00048B18B1C63624B78023A3B61638D22856D
:101CE000013B9BB26385238D2A4631462046002B5B
:101CF000D5D1FFF784FC0028D4D12268136843F4BF
:101D000000731360202384F83C0084F83D3084F88D
:101D10003E0082E72268136843F400731360BCE757
:101D2000020010000000FFFF2DE9F047044686B0D6
:101D30009A460D469146109FFFF74AF994F83D30B8
:101D40000646202B04D00225284606B0BDE8F087C1
:101D500000901923012281492046FFF702FB002849
:101D6000F1D194F83C30012BEDD0012384F83C30C4
:101D700023684FF000081A682946D20758BF1A682E
:101D800020465CBF42F001021A601A6822F4006229
:101D90001A60222384F83D30402384F83E300E9BA5
:101DA000C4F840806362BDF83C30019663856C4B9B
:101DB0000097E362638D4A4623855346FFF778FB1D
:101DC000054630B1236C84F83C80042B3DD10125BD
:101DD000BAE7228D236892B902905A6902929A69F1
:101DE0000292029A1A6842F400721A60202384F860
:101DF0003D30002384F83E3084F83C30A4E7012ACB
:101E000025D11A6822F480621A6072B623680390A2
:101E10005A6903929A690392039A1A6842F400720B
:101E20001A6062B6DFF83C81238D002BDED0032BD5
:101E300077D8012B27D1324639462046FFF7B2FB2F
:101E400000283FD0236C202BC1D103257CE7022A38
:101E50001A680ED142F400621A6072B623680490C8
:101E60005A6904929A690492049A1A6822F4806268
:101E7000D6E742F480621A6005905A6905929B6920
:101E80000593059BCEE7022B00963B464FF00002E0
:101E90004146204624D1FFF764FA0028D5D172B616
:101EA00023681A6842F400721A60626A1B69511C46
:101EB00061621370238D013B2385638D013B9BB2CF
:101EC000638562B6636A5A1C6262226812691A707C
:101ED000238D013B2385638D013B9BB26385A3E783
:101EE000FFF73FFA02460028AFD121680B6823F4C0
:101EF00080630B6072B6636A2046591C6162216878
:101F000009691970238D0096013B2385638D414635
:101F1000013B9BB263853B46FFF723FA0028BFD005
:101F200093E7324639462046FFF73CFB002889D12B
:101F3000636A5A1C6262226812691A70238D2268D1
:101F4000013B2385638D013B9BB2638553695B072E
:101F50007FF56AAF636A591C6162B7E7020010003F
:101F60000000FFFF040001002DE9F04F044685B09A
:101F7000984689469246FFF72BF894F83D3006467E
:101F8000202B03D0022005B0BDE8F08F009019236C
:101F900001224B492046FFF7E4F90028F2D194F8DA
:101FA0003C30012BEED0012384F83C30236800251F
:101FB0001A68DFF80CB1D20758BF1A6809F0FE0999
:101FC0005CBF42F001021A601A6822F400621A60D3
:101FD000242384F83D303B4B2564E36222684FF0B4
:101FE00001111368204643F4807313600096434642
:101FF0000022FFF7B6F908B10320C4E72368A02741
:10200000C3F81090FEF7E4FF0646236859695A6941
:1020100094F83D30C1F34001C2F38022DBB211B924
:102020000AB9A02B20D12027236884F83D705A6973
:1020300012F0020F1A6842F400721A602AD00022CD
:1020400003925A691E4903929B6901220393039BE1
:10205000009619232046FFF784F90028CCD184F894
:102060003D7084F83C008EE7B8F1000F0CD184F885
:102070003D70236859695A6994F83D30C1F34001B5
:10208000C2F38022DBB2CAE7FEF7A2FF801B8045C5
:10209000EDD3EEE76FF4806259465A612046009610
:1020A00019230122FFF75DF90028A5D10135AA45C2
:1020B00094D884F83C0084F83D70012063E700BFA9
:1020C000020010000000FFFF90F83D007047006C18
:1020D0007047000003682DE9F341DB07054610D483
:1020E0002B689F075ED42B68190700F195802B6839
:1020F0005A0700F1BF80EA69002A40F02D810020D4
:1021000014E0904C636803F00C03042B07D0636861
:1021100003F00C03082B0CD16368DE0309D5236898
:102120009C03DDD56B68002BDAD1012002B0BDE83D
:10213000F0816B68B3F5803F10D1236843F480339E
:102140002360FEF745FF064623689803C8D4FEF7D0
:102150003FFF801B6428F7D90320E7E79BB923687A
:1021600023F480332360236823F480232360FEF765
:102170002FFF064623689903B2D5FEF729FF801B7F
:102180006428F7D9E8E7B3F5A02F236803D143F417
:1021900080232360D1E723F480332360236823F472
:1021A0008023CDE7674C636813F00C0F07D063689A
:1021B00003F00C03082B10D16368DA030DD42368F5
:1021C0009B0702D52B69012BAFD123686A6923F0E5
:1021D000F80343EAC203236085E72A695A4B6AB1D0
:1021E00001221A60FEF7F4FE064623689F07ECD42E
:1021F000FEF7EEFE801B0228F7D9ADE71A60FEF766
:10220000E7FE0646236898077FF56DAFFEF7E0FE10
:10221000801B0228F6D99FE7AA694A4C4B4BDAB1DA
:1022200001221A60FEF7D4FE0646636A9B070DD5AD
:102230004FF4FA52464B1B68B3FBF2F3019300BF15
:10224000019B5A1E0192002BF9D150E7FEF7C0FE08
:10225000801B0228E9D97FE71A60FEF7B9FE06461F
:10226000636A9F077FF543AFFEF7B2FE801B02282B
:10227000F6D971E7334CE369D80024D40127E36928
:1022800043F08053E361E36903F080530093009BC4
:10229000304E3368D90518D5EB68012B26D1236A57
:1022A00043F001032362FEF793FE41F28836804635
:1022B000236A9B073FD5002F3FF41DAFE36923F04E
:1022C0008053E36117E70027E2E7336843F4807344
:1022D0003360FEF77DFE80463368DA05DCD4FEF716
:1022E00077FEA0EB08006428F6D935E7ABB9236A7E
:1022F00041F2883823F001032362236A23F00403A8
:102300002362FEF765FE0646236A9807D3D5FEF7DB
:102310005FFE801B4045F7D91EE7052B236A03D1DA
:1023200043F004032362BAE723F001032362236A24
:1023300023F00403B6E7FEF74BFEA0EB0800B04223
:10234000B6D909E700100240000042428004424230
:102350001800002000700040224C636803F00C035A
:10236000082B3FF4E2AE00231F4E022A33602BD12C
:10237000FEF72EFE0746236899011FD42B6AB3F59A
:10238000803F05D16268A96822F400320A43626086
:10239000696A62680B4322F4741213436360012379
:1023A0003360FEF715FE054623689A013FF5A7AE98
:1023B000FEF70EFE401B0228F6D9CDE6FEF708FE1A
:1023C000C01B0228D7D9C7E6FEF702FE05462368E0
:1023D0009B017FF594AEFEF7FBFD401B0228F6D96A
:1023E000BAE600BF001002406000424230B5194B0F
:1023F00087B002AC03F1100522461868596808330B
:1024000003C2AB421446F7D101238DF804300223F6
:1024100011498DF805304B6803F00C02082A17D1DA
:10242000C3F3834206A80244DB0312F8102C0CD538
:102430004B680A48C3F34043504306AA134413F8B9
:10244000143CB0FBF3F007B030BD05485043FAE749
:102450000248F8E72C6400080010024000127A00DD
:1024600000093D00544A2DE9F0411368054603F088
:1024700007038B420E462AD329688C0734D4CA0737
:1024800047D44D4A136803F007039E42C0F0828090
:102490002A684A4C12F0040F40F08780130706D5D3
:1024A00063682A6923F4605343EAC2036360FFF759
:1024B0009DFF6368424AC3F30313D35CD840414B8A
:1024C00018600020FEF742FD0020BDE8F08113688F
:1024D00023F007030B431360136803F007039942CB
:1024E000CAD00120BDE8F081344B11F0040F1EBFAB
:1024F0005A6842F4E0625A60080742BF5A6842F4E0
:1025000060525A605A68A86822F0F00202435A608A
:10251000B5E76A68294C012A23681CD113F4003FEF
:10252000DFD0636841F2883823F00303134363600C
:10253000FEF74EFD6B680746012B14D1636803F06C
:102540000C03042B9DD0FEF743FDC01B4045F5D97D
:102550000320BDE8F081022A02D113F0007FDFE7FB
:1025600013F0020FDCE7022B0FD1636803F00C03BA
:10257000082B86D0FEF72CFDC01B4045F5D9E7E7B8
:10258000FEF726FDC01B4045E2D8636813F00C0F30
:10259000F6D176E7136823F007033343136013681B
:1025A00003F007039E429CD172E76368E96823F455
:1025B000E0630B43636071E70020024000100240BB
:1025C0001F65000818000020044B054A5B68C3F330
:1025D0000223D35C034A1068D840704700100240C1
:1025E0002F65000818000020036A70B523F001036E
:1025F0000362036A446882690D6822F073022A4309
:102600008D6823F002032B430A4DA8420BD1CD68FD
:1026100023F008032B438E694D6924F4407435433D
:1026200023F004032C43446082614A6842630362DE
:1026300070BD00BF002C0140036A70B523F48073A5
:102640000362036A4468C2690D6822F073022A4378
:102650008D6823F4007343EA05230B4DA8420DD186
:10266000CD6823F4006343EA05238E694D6924F4A1
:102670004054354323F4806344EA05144460C26146
:102680004A68C263036270BD002C0140036A30B522
:1026900023F480530362036A4468C2690D6822F41C
:1026A000E64242EA05228D6823F4005343EA0533EB
:1026B000064DA84202BF4D6924F4804444EA8514C3
:1026C0004460C2614A680264036230BD002C01406C
:1026D000022341F2111210B580F83D300368044620
:1026E000196A114208D140F24442196A114202BFEC
:1026F0001A6822F001021A60204602F061FC0020F4
:1027000084F83D0084F83C0010BD03680020DA68BE
:1027100042F00102DA601A6842F001021A60704762
:10272000704790F83C3070B5012B4FF002031CD07D
:10273000012280F83D30036880F83C209A6822F43A
:102740007F4222F077029A600A68402A79D019D82D
:10275000102A00F093800AD8002A00F08980012313
:1027600080F83D30002380F83C30184670BD202AA8
:1027700000F08A80302AF2D19A6822F0700242F08A
:10278000370236E0702A36D01BD8502A42D0602A51
:10279000E5D11C6A4D6824F01004CE681C6299696A
:1027A0001A6A21F4704122F0A00242EA051241EABD
:1027B000063199611A629A6822F0700242F067024B
:1027C00017E0B2F5805F11D0B2F5005FC7D18A681B
:1027D0004D689C68C9682A4324F47F4442EA012278
:1027E00022439A609A6842F4804202E09A6822F09A
:1027F00007029A60B3E78A684D689C68C9682A43F3
:1028000024F47F4442EA012222439A609A6842F00B
:102810007702EEE74C68CE68196A1D6A21F00A015A
:1028200025F001051D629A69214322F0F00242EA77
:1028300006129A6119629A6822F0700242F05702F9
:10284000D7E74C68CE68196A1D6A21F00A0125F0A5
:1028500001051D629A69214322F0F00242EA061244
:102860009A6119629A6822F0700242F04702C0E74A
:102870009A6822F0700242F00702BAE79A6822F0E2
:10288000700242F01702B4E79A6822F0700242F038
:102890002702AEE77047704770477047036810B56E
:1028A0001A69044691070ED5DA6892070BD56FF0C6
:1028B00002021A6101229B6902779B0777D0FFF71A
:1028C000EAFF0023237723681A69500710D5DA68D6
:1028D00051070DD56FF004021A6102229B6922771D
:1028E00013F4407F204668D0FFF7D5FF00232377FD
:1028F00023681A6912070FD5DA6810070CD56FF034
:1029000008021A610422DB692277990720465AD00F
:10291000FFF7C1FF0023237723681A69D20610D579
:10292000DA68D0060DD56FF010021A610822DB6953
:10293000227713F4407F20464BD0FFF7ACFF0023F3
:10294000237723681A69D10708D5DA68D20705D535
:102950006FF0010220461A6100F0E6F923681A6957
:10296000100608D5DA68110605D56FF080022046FA
:102970001A6100F0D8F923681A69520608D5DA6896
:10298000500605D56FF0400220461A61FFF785FF1B
:1029900023681A69910622D5DA6892061FD56FF06E
:1029A00020022046BDE810401A6100F0BBB9FFF7D5
:1029B00071FF2046FFF770FF83E7FFF76BFF2046AC
:1029C000FFF76AFF92E7FFF765FF2046FFF764FF16
:1029D000A0E7FFF75FFF2046FFF75EFFAFE710BD00
:1029E0001A4A036890420AD0B0F1804F07D0A2F58E
:1029F0009432904203D002F58062904215D14A6829
:102A000023F070031343114A90420AD0B0F1804F73
:102A100007D0A2F59432904203D002F58062904232
:102A200003D1CA6823F4407313434A6923F0800337
:102A3000134303608B68C3620B688362034B984245
:102A400004BF0B690363012343617047002C0140FD
:102A500010B50446A0B190F83D3003F0FF021BB959
:102A600080F83C2002F0F4F90223206884F83D301D
:102A7000211DFFF7B5FF0123002084F83D3010BD74
:102A8000012010BD10B50446A0B190F83D3003F010
:102A9000FF021BB980F83C20FFF742FE02232068AA
:102AA00084F83D30211DFFF79BFF0123002084F8AF
:102AB0003D3010BD012010BD036A70B523F0100336
:102AC0000362036A446882690D6822F4E64242EABE
:102AD00005228D6823F0200343EA05130B4DA8421D
:102AE0000DD1CD6823F0800343EA05138E694D694B
:102AF00024F44064354323F0400344EA85044460F1
:102B000082614A688263036270BD00BF002C01408D
:102B100038B590F83C300446012B4FF0020025D028
:102B2000012384F83D0084F83C300C2A18D8DFE8F3
:102B300002F0071717171E1717172F171717400040
:102B40002068FFF751FD236809699A6942F008027D
:102B50009A619A6922F004029A619A690A439A6119
:102B60000123002084F83D3084F83C0038BD206803
:102B7000FFF7A2FF236809699A6942F400629A612B
:102B80009A6922F480629A619A6942EA0122E6E730
:102B90002068FFF751FD23680969DA6942F00802ED
:102BA000DA61DA6922F00402DA61DA690A43DA6189
:102BB000D6E72068FFF76AFD23680969DA6942F4FD
:102BC0000062DA61DA6922F48062DA61DA6942EA83
:102BD0000122ECE710B50124036A8C4023EA0403C8
:102BE0000362036A8A401A43026210BD10B50446AC
:102BF00001220068FFF7EEFF2368064A0020934297
:102C000002BF5A6C42F400425A641A6842F0010250
:102C10001A6010BD002C014010B504460022006867
:102C2000FFF7D8FF2368124A93420DD141F21112E7
:102C3000196A114208D140F24442196A114202BF96
:102C40005A6C22F400425A6441F21112196A11427C
:102C500008D140F24442196A114202BF1A6822F0B8
:102C600001021A600123002084F83D3010BD00BF2E
:102C7000002C014010B504460C290DD8DFE801F006
:102C8000070C0C0C1E0C0C0C230C0C0C28000268FE
:102C9000D36843F00203D36020680122FFF79AFF54
:102CA00023680E4A0020934202BF5A6C42F400424D
:102CB0005A641A6842F001021A6010BD0268D368B3
:102CC00043F00403E7E70268D36843F00803E2E750
:102CD0000268D36843F01003DDE700BF002C014019
:102CE00090F83C3010B5012B4FF0020318D080F85B
:102CF0003D3003680C685A68496822F070025A60D7
:102D00005A6822435A609A6822F080029A609A6850
:102D10000A439A60012380F83D30002380F83C305C
:102D2000184610BD7047704708B5274B834245D100
:102D300020212648FEF7BAFA254B5A88013292B272
:102D40005A805A781A78023A042A37D8DFE802F013
:102D5000031B2C343700002830D15A8892B2632AE2
:102D600001D8588008BD83F8040258705A78D2B24E
:102D7000511CC9B25970598803EB420289B2918043
:102D8000588003220EE0012818D15A78D2B2511C83
:102D9000C9B25970598803EB420289B2918000226E
:102DA0005A8004221A7009E00028DFD05A8892B2B3
:102DB000642A03D90522F5E70028D2D008BD0122F4
:102DC00083F80422F6E700BF54030020000C014002
:102DD00028010020D0B504460846FDF70BFB002271
:102DE000114B06460F46FDF76BFB00220F4BFDF71C
:102DF00091FCFDF7FFFDA04214DC00220C4B304695
:102E00003946FDF75DFB0022084BFDF783FC0022ED
:102E1000084BFDF7A3F9FDF7EDFD8442CCBF002080
:102E20000120D0BD0020D0BD0000E83F0000494097
:102E30000000F43F0000F03FD0B5044601F164000B
:102E4000FDF7D8FA0022124B06460F46FDF738FB75
:102E50000022104BFDF75EFCFDF7CCFDA04214DC18
:102E600000220D4B30463946FDF72AFB0022094B64
:102E7000FDF750FC0022094BFDF770F9FDF7BAFD94
:102E80008442CCBF00200120D0BD0020D0BD00BFB7
:102E90000000E83F000049400000F43F0000F03F20
:102EA000D0B50446A1F16400FDF7A4FA0022124B4C
:102EB00006460F46FDF704FB0022104BFDF72AFCE7
:102EC000FDF798FDA04214DC00220D4B3046394638
:102ED000FDF7F6FA0022094BFDF71CFC0022094B16
:102EE000FDF73CF9FDF786FD8442CCBF00200120B0
:102EF000D0BD0020D0BD00BF0000E83F0000494029
:102F00000000F43F0000F03F30B5184C87B000F0EF
:102F1000F5F82046FFF7DCFB0021102202A802F0A2
:102F200063F94723124A002584E80C003123204628
:102F3000E36000950195A5602561A561FFF788FD17
:102F40004FF4805302A920460293FFF7EAFB69463B
:102F5000204600950195FFF7C3FE0222054B20464F
:102F60001A705D70FFF7D1FB07B030BD540300202D
:102F700000080040280100200222024B1A700022A3
:102F80005A70704728010020F8B506460846FDF73C
:102F900021FA044630460D46FDF71CFA10A3D3E98A
:102FA000002306460F46FDF78BFA02460B462046E5
:102FB0002946FDF7F7FC88B909A3D3E90023204689
:102FC0002946FDF77DFA02460B4630463946FDF7A5
:102FD000E9FC002814BF02200120F8BD0020F8BD44
:102FE0009A9999999999E93F2DE9F041B0F91070B2
:102FF0000646052F1FDD0124104DDFF84480A31C79
:10300000BB4207DB2023338100237560337001202E
:10301000BDE8F081F2686300043332F81400D15A3D
:1030200080B289B2FFF7B0FF08FB05F500B20134AA
:10303000454024B2E3E70020BDE8F081C59D1C8136
:103040009301000110B52C4B044613F8031CC36018
:10305000018293F8002213F8043C4282052B48D1E8
:1030600000F09EFA08B1012010BD204600F04EFD90
:103070000028F8D1204600F0DFFC0028F3D12046DC
:1030800000F038FA0028EED1204600F079FB002845
:10309000E9D1204600F0CAFB0028E4D1204600F028
:1030A000DFFA0028DFD1204600F0D0F90028DAD17D
:1030B000204600F059F90028D5D1204600F05CFCEC
:1030C0000028D0D1204600F083FD0028CBD1204637
:1030D00000F0A6F80028C6D1204600F0FDF8002830
:1030E000C1D12046FFF780FF0028BCD1FFF744FF85
:1030F00010BD002010BD00BF2C010020054A136840
:1031000043F080731360044A136843F001031360B3
:10311000704700BFFCED00E0001000E070B54FF418
:103120007A767043214C224E8EB096FBF0F6204604
:10313000FFF7CEFA1022002103A8002502F054F870
:103140001C2229460DEB020001950295013E02F07A
:103150004BF8184BB6B2204684E82800E660A5601C
:103160002561A561FFF774FC4FF4805303A9204645
:103170000393FFF7D6FA2046FFF784FC01A9204607
:1031800001950295FFF7ACFD602307930323B6FB7F
:10319000F3F62A4607A92046089609950B95FFF7EE
:1031A000B7FC204601F0CCFE0EB070BD54030020E9
:1031B00000A24A0400080040064B074A1B68B3FB04
:1031C000F2F300225843054B5A605A689042FCD8EB
:1031D000704700BF1800002040420F00001000E0C0
:1031E00010B5044600210548FFF700FD24B1204634
:1031F000BDE81040FFF7E0BF10BD00BF5403002042
:1032000010B5044600210548FFF706FD24B120460D
:10321000BDE81040FFF7D0BF10BD00BF5403002031
:103220002DE9F8432B4B04465A789846572A02D882
:103230000020BDE8F883C36842F26021588880B25C
:10324000FFF7FAFD0028F3D0E36841F29411988863
:1032500080B2FFF725FE0028EAD01D27002598F848
:103260000130043B9F420CDB3E46013E46F34F06D5
:10327000292E2681DCDD0923656023700120BDE84D
:10328000F883E3684FF4FA7133F817004FEA4709FF
:1032900080B2FFF7D1FD0028CAD0E36809F1020926
:1032A00033F809004FF4167180B27E1CFFF7F8FD69
:1032B00020B16D0045F001050237D0E7E36840F228
:1032C000A46133F8090080B2FFF7EAFD0028CCD0F2
:1032D0006D00F1E728010020F8B5224B04465B7829
:1032E000202B01D00020F8BDC3684FF49671588898
:1032F00080B2FFF7A1FD0028F4D0E36840F2EE2190
:10330000988880B2FFF7CCFD0028EBD00627002577
:10331000E3684FF49671D85B80B2FFF78DFD00280B
:10332000E0D0E368BE1C985B4FF4E16180B2FFF728
:10333000B7FD60B16D0045F0010504373E2FE7D1C0
:103340000E2323810F23656023700120F8BDE368FD
:1033500040F2EE21985B80B2FFF7A2FD0028C1D0B9
:103360006D00EAE728010020F8B5374D04466B7878
:103370002E46222B1DD1C3684FF41671588880B297
:10338000FFF75AFDA8B16B78E26803F10043013BF7
:1033900032F813004FF4167180B2FFF74DFD40B1C3
:1033A000002323814FF0FF33636006230120237045
:1033B000F8BDE3684FF4FA51588880B2FFF73CFD3E
:1033C00008B90020F8BD7378202BFAD9E3684FF4D0
:1033D0007A61988880B2FFF763FD0028F1D0032658
:1033E0000025E3684FF4167133F81600770080B2B9
:1033F000FFF722FD0028E4D0E3680237D85B4FF4E2
:10340000C86180B2FFF74CFD98B16D0045F0010531
:103410000236232EE5D1E3684FF41671B3F8460067
:1034200080B2FFF709FD0028CBD01023656023810F
:10343000BBE7E36840F22621D85B80B2FFF730FD9E
:103440000028BED06D00E3E728010020F8B5284B26
:1034500004465B78382B01D80020F8BDC3684FF4D0
:10346000FA51588880B2FFF7E7FC0028F4D0E368EF
:103470004FF47A61988880B2FFF712FD0028EBD0F4
:1034800003260025E3684FF4167133F81600770021
:1034900080B2FFF7D1FC0028DED0E3680237D85BAA
:1034A0004FF4C86180B2FFF7FBFCB0B16D0045F08E
:1034B000010502363B2EE5D1E3684FF41671B3F8EF
:1034C000760080B2FFF7B8FC0028C5D01C2323810A
:1034D0000A23656023700120F8BDE36840F22621CD
:1034E000D85B80B2FFF7DCFC0028B5D06D00E0E7C8
:1034F000280100202DE9F843284B04465A789946C4
:10350000212A02D80020BDE8F883C3684FF4AF71C8
:10351000588880B2FFF790FC0028F3D002270026DD
:1035200099F801307D1CAB420FDC3D46013D45F36F
:103530004F050F2DD4BF00200C232581C9BF666025
:10354000208123700120BDE8F883E36840F29E717A
:1035500033F817004FEA470880B2FFF76DFC80B1DF
:10356000760046F00106E36808F1020833F8080027
:103570004FF4AF7180B2FFF793FC0028D6D002372A
:10358000CEE7E36840F2EE2133F8170080B2FFF790
:1035900053FC0028B6D07600E5E700BF28010020E4
:1035A000F8B5C3680446588842F2283180B2FFF764
:1035B00043FC08B90020F8BD284D6A78042A18D1C8
:1035C000E36840F6CA01988880B2FFF769FC80B1D1
:1035D000E3684FF40C71D88880B2FFF72DFC40B13E
:1035E000002323814FF0FF33636003230120237006
:1035F000F8BD6B78432BDDD9E36841F294119888CC
:1036000080B2FFF74DFC0028D4D006270025E368E0
:103610004FF40C71D85B80B2FFF70EFC0028C9D0C4
:10362000E368BE1C985B40F29A6180B2FFF738FCF9
:1036300048B16D0045F001050437862FE7D12023FE
:1036400065602381D1E7E3684FF40C71985B80B229
:10365000FFF726FC0028ADD06D00EDE72801002023
:10366000C3682DE9F0410646588840F6AE5180B255
:10367000FFF7E2FB10B90020BDE8F081F36840F2EB
:10368000D661988880B2FFF7D7FB0028F3D00627D1
:1036900000240025F3684FF4FB71D85B80B2FFF77C
:1036A000CBFB0028E7D0F36807F1020833F80800E5
:1036B00040F2DC4180B2FFF7F3FB78B124196D4191
:1036C00044F001040437C62FE4D1052333703023BE
:1036D0007460758033810120BDE8F081F3684FF498
:1036E000C87133F8080080B2FFF7DAFB0028C2D0B7
:1036F00024196D41E6E72DE9F843904699460A689A
:10370000B0F910300F469A4234DA12F0010F0CBFB4
:103710006FF063046424D543C3684C4433F81260EB
:103720002146B6B2304605F00105FFF753FBE8B974
:103730004C4421463046FFF74DFBC8B909EB040164
:103740003046FFF747FBB8B10322D8F80030013309
:103750009A42DDBF0023C8F800303B68C8F800304B
:10376000DCBF01333B602846BDE8F8830122ECE76B
:103770000222EAE70125F6E74FF0FF35F3E7000004
:10378000002201232DE9F3418DE80C00264B04466D
:103790005A7898460C2A03D8002002B0BDE8F08180
:1037A00040F279336A4601A9FFF7A5FF0028F3D15B
:1037B00040F279336A4601A92046FFF79CFF0128B1
:1037C000EAD140F279336A4601A92046FFF793FF18
:1037D00006460028E0D1054698F80120019B9A4250
:1037E00004DC0120268165602070D6E740F2793341
:1037F0006A4601A92046FFF77EFF074640F279336B
:103800006A4601A92046FFF776FF012F06D100285E
:10381000C2D16D0045F001050136DDE7002FBBD1B7
:103820000128B9D16D00F7E72801002000232DE918
:10383000F3410093B0F910300446002B03DC002064
:1038400002B0BDE8F0810222C36840F66A215888C0
:10385000019280B2FFF7F0FA0028F0D0019BE268F5
:10386000591C32F81300019180B240F27931FFF710
:1038700017FB0028E3D04FF4DE736A4601A9204607
:10388000FFF739FF06460028D9D14FF4DE736A46A8
:1038900001A92046FFF72FFF0128D0D13546B4F902
:1038A0001020019B9A4205DC02232681656023706B
:1038B0000120C5E74FF4DE736A4601A92046FFF7F1
:1038C0001AFF032E80461CD04FF4DE736A4601A90E
:1038D0002046FFF710FF032E074608D14FF4DE7392
:1038E0006A4601A92046FFF706FF8742A7D1B8F133
:1038F000000F10D0B8F1010FA1D1002F9FD16D00A2
:103900000EE04FF4DE736A4601A92046FFF7F3FE8E
:103910008045D9D093E7012F91D16D0045F0010585
:103920000136BCE738B50C4605462420FFF7F6FB08
:1039300041F29410FFF754FC41F29410FFF760FC41
:10394000611E01248C404FF40C7034B9FFF748FC21
:103950002046BDE83840FFF753BC2C4207D0FFF7A4
:103960003FFC4FF4C860FFF74BFC6408EBE7FFF740
:1039700037FC4FF40C70F6E7F8B5C3680446588876
:1039800041F2941180B2FFF757FA08B90020F8BD50
:10399000284D6A78042A18D1E36840F6CA0198884D
:1039A00080B2FFF77DFA80B1E3684FF40C71D888DC
:1039B00080B2FFF741FA40B1002323814FF0FF337B
:1039C0006360072301202370F8BD6B78432BDDD99A
:1039D000E36841F29411988880B2FFF761FA0028F9
:1039E000D4D006270025E3684FF40C71D85B80B271
:1039F000FFF722FA0028C9D0E368BE1C985B4FF499
:103A0000C86180B2FFF74CFA48B16D0045F001057E
:103A10000437862FE7D1202365602381D1E7E3684F
:103A20004FF40C71985B80B2FFF73AFA0028ADD0E2
:103A30006D00EDE7280100202DE9F843324B0446E4
:103A40005A789846192A02D80020BDE8F883C2683F
:103A500013889BB2B3F5487F09D2002303814FF04E
:103A6000FF3343600B2301202370BDE8F8835088A7
:103A700040F6AC5180B2FFF7DFF90028E4D0E368EC
:103A800040F6AC51988880B2FFF7D6F90028DBD019
:103A90000327002698F801307D1CAB420ADC3D4626
:103AA000013D45F34F050B2D25812BDC00202081A6
:103AB000BDE8F883E36840F2B63133F817004FEA07
:103AC000470980B2FFF7ECF90028E9D0E36809F173
:103AD000020933F809004FF4166180B2FFF7ACF920
:103AE00020B1760046F001060237D3E7E3684FF4D1
:103AF0002F7133F8090080B2FFF79EF90028A3D098
:103B00007600F1E76660ADE7280100202DE9F84373
:103B10002E4B04465A789846192A02D80020BDE850
:103B2000F883C26813889BB2B3F5FA7F09D20023E9
:103B300003814FF0FF3343600B2323700120BDE866
:103B4000F88350884FF4166180B2FFF775F90028AA
:103B5000E4D00227002698F801307D1CAB420ADC35
:103B60003D46013D45F34F050B2D25812BDC002003
:103B70002081BDE8F883E3684FF4167133F817002D
:103B80004FEA470980B2FFF78BF90028E9D0E368D4
:103B900009F1020933F809004FF4966180B2FFF78A
:103BA0004BF920B1760046F001060237D3E7E3680F
:103BB0004FF4167133F8090080B2FFF73DF9002881
:103BC000ACD07600F1E766600423B6E72801002058
:103BD000F8B5314B04465B78452B01D80020F8BD81
:103BE000C36840F2EE21588880B2FFF725F900281B
:103BF000F4D0E36840F2EE21988880B2FFF750F9E4
:103C00000028EBD0E36840F62231D88880B2FFF775
:103C100013F90028E2D0E36840F62231188980B217
:103C2000FFF73EF90028D9D005260025E36840F2C9
:103C3000EE2133F81600770080B2FFF7FDF8002878
:103C4000CCD0E3680237D85B40F6660180B2FFF75C
:103C500027F9B0B16D0045F001050236452EE5D1DA
:103C6000E36840F2EE21B3F88A0080B2FFF7E4F88F
:103C70000028B3D02023238108236560237001200E
:103C8000F8BDE36840F2EE21D85B80B2FFF708F997
:103C90000028A3D06D00E0E7280100202148224938
:103CA000B0F86230B0F8C620643364329BB292B28E
:103CB000C82B98BFC82A94BF012300231B4A12783F
:103CC000002A14BF002303F00103194A0BB3B0F814
:103CD0002A3146339BB28C2B1BD8042341F27070DF
:103CE00013700A78134B0132D2B20A7019888142DC
:103CF0009CBF64311980132A12D901210E4A117018
:103D000041F270711A888A420AD802F57A721A80D2
:103D10007047002312780B70042A04BF054A1380F1
:103D2000704700BFF0030020240500204405002058
:103D3000B4000020A0000020F8060020204810B5A4
:103D4000B0F86220B0F8C630023AFA3392B29BB2B1
:103D5000C62A98BFB3F5E17F1A4C1B491B4A27D8E6
:103D6000B0F82A3103F561739BB2B3F5167F1FD803
:103D7000022341F2707023700B780133DBB20B70B9
:103D8000118881429CBF64311180042B0FD900231C
:103D90000F490B800F490B8002210F4B197041F224
:103DA000707113888B4202D803F57A73138010BDAB
:103DB0000023138022780B70022AF8D1054AF5E718
:103DC000F0030020B4000020250500209E00002004
:103DD0009C000020A0000020160000201349B1F82C
:103DE0006230B1F8C620953395329BB292B2B3F5EA
:103DF000957F88BFB2F5957F8CBF012300230C4AC5
:103E00001078012814BF002303F0010363B1B1F857
:103E10002A3195339BB2B3F5957F05D90120054B27
:103E2000187000231370704700207047F0030020C3
:103E3000F8060020440500202DE9F04F4FF4967558
:103E4000384C4543A046384E89B04FF0FF3301222D
:103E500021883046FEF788F8344B18700028F4D1DA
:103E60000446DFF8C4902E4605F16403304A0593FA
:103E7000631B03EB020A3AF906304FF0FF3B8DF863
:103E800018301B128DF819300223B8F80010B7B2A1
:103E9000019306AB3A460093CDF808B0102348468C
:103EA000FDF7ACFE1420FDF799F80223B8F80010D6
:103EB000019307AB00933A461023CDF808B048466B
:103EC000FDF732FFBDF91C203AF906309A4219D0AD
:103ED0001848194F20213860FFF724FDFFF714F828
:103EE0009620FDF77BF849F2090020213860FFF7A2
:103EF00019FDFFF709F89620FDF770F844F62060E9
:103F0000FDF76CF8059B02369E42B4D16434B4F5DB
:103F1000967F05F16405A6D1C820FDF75FF809B0CA
:103F2000BDE8F08F140000209C03002081070020D2
:103F3000F0030020018220006805002001282DE9FF
:103F4000F74F10D13F4B404A18704FF4167313804F
:103F50003E4A13803E4A13804FF47A7003B0BDE8A6
:103F6000F04FFDF73BB8022869D1364A13789246E4
:103F7000012B36D1374910700B7037490B70002177
:103F8000364B1970E8E71420FDF728F84FF400418C
:103F90004846FDF78BF90546A0BB98F80030C820CD
:103FA000013388F800304FF4FA7BFDF717F82B4601
:103FB00098F90020954225DA4FF4FA700193FDF745
:103FC0000DF84FF4FA70A7F800B0A4F800B0A6F806
:103FD00000B0FDF703F8019B01353B80238033805F
:103FE000E6E7022B2BD10023174F184C184E4FF445
:103FF00096703B8023803380FCF7F0FFDFF8609001
:10400000DFF858804FF480414846FDF74FF90546E8
:104010000028B8D1114B93F90000FFF70DFFC8201D
:104020008AF800503D8025803580FCF7D7FF4FF49B
:1040300016734FF4FA702380FCF7D0FF258003B08D
:10404000BDE8F08FA80000209C0000209E0000200A
:10405000A000002080070020A9000020E806002022
:10406000001001402DE9F04F4FF4967600254643AD
:10407000DFF85490DFF854A0DFF854B087B0002484
:10408000AF1909EB47084FF0FF33029302233A19A7
:10409000019305AB009392B21023BAF80010584672
:1040A000FDF742FE9DF915209DF9143043EA0223E5
:1040B00048F814300234642CE5D16435B5F5967FA8
:1040C000DDD107B0BDE8F08F880700201400002084
:1040D0009C030020884204DA8242A8BF02461046B0
:1040E0007047FCDD8A42A8BF0A46F8E72DE9F04F89
:1040F0004FF416718BB000AFADF5225D8AB06B4600
:104100006C4A0DF5225A7A616B4A07F1180401FBDB
:10411000002B0DF51C520C323A610DF51F521C326A
:10412000FA600AF1200A0022CC2101FB02315BF87F
:1041300022000132322AC1F8CC00F5D10022191D2B
:10414000786930F912000132322A41F8040BF7D1B4
:1041500000225D681A60D3F8CC20D3F89811501B68
:10416000491B0028B8BF40420029B8BF4942C3F8E4
:104170009C119968C3F8D000521A002AB8BF524265
:10418000C3F8D42003F1080216467A6003F1CC018B
:1041900056F8040BD3F8CC20121A002AD6F8C40023
:1041A000B8BF52420244B142C6F8C820F0D1194605
:1041B000D1F898215868CC31121A002A4868B8BF43
:1041C00052420244C1F8D0203A698A42F0D103F148
:1041D000D008C1467A68BA60BA68D8F8C85052F8B0
:1041E000040B2D1A4846BA6041680268D0F8CC002A
:1041F000FFF770FF002DBA68B8BF6D4209F10409DE
:1042000005449642C9F8CC50E6D1FA6808F1CC08CA
:104210004245DED1DAF8002044F8042F3222154658
:1042200033216E1E01FB06F802F1FF3E08EB0E0182
:1042300053F821C0332101FB05E153F82100216827
:1042400084450BD8904453F82880C44504D872465E
:104250006144216035460CE0844523D34FF0330C94
:104260000CFB062C53F82CC060451BD87246014449
:1042700021600DB1002AD3D17A690BF1C80B6432E9
:104280007A6107F12402A2427FF44DAF3B6AF869DC
:1042900018447B6A2C3718440323B0FBF3F0BD4667
:1042A000BDE8F08F332000FB062053F820000144C6
:1042B0002160CFE7F00300208807002008B50B48F5
:1042C000FEF7ECFA0A4A136801331360094A1368CF
:1042D00001331360084B1A884FF080435A63074A32
:1042E00012889A63064A1288DA6308BDA80600207D
:1042F000AC000020A40000209C0000209E000020B4
:10430000A00000202DE9F3410D4616464FF47A77C0
:10431000DFF82C804400009733462A46214608489F
:10432000FDF714FA40B9064C2046FDF7CDFE2028D3
:10433000FAD102B0BDE8F0814046FDF7C8FEEAE7D9
:104340009C0300202DE9FF411D4604AB03F8011D2D
:104350000446164619460122FFF7D4FF4FF47A7738
:10436000DFF830806400ADB200972B46324621461C
:104370000848FDF7C1FA40B9064C2046FDF7A4FEF7
:104380002028FAD104B0BDE8F0814046FDF79FFE39
:10439000EAE700BF9C0300206B2307B58DF80030CF
:1043A00000236946022268208DF80130FFF7AAFF3A
:1043B0001B238DF8003008236946022268208DF8FF
:1043C0000130FFF79FFF1C238DF8003010230222DD
:1043D000694668208DF80130FFF794FF03B05DF85F
:1043E00004FB1FB50E233B2104466A466820FFF7F5
:1043F000A9FF00230A210DEB03021DF903005278E7
:1044000002EB002292FBF1F2E2520233062BF2D1D0
:104410009DF808209DF8093003EB0223E3809DF806
:104420000A209DF80B3003EB022323819DF80C201A
:104430009DF80D3003EB0223638104B010BD000032
:10444000F0B54FF4FA771A4E1A4D1B4C85B001A8FF
:10445000FFF7C7FFBDF90400FCF7AEFB3168FCF7BE
:10446000F7FA3060BDF90600FCF7A6FB2968FCF7F7
:10447000EFFA2860BDF90800FCF79EFB2168FCF705
:10448000E7FA20600320FCF7A9FD013FDFD1306887
:104490000A49FCF799FC094930602868FCF794FC4C
:1044A000064928602068FCF78FFC206005B0F0BD4D
:1044B0008407002034050020580500200000FA433E
:1044C00010B590B02822002106A800F08DFE002132
:1044D000142201A800F088FE4FF480330122022448
:1044E00007930E934FF4E01306A806920A920F93D7
:1044F0000D94FDF7EFFD0F234FF48062019300232D
:10450000214601A80294039304920593FDF7AAFFA4
:1045100010B010BD2DE9F04F002597B0FCF73AFD23
:10452000FFF7CEFF102200210BA800F05DFE1C2239
:1045300029460FA84FF0804709950A9500F054FED0
:1045400041F27073BB4E4FF480483046376075605F
:10455000B560F3603561B561FEF77AFA4FF48053C8
:104560000BA930460B93FEF7DCF83046FEF78AFACB
:1045700009A9304609950A95FEF7B2FB60230F930F
:1045800047F230532A460FA93046109311951395E0
:10459000FEF7BEFA04220FA93046FEF7B9FA082248
:1045A0000FA93046FEF7B4FA304600F0C9FCF022FD
:1045B000A14B294683F81C233046FEF75BFB042100
:1045C0003046FEF757FB08213046FEF753FB3223F7
:1045D0007B63BB634FF4FA732946FB6310220FA879
:1045E00000F002FE954B01279A690FA942F02002C4
:1045F0009A619A69924802F020020592059A9A6996
:10460000904E42F004029A619A6902F00402069206
:10461000069A9A6942F008029A619A6902F00802C1
:104620000792079A9A6942F010029A619B69CDF845
:104630003C8003F010030893089B1197FCF756FD8C
:104640004FF400430FA97E480F9310951197FCF784
:104650004DFD20230FA97C480F9310951195FCF771
:1046600045FD7A4BDFF81CE2B560F5607561B56118
:10467000F5613562764D3046C6F8108086E8084010
:10468000DFF80482FCF7E2FF2F70724F29780806EA
:1046900040F1078200274FF48058FFF77DFEFFF7B7
:1046A000CFFE102200210BA86B4E00F09DFD1C22B6
:1046B00039460FA809970A9700F096FD674B3046D8
:1046C00086E88800B760F7603761B761FEF7C0F928
:1046D0000BA93046CDF82C80FEF723F83046FEF7C4
:1046E000D1F909A9304609970A97FEF7F9FA60232C
:1046F0003A460FA930460F93109711971397FEF77C
:1047000007FA304600F01CFC394610220FA800F0D2
:104710006BFD534E534A544B304686E80C00012340
:10472000B760F36037617761B7610B970C97FEF75D
:104730008FF90FA93046CDF83C80FDF7F2FF0BA9A9
:1047400030460B970C97FEF7CBFA4FF41670FCF738
:1047500045FC4FF47A70FCF741FC3046FDF7D5FF7D
:10476000FEF7D2FB4FF41673404E4FF4FA703380CD
:104770003F4B1A68136843F0807313603D4B1B680E
:104780001F603D4B1A68136843F001031360FCF788
:1047900025FC3846FFF766FC3388013703F51673AE
:1047A0000C2F3380F5D10A234FF4FA703380FCF7D5
:1047B00015FC4FF480412248FCF778FDDFF8CC80EF
:1047C00028B10123642088F80030FCF707FC4FF083
:1047D0007A5A4FF480411A48FCF768FD002840F0EF
:1047E00070810120FFF7AAFB3220FCF7F7FB98F855
:1047F0000030012B40F00781DFF894B0DFF894908F
:10480000DBF80030022B59DD1C4F0FA8FFF7E9FD44
:10481000BDF93C00FCF7D0F93968FCF719F93860AC
:10482000174FBDF93E00FCF7C7F93968FCF710F9DE
:1048300032E000BF3407002000E100E00010024039
:10484000001001409C030020000C01400058004073
:104850006D050020B7000020540300200008004030
:10486000A8060020002C014080FC0A009C000020CB
:1048700008000020100000200C000020EC060020A2
:1048800094030020A0860100A3640008A900002072
:10489000A4000020B50000203860C34FBDF94000DF
:1048A000FCF78AF93968FCF7D3F80023CBF800301D
:1048B00099F800303860013389F8003099F90030F8
:1048C000042B7BD1B94B51461868FCF7C9F9B84B9A
:1048D000039051461868FCF7C3F9DFF8CCB2029098
:1048E0005146DBF80000FCF7BBF9B2490346039AD6
:1048F000B14801F1620731F802EF20F802EFB1F898
:1049000064E0B942A0F864E0B1F8C8E0A0F8C8E0FB
:10491000F1D1AA49104609680393FCF797F8FCF710
:10492000EFFAA74FA74AA7F8620011680298FCF7B0
:104930008DF8FCF7E5FA039BA34AA7F8C6001168B7
:104940001846FCF783F8FCF7DBFA0023DFF864E293
:10495000A7F82A01002203EB0E00D91931F812C082
:1049600020F812C00132322AF8D16433B3F5967FB1
:10497000F0D1002300278D4ACBF8003013608C4A19
:1049800089F800701360FFF7D9F9904B93F8009005
:10499000B9F1020F40F0A4800134FFF77FF9312C08
:1049A0000CDD8B4B1C784CB18A4A1478002C00F03B
:1049B00092803C46177088F800701F70FFF70EFA5F
:1049C000854901280B7808BF0024012B1BD1002248
:1049D000DFF808B2DFF844920A702A702F780B2FA4
:1049E00040F2D3800020D9F800207C4F0C2B40F0FF
:1049F000198108B1C9F800200023794A2B702B785F
:104A00000B2B40F21981774F3846FEF71BFB00282D
:104A10003FF4DFAEB7F90830734A019397F90030DD
:104A20006021013352F82330704800937B68704A4C
:104A300000F00EFC7B686F4A6F4F9342DFF8E09105
:104A400000F0858100F25E81A2F5AF42283A9342E0
:104A500000F0878100F24381684A934200F071813F
:104A600002F5FF52934200F06A8199F9000020217B
:104A70003860FEF757FFFEF747FA9620FCF7AEFACC
:104A800099F9000020213860FEF74CFFFEF73CFA50
:104A90009620FCF7A3FAFEF76FFA1420FCF79EFAB3
:104AA00097E6022349001A463046FDF75DFA0028D2
:104AB00000F064812E2000F0B7FB2B7801332B70BF
:104AC000E4E54FF400414E48FCF7F0FB00287FF48A
:104AD0008EAE022086E601213F4A1C7011706DE700
:104AE000B9F1010F7FF46AAF63224FF49661BDF90B
:104AF0003C30DFF804B103F51673534393FBF1F335
:104B0000BDF93E10282001F5FA714A434FF47A713D
:104B100092FBF1F24A433B4901FB0322CBF8002010
:104B2000FCF75CFA2420FEF7F9FA2021DBF80000FC
:104B3000FEF7F8FEFEF7E8F99620FCF74FFA41F28F
:104B40006F72314B1F60314B1F7033889342304A74
:104B50000ED9177012782F49012A2F4A0DD16433CC
:104B600033800B8864330B8013886433138025E70C
:104B7000012B98BF82F80090ECE7643B33800B88F0
:104B8000643B0B801388643BF0E738460293FFF7E1
:104B9000ADFA4BF82700DBF800200137C9F80020F8
:104BA0002F70029B1AE700BFF0060020EC060020E1
:104BB00094030020F00300206C05002084070020EF
:104BC0006E05002034050020580500201600002046
:104BD00044050020800700207407002004070020FF
:104BE000C9833842300300203C640008B70000202D
:104BF000846400086F90FF0068050020FD02FF003C
:104C00000010014040420F00B00000206C05002061
:104C1000B60000209E000020A00000205C050020BF
:104C2000E806002057F8041F01339142ACBF11463B
:104C30000120DBB20A46D9E65BF82300D9F8001060
:104C4000884221D103B3012B5E4F21D15E493960E7
:104C50005E490B7024200292FEF760FA202138682A
:104C6000FEF760FEFEF750F9FA20FCF7B7F92420B2
:104C7000FEF754FA20213868FEF754FEFEF744F997
:104C8000FA20FCF7ABF9029A297801312970B6E6CF
:104C9000022B02D14E493960DCE7032B01D14D498B
:104CA000F9E7042B01D14C49F5E7052B01D14B491C
:104CB000F1E7062B01D14A49EDE7072B01D149491C
:104CC000E9E7082B01D14849E5E7092B01D13A6012
:104CD000C0E70A2B454B464918BF1946DBE7454A52
:104CE000934257D002F5BF52083293427FF4BDAED3
:104CF000022399F90020092A01DC002A2BD189F826
:104D00000030B2E63C4A93421FD00AD8A2F57F6237
:104D100093421ED002F6F61293427FF4A6AE012310
:104D2000E7E7364A93420ED002F5FF7293422FD046
:104D3000A2F5FF5293427FF498AE0623D9E70423ED
:104D4000D7E70523D5E70723D3E70823D1E70923CE
:104D5000CFE70023CDE7C4BF02EB820203EB42039F
:104D6000CDE70123264A88F8003013700222254B34
:104D70001A704FF47A70FCF731F976E62B784246D8
:104D80001421384600F064FA384600F035FA94E60B
:104D90000323AEE799F90000FFF74EF899F90000F8
:104DA00020213860FEF7BEFDFEF7AEF84FF47A70B2
:104DB000FCF714F9144820213860FEF7B3FDFEF724
:104DC000A3F8D6E768050020C1833842160000200A
:104DD000C2833842C3833842C4833842C5833842D1
:104DE000C6833842C7833842C8833842CB833842AF
:104DF000CA833842B54AFF0057A8FF001FE0FF00F2
:104E000080070020A8000020819698000E4B82B0F9
:104E10009A6942F001029A619A6902F001020092D5
:104E2000009ADA6942F08052DA61DB69074A03F0DE
:104E300080530193019B536823F0E06343F00073B8
:104E4000536002B0704700BF0010024000000140F4
:104E50001FB502681F4B04469A4212D103F5023374
:104E6000DA691E2042F00402DA610022DB69114691
:104E700003F004030193019BFCF7D4F81E20FCF718
:104E800005F92268144B9A4212D103F564439A69DA
:104E9000192042F400629A6100229B69114603F4D2
:104EA00000630293029BFCF7BDF81920FCF7EEF8B3
:104EB0002368B3F1804F0AD103F50433DA6942F075
:104EC0000102DA61DB6903F001030393039B04B081
:104ED00010BD00BF00080040002C014010B5044682
:104EE00086B01022002102A800F07EF92268114B42
:104EF0009A421DD1104C02A9A369104843F008033F
:104F0000A361A36903F008030093009B4FF440637F
:104F100002931223039303230593FCF7E7F8E36955
:104F200043F48003E361E36903F480030193019B8D
:104F300006B010BD0058004000100240000C0140B7
:104F400010B5044686B01022002102A800F04CF9EA
:104F50002268184B9A4213D103F502339A6902A9C9
:104F600042F008029A619B69134803F0080300931A
:104F7000009B40230293022303930593FCF7B6F8AA
:104F80002368B3F1804F13D103F504339A6902A962
:104F900042F004029A619B69084803F004030193FC
:104FA000019B07230293022303930593FCF79EF8CA
:104FB00006B010BD00080040000C01400008014090
:104FC0000268114B10B59A42044607D10F4A1E20C1
:104FD000D36923F00403D361FCF764F822680C4B17
:104FE0009A4207D1094A1920936923F40063936117
:104FF000FCF758F82368B3F1804F01BF034AD36927
:1050000023F00103D36110BD0008004000100240EE
:10501000002C01407047FEE7FEE7FEE7FEE7704721
:1050200070477047FBF7C8BF0148FDF737BC00BFAA
:105030005403002010B500234FF06044934201DB7D
:10504000104610BDD4F8800EC00703D5D4F8000E6A
:10505000C00702D40133F1E700BF20680028FBD06D
:10506000C85C2070F6E70000044B0246196809B9D5
:1050700003491960186802441A607047180100203B
:10508000B02300205822024B4FF0FF301A607047C7
:10509000AC2300205822024B4FF0FF301A607047BB
:1050A000AC2300205822024B00201A60704700BF3A
:1050B000AC2300205822024B4FF0FF301A6070479B
:1050C000AC2300205822024B4FF0FF301A6070478B
:1050D000AC2300200F4B1A6842F001021A60596895
:1050E0000D4A0A405A601A6822F0847222F4803213
:1050F0001A601A6822F480221A605A6822F4FE02AA
:105100005A604FF41F029A604FF00062034B9A609E
:10511000704700BF001002400000FFF800ED00E003
:10512000002103E00B4B5B58435004310A480B4B02
:1051300042189A42F6D30A4A02E0002342F8043B9E
:10514000084B9A42F9D3FFF7C5FF00F00FF8FFF7BD
:10515000E1F97047D86500080000002080000020B9
:1051600080000020B0230020FEE7000070B500257D
:105170000C4E0D4CA41BA410A54209D101F04AF914
:1051800000250A4E0A4CA41BA410A54205D170BDEF
:1051900056F8253098470135EEE756F82530984700
:1051A0000135F2E7D0650008D0650008D065000839
:1051B000D4650008884210B501EB020303D8421EF3
:1051C00099420CD110BD9842F9D28118D21AD3421B
:1051D00000D110BD13F8014D01F8014DF7E711F8AA
:1051E000014B02F8014FEBE703460244934200D122
:1051F000704703F8011BF9E70FB40A4B13B51C689D
:1052000024B1A36913B9204600F096F805AB049ABF
:10521000A1682046019300F03BFB02B0BDE81040BE
:1052200004B070471C00002038B5084B05461C68C8
:1052300024B1A36913B9204600F07EF8A26829467C
:105240002046BDE8384000F0D1BD00BF1C00002062
:105250000CB430B5174B0C1E9DB01D6808DA8B23BB
:105260004FF0FF302B601DB0BDE8304002B07047FA
:105270004FF40273ADF814300CBF234604F1FF3332
:10528000049307934FF6FF7302900690ADF8163023
:10529000209A21AB02A92846019300F0DDF9431CB6
:1052A000BCBF8B232B60002CDDD00022029B1A7028
:1052B000D9E700BF1C000020014900F0A9B800BFD9
:1052C000D5610008002310B5044603604360836085
:1052D00081814366C281036143618361194608226B
:1052E0005C30FFF781FF054B24626362044BA362CD
:1052F000044BE362044B236310BD00BF795E0008DA
:105300009B5E0008D35E0008F75E000870B5682554
:105310004A1E55430E4605F1740100F0E3F80446B9
:1053200040B1002180E842000C30A06005F1680225
:10533000FFF75AFF204670BD836910B5044633BBA2
:105340008364C3640365124B124A1B6882629842ED
:1053500004BF0123836100F01FF86060204600F065
:105360001BF8A060204600F017F80022E06004213E
:105370006068FFF7A7FF01220921A068FFF7A2FFDD
:1053800002221221E068FFF79DFF0123A36110BDF7
:1053900098650008B9520008F8B51C4B07461E680E
:1053A000B36913B93046FFF7C7FF4836B46873686E
:1053B000013B03D5336833B13668F7E7B4F90C50D5
:1053C0006DB16834F4E704213846FFF79FFF306081
:1053D0000028F1D10C2304463B602046F8BD4FF66F
:1053E000FF73E38101236566A3812560A560656085
:1053F00025616561A5610822294604F15C00FFF77B
:10540000F3FE6563A563A564E564E6E798650008B7
:105410002DE9F84380468946002600F1480414B976
:105420003046BDE8F883A5686768013F01D5246868
:10543000F5E7AB89012B07D9B5F90E30013303D05D
:1054400029464046C84706436835EEE738B5054665
:10545000002943D051F8043C0C1F002BB8BFE418BE
:1054600000F071FF1E4A1368104633B96360146080
:105470002846BDE8384000F067BFA3420BD9216839
:105480006218934201BF1A685B6852182260636019
:105490000460EDE713465A680AB1A242FAD91968C6
:1054A0005818A0420BD12068014458188242196054
:1054B000DED110685268014419605A60D8E702D9F9
:1054C0000C232B60D4E7206821188A4201BF1168A1
:1054D00052680918216062605C60C9E738BD00BF8E
:1054E0001C01002070B5CD1C25F0030508350C2DDE
:1054F00038BF0C25002D064601DBA94203D90C2339
:105500003360002070BD00F01EFF234A146821465E
:1055100091B9224C23681BB9304600F09DFC2060F5
:105520002946304600F098FC431C26D10C23304617
:10553000336000F009FFE4E70B685B1B1AD40B2B08
:105540000FD90B60CC18CD50304600F0FDFE04F1B1
:105550000B00231D20F00700C31A1BD05A42E25053
:1055600070BD8C420BBF63684B681360636018BFEB
:105570000C46E9E70C464968CAE7C41C24F003045A
:10558000A04205D0211A304600F066FC0130CDD093
:105590002560D9E770BD00BF1C010020200100205C
:1055A0002DE9F0478E6882469E420C469146984609
:1055B00035D88A8912F4906F31D0022325680969A1
:1055C0006F1A656905EB450595FBF3F508F10103D5
:1055D0003B449D4238BF1D46530531D52946FFF750
:1055E00081FF064650B90C23CAF80030A3894FF05A
:1055F000FF3043F04003A381BDE8F0873A462169BC
:1056000000F096FEA38923F4906343F08003A38106
:1056100026613E44266046466561ED1BA560464511
:1056200028BF4646494632462068FFF7C3FDA368B7
:1056300000209B1BA36023681E442660BDE8F08702
:105640002A4600F082FE06460028E1D12169504634
:10565000FFF7FCFEC7E700002DE9F04F9DB0039374
:105660008B8980461C060D4616460FD50B696BB913
:105670004021FFF737FF2860286128B90C23C8F8BC
:1056800000304FF0FF30C4E040236B6100230993EA
:1056900020238DF8293030234FF0010B8DF82A306C
:1056A00037463C4614F8013B002B3CD1B7EB060AC9
:1056B0000BD05346324629464046FFF771FF013072
:1056C00000F0A280099B534409933B78002B00F023
:1056D0009B8000234FF0FF320493079305920693BB
:1056E0008DF853301A9305222178504800F012FEAD
:1056F000671C049BD8B9D90644BF20228DF85320DB
:105700001A0744BF2B228DF8532022782A2A16D05C
:1057100000210A20079A27463B780134303B092BA9
:1057200050D9C9B111E0252BC0D02746B9E73F4A6F
:105730003C46801A0BFA00F018430490D3E7039A12
:10574000111D12680391002A01DB079204E0524206
:1057500043F00203079204933B782E2B0DD17B7804
:10576000791C2A2B32D1039B02371A1D1B68039226
:10577000002BB8BF4FF0FF3305932D4C032239782F
:10578000204600F0C7FD38B14023001B03FA00F0AB
:10579000049B0137034304933978062225487E1C75
:1057A0008DF8281000F0B6FD002835D0224BFBB94B
:1057B000039B073323F0070308330393099B4B44F0
:1057C00009936DE700FB02320121A4E700230A24BC
:1057D000184605930F463A780131303A092A03D921
:1057E000002BCAD00590C8E704FB00200123F1E795
:1057F00003AB00932A46114B04A94046AFF3008047
:10580000B0F1FF3F8146D9D1AB895B063FF539AF97
:1058100009981DB0BDE8F08F03AB00932A46074BF3
:1058200004A9404600F0C2F9EAE700BF9C65000801
:10583000A2650008A665000800000000A155000848
:10584000936810B4013B002B936008DA9469A3427B
:1058500002DBCBB20A2B02D110BC00F051BB1368A3
:10586000581C10601970C8B210BC7047F8B50646D5
:105870000F461446D518AC4201D1002007E03A4645
:1058800014F8011B3046FFF7DBFF431CF3D1F8BDD2
:105890002DE9F04F9DB00C4617460393064618B10C
:1058A00083690BB9FFF748FD7C4B9C4257D1746864
:1058B000A38918075DD52369002B5AD000230993CB
:1058C00020238DF8293030234FF0010B8DF82A303A
:1058D000B846454615F8013B002B55D1B8EB070AF1
:1058E0000BD053463A4621463046FFF7BFFF013002
:1058F00000F0C480099B5344099398F80030002BB2
:1059000000F0BC8000234FF0FF3204930793059210
:1059100006938DF853301A9305222978604800F0D9
:10592000F9FC05F10108049B002831D1D90644BFD8
:1059300020228DF853201A0744BF2B228DF85320C4
:105940002A782A2A2CD000210A20079AA84698F8FB
:1059500000300135303B092B6DD971B326E0514B36
:105960009C4201D1B468A3E74F4B9C4208BFF46846
:105970009EE72146304600F027FB00289ED04FF0DE
:10598000FF301DB0BDE8F08F252BA7D0A846A0E7BB
:10599000434A4546801A0BFA00F018430490BBE7CF
:1059A000039A111D12680391002A01DB079204E09B
:1059B000524243F002030792049398F800302E2BD2
:1059C00010D198F8013008F101012A2B37D1039B3F
:1059D00008F102081A1D1B680392002BB8BF4FF094
:1059E000FF330593314D032298F80010284600F04C
:1059F00091FC40B14023401B03FA00F0049B08F1E6
:105A000001080343049398F800100622284808F17F
:105A100001078DF8281000F07DFC002834D0254BBC
:105A200003BB039B073323F0070308330393099B4E
:105A30004B4409934CE700FB0232012186E7002327
:105A40000A2518460593884698F800200131303A17
:105A5000092A03D9002BC5D00590C3E705FB002018
:105A60000123F0E703AB00932246134B04A9304611
:105A7000AFF30080B0F1FF3F8146D8D1A3895B0628
:105A80003FF57DAF09987CE703AB009322460A4BB4
:105A900004A9304600F08AF8ECE700BF586500081A
:105AA0009C6500087865000838650008A265000854
:105AB000A6650008000000006D5800082DE9F047B9
:105AC00091461F468A680B6906469342B8BF134643
:105AD000C9F8003091F843200C46DDF8208012B15F
