:020000040800F2
:100000000050002029520008895100088B51000837
:100010008D5100088F510008915100080000000028
:1000200000000000000000000000000093510008E4
:1000300095510008000000009751000899510008F0
:100040007152000871520008715200087152000884
:100050007152000871520008715200087152000874
:100060007152000871520008715200087152000864
:100070007152000871520008715200087152000854
:100080007152000871520008715200087152000844
:100090007152000871520008715200087152000834
:1000A000715200082943000871520008715200087B
:1000B00071520008715200089D51000871520008E9
:1000C0007152000871520008715200087152000804
:1000D00071520008715200087152000871520008F4
:1000E00071520008715200087152000800000000AF
:1000F0000000000000000000000000000000000000
:0C01000000000000000000005FF808F1A3
:1001100010B5054C237833B9044B13B10448AFF341
:1001200000800123237010BD880000200000000023
:10013000505B000808B5034B1BB103490348AFF3FC
:10014000008008BD000000008C000020505B00080B
:1001500081F0004102E000BF83F0004330B54FEA78
:1001600041044FEA430594EA050F08BF90EA020FE5
:100170001FBF54EA000C55EA020C7FEA645C7FEA78
:10018000655C00F0E2804FEA5454D4EB5555B8BF9B
:100190006D420CDD2C4480EA020281EA030382EA0C
:1001A000000083EA010180EA020281EA0303362D9E
:1001B00088BF30BD11F0004F4FEA01314FF4801C71
:1001C0004CEA113102D0404261EB410113F0004F83
:1001D0004FEA03334CEA133302D0524263EB43033A
:1001E00094EA050F00F0A780A4F10104D5F1200ED8
:1001F0000DDB02FA0EFC22FA05F2801841F1000133
:1002000003FA0EF2801843FA05F359410EE0A5F106
:1002100020050EF1200E012A03FA0EFC28BF4CF037
:10022000020C43FA05F3C01851EBE37101F00045ED
:1002300007D54FF0000EDCF1000C7EEB00006EEBFA
:100240000101B1F5801F1BD3B1F5001F0CD3490884
:100250005FEA30004FEA3C0C04F101044FEA4452DB
:1002600012F5800F80F09A80BCF1004F08BF5FEA62
:10027000500C50F1000041EB045141EA050130BD42
:100280005FEA4C0C404141EB010111F4801FA4F1E5
:100290000104E9D191F0000F04BF01460020B1FA3A
:1002A00081F308BF2033A3F10B03B3F120020CDA72
:1002B0000C3208DD02F1140CC2F10C0201FA0CF050
:1002C00021FA02F10CE002F11402D8BFC2F1200CB5
:1002D00001FA02F120FA0CFCDCBF41EA0C0190406B
:1002E000E41AA2BF01EB0451294330BD6FEA0404B4
:1002F0001F3C1CDA0C340EDC04F11404C4F120029F
:1003000020FA04F001FA02F340EA030021FA04F3B0
:1003100045EA030130BDC4F10C04C4F1200220FA07
:1003200002F001FA04F340EA0300294630BD21FA45
:1003300004F0294630BD94F0000F83F4801306BF0B
:1003400081F480110134013D4EE77FEA645C18BFFF
:100350007FEA655C29D094EA050F08BF90EA020F96
:1003600005D054EA000C04BF1946104630BD91EA8E
:10037000030F1EBF0021002030BD5FEA545C05D191
:100380004000494128BF41F0004130BD14F58004D0
:100390003CBF01F5801130BD01F0004545F0FE4144
:1003A00041F470014FF0000030BD7FEA645C1ABF79
:1003B000194610467FEA655C1CBF0B46024650EAB0
:1003C000013406BF52EA033591EA030F41F40021DC
:1003D00030BD00BF90F0000F04BF0021704730B562
:1003E0004FF4806404F132044FF000054FF0000137
:1003F00050E700BF90F0000F04BF0021704730B5F8
:100400004FF4806404F1320410F0004548BF4042CC
:100410004FF000013EE700BF42004FEAE2014FEA21
:1004200031014FEA02701FBF12F07F4393F07F4FFC
:1004300081F06051704792F0000F14BF93F07F4F2E
:10044000704730B54FF4607401F0004521F0004171
:1004500020E700BF50EA010208BF704730B54FF0F7
:1004600000050AE050EA010208BF704730B511F0FC
:10047000004502D5404261EB41014FF4806404F134
:1004800032045FEA915C3FF4DCAE4FF003025FEAB6
:10049000DC0C18BF03325FEADC0C18BF033202EB3E
:1004A000DC02C2F1200300FA03FC20FA02F001FA98
:1004B00003FE40EA0E0021FA02F11444C1E600BF37
:1004C00070B54FF0FF0C4CF4E06C1CEA11541DBFEA
:1004D0001CEA135594EA0C0F95EA0C0F00F0DEF8B5
:1004E0002C4481EA030621EA4C5123EA4C5350EA9A
:1004F000013518BF52EA033541F4801143F48013EB
:1005000038D0A0FB02CE4FF00005E1FB02E506F07B
:100510000042E0FB03E54FF00006E1FB03569CF0D0
:10052000000F18BF4EF0010EA4F1FF04B6F5007FD6
:1005300064F5407404D25FEA4E0E6D4146EB060648
:1005400042EAC62141EA55514FEAC52040EA5E50D1
:100550004FEACE2EB4F1FD0C88BFBCF5E06F1ED87B
:10056000BEF1004F08BF5FEA500E50F1000041EBB2
:10057000045170BD06F0004646EA010140EA02005F
:1005800081EA0301B4EB5C04C2BFD4EB0C0541EA81
:10059000045170BD41F480114FF0000E013C00F396
:1005A000AB8014F1360FDEBF002001F0004170BDBA
:1005B000C4F10004203C35DA0C341BDC04F11404D3
:1005C000C4F1200500FA05F320FA04F001FA05F25F
:1005D00040EA020001F0004221F0004110EBD3702C
:1005E00021FA04F642EB06015EEA430E08BF20EA58
:1005F000D37070BDC4F10C04C4F1200500FA04F3FB
:1006000020FA05F001FA04F240EA020001F000418C
:1006100010EBD37041F100015EEA430E08BF20EAFF
:10062000D37070BDC4F1200500FA05F24EEA020E47
:1006300020FA04F301FA05F243EA020321FA04F076
:1006400001F0004121FA04F220EA020000EBD3702D
:100650005EEA430E08BF20EAD37070BD94F0000F2D
:100660000FD101F00046400041EB010111F4801F61
:1006700008BF013CF7D041EA060195F0000F18BF12
:10068000704703F00046520043EB030313F4801F4E
:1006900008BF013DF7D043EA0603704794EA0C0F08
:1006A0000CEA135518BF95EA0C0F0CD050EA41061E
:1006B00018BF52EA4306D1D181EA030101F000419B
:1006C0004FF0000070BD50EA410606BF10461946C3
:1006D00052EA430619D094EA0C0F02D150EA0136CF
:1006E00013D195EA0C0F05D152EA03361CBF104610
:1006F00019460AD181EA030101F0004141F0FE41AF
:1007000041F470014FF0000070BD41F0FE4141F432
:10071000780170BD70B54FF0FF0C4CF4E06C1CEA32
:1007200011541DBF1CEA135594EA0C0F95EA0C0FE7
:1007300000F0A7F8A4EB050481EA030E52EA0335A2
:100740004FEA013100F088804FEA03334FF08055C3
:1007500045EA131343EA12634FEA022245EA1115F0
:1007600045EA10654FEA00260EF000419D4208BFA1
:10077000964244F1FD0404F5407402D25B084FEA4E
:100780003202B61A65EB03055B084FEA32024FF4FA
:1007900080104FF4002CB6EB020E75EB030E22BF57
:1007A000B61A754640EA0C005B084FEA3202B6EB17
:1007B000020E75EB030E22BFB61A754640EA5C00C6
:1007C0005B084FEA3202B6EB020E75EB030E22BF56
:1007D000B61A754640EA9C005B084FEA3202B6EB57
:1007E000020E75EB030E22BFB61A754640EADC0016
:1007F00055EA060E18D04FEA051545EA16754FEA78
:1008000006164FEAC30343EA52734FEAC2025FEA95
:100810001C1CC0D111F4801F0BD141EA00014FF024
:1008200000004FF0004CB6E711F4801F04BF0143F5
:100830000020B4F1FD0C88BFBCF5E06F3FF6AFAE11
:10084000B5EB030C04BFB6EB020C5FEA500C50F1A1
:10085000000041EB045170BD0EF0004E4EEA113124
:1008600014EB5C04C2BFD4EB0C0541EA045170BD2B
:1008700041F480114FF0000E013C90E645EA060E6F
:100880008DE60CEA135594EA0C0F08BF95EA0C0F9D
:100890003FF43BAF94EA0C0F0AD150EA01347FF4E5
:1008A00034AF95EA0C0F7FF425AF104619462CE7BC
:1008B00095EA0C0F06D152EA03353FF4FDAE10461F
:1008C000194622E750EA410618BF52EA43067FF470
:1008D000C5AE50EA41047FF40DAF52EA43057FF400
:1008E000EBAE12E74FF0FF3C06E000BF4FF0010C0B
:1008F00002E000BF4FF0010C4DF804CD4FEA410C6F
:100900007FEA6C5C4FEA430C18BF7FEA6C5C1BD03B
:1009100001B050EA410C0CBF52EA430C91EA030FBC
:1009200002BF90EA020F0020704710F1000F91EA19
:10093000030F58BF994208BF90422CBFD8176FEAE7
:10094000E37040F0010070474FEA410C7FEA6C5CB5
:1009500002D150EA013C07D14FEA430C7FEA6C5CBC
:10096000D6D152EA033CD3D05DF8040B704700BFE8
:100970008446104662468C461946634600E000BF36
:1009800001B5FFF7B7FF002848BF10F1000F01BD08
:100990004DF808EDFFF7F4FF0CBF012000205DF8D3
:1009A00008FB00BF4DF808EDFFF7EAFF34BF012058
:1009B00000205DF808FB00BF4DF808EDFFF7E0FFF1
:1009C00094BF012000205DF808FB00BF4DF808ED42
:1009D000FFF7CEFF94BF012000205DF808FB00BFA9
:1009E0004DF808EDFFF7C4FF34BF012000205DF88B
:1009F00008FB00BF4FEA410212F5001215D211D5D3
:100A00006FF47873B3EB625212D94FEAC12343F00B
:100A1000004343EA505311F0004F23FA02F018BF8D
:100A2000404270474FF00000704750EA013005D156
:100A300011F0004008BF6FF0004070474FF0000019
:100A4000704700BF80F0004002E000BF81F000412D
:100A500042001FBF5FEA410392EA030F7FEA226C64
:100A60007FEA236C6AD04FEA1262D2EB1363C1BFF4
:100A7000D218414048404140B8BF5B42192B88BF63
:100A8000704710F0004F40F4000020F07F4018BF86
:100A9000404211F0004F41F4000121F07F4118BFA6
:100AA000494292EA030F3FD0A2F1010241FA03FC4E
:100AB00010EB0C00C3F1200301FA03F100F0004336
:100AC00002D5494260EB4000B0F5000F13D3B0F1FE
:100AD000807F06D340084FEA310102F10102FE2A6D
:100AE00051D2B1F1004F40EBC25008BF20F00100DD
:100AF00040EA03007047490040EB000010F4000F8B
:100B0000A2F10102EDD1B0FA80FCACF1080CB2EB1D
:100B10000C0200FA0CF0AABF00EBC250524218437C
:100B2000BCBFD0401843704792F0000F81F4000121
:100B300006BF80F400000132013BB5E74FEA4103F4
:100B40007FEA226C18BF7FEA236C21D092EA030F60
:100B500004D092F0000F08BF0846704790EA010FDA
:100B60001CBF0020704712F07F4F04D1400028BF07
:100B700040F00040704712F100723CBF00F50000E9
:100B8000704700F0004343F0FE4040F4000070471F
:100B90007FEA226216BF08467FEA236301464202CB
:100BA00006BF5FEA412390EA010F40F480007047DE
:100BB0004FF0000304E000BF10F0004348BF404284
:100BC0005FEA000C08BF704743F0964301464FF0C0
:100BD00000001CE050EA010208BF70474FF000031C
:100BE0000AE000BF50EA010208BF704711F000435D
:100BF00002D5404261EB41015FEA010C02BF84462D
:100C00000146002043F0B64308BFA3F18053A3F58B
:100C10000003BCFA8CF2083AA3EBC25310DB01FAD2
:100C200002FC634400FA02FCC2F12002BCF1004F56
:100C300020FA02F243EB020008BF20F001007047E7
:100C400002F1200201FA02FCC2F1200250EA4C003B
:100C500021FA02F243EB020008BF20EADC70704781
:100C60004FF0FF0C1CEAD0521EBF1CEAD15392EA8F
:100C70000C0F93EA0C0F6FD01A4480EA010C40026B
:100C800018BF5FEA41211ED04FF0006343EA5010C5
:100C900043EA5111A0FB01310CF00040B1F5000F07
:100CA0003EBF490041EAD3715B0040EA010062F1B6
:100CB0007F02FD2A1DD8B3F1004F40EBC25008BFA0
:100CC00020F00100704790F0000F0CF0004C08BFBE
:100CD00049024CEA502040EA51207F3AC2BFD2F18B
:100CE000FF0340EAC250704740F400004FF0000399
:100CF000013A5DDC12F1190FDCBF00F000407047D3
:100D0000C2F10002410021FA02F1C2F1200200FA10
:100D100002FC5FEA310040F1000053EA4C0308BFD7
:100D200020EADC70704792F0000F00F0004C02BF28
:100D3000400010F4000F013AF9D040EA0C0093F0A3
:100D4000000F01F0004C02BF490011F4000F013BFD
:100D5000F9D041EA0C018FE70CEAD15392EA0C0F6B
:100D600018BF93EA0C0F0AD030F0004C18BF31F0D6
:100D7000004CD8D180EA010000F00040704790F0AC
:100D8000000F17BF90F0004F084691F0000F91F050
:100D9000004F14D092EA0C0F01D142020FD193EA16
:100DA0000C0F03D14B0218BF084608D180EA01009E
:100DB00000F0004040F0FE4040F40000704740F07A
:100DC000FE4040F4400070474FF0FF0C1CEAD05248
:100DD0001EBF1CEAD15392EA0C0F93EA0C0F69D0A4
:100DE000A2EB030280EA010C49024FEA402037D00F
:100DF0004FF0805343EA111143EA10130CF0004006
:100E00008B4238BF5B0042F17D024FF4000C8B42F5
:100E100024BF5B1A40EA0C00B3EB510F24BFA3EBD5
:100E2000510340EA5C00B3EB910F24BFA3EB9103A5
:100E300040EA9C00B3EBD10F24BFA3EBD10340EAFF
:100E4000DC001B0118BF5FEA1C1CE0D1FD2A3FF645
:100E500050AF8B4240EBC25008BF20F001007047FA
:100E60000CF0004C4CEA50207F32C2BFD2F1FF039D
:100E700040EAC250704740F400004FF00003013ACE
:100E800037E792F0000F00F0004C02BF400010F472
:100E9000000F013AF9D040EA0C0093F0000F01F086
:100EA000004C02BF490011F4000F013BF9D041EAA8
:100EB0000C0195E70CEAD15392EA0C0F08D14202DB
:100EC0007FF47DAF93EA0C0F7FF470AF084676E7AE
:100ED00093EA0C0F04D14B023FF44CAF08466EE787
:100EE00030F0004C18BF31F0004CCAD130F0004255
:100EF0007FF45CAF31F000437FF43CAF5FE700BFAD
:100F00004FEA4002B2F1FE4F0FD34FF09E03B3EB16
:100F100012620DD94FEA002343F0004310F0004F56
:100F200023FA02F018BF404270474FF000007047AC
:100F300012F1610F01D1420205D110F0004008BF4B
:100F40006FF0004070474FF00000704738B50E4B0F
:100F5000054618784FF47A73B3FBF0F30B4A106828
:100F6000B0FBF3F000F0ACF8044658B90F2D09D8E7
:100F7000024629464FF0FF3000F054F8044B20465B
:100F80001D6038BD012038BD000000202000002079
:100F900004000020074A08B51368032043F010033B
:100FA000136000F02DF80020FFF7D0FF03F0E8FFFA
:100FB000002008BD00200240034A044B11681B7842
:100FC0000B441360704700BF2C0500200000002078
:100FD000014B1868704700BF2C05002038B5044647
:100FE000FFF7F6FF0546631C1EBF044B1B78E41891
:100FF000FFF7EEFF401B8442FAD838BD0000002006
:10100000074A0002D36800F4E06023F4E0631B04A5
:101010001B0C43F0BF6343F400330343D3607047BA
:1010200000ED00E0174B30B5DC68C4F30224C4F1D6
:101030000703251D042B28BF0423062D4FF00105AF
:1010400098BF002405FA03F303F1FF3388BF033C84
:101050001940A14005FA04F4013C2240002842EA6C
:1010600001024FEA0212AFBF00F16040064B00F0F0
:101070000F00D2B2A5BFD2B200F561401A5480F879
:10108000002330BD00ED00E014ED00E00123420933
:1010900000F01F0003FA00F0014B43F822007047F4
:1010A00000E100E00122430900F01F0002FA00F015
:1010B000024A203342F82300704700BF00E100E0FD
:1010C0000138B0F1807F0AD2F021064B064A586001
:1010D00082F823100020072298601A6070470120D0
:1010E000704700BF10E000E000ED00E02DE9F74F91
:1010F00000221646654BDFF8A4E1DFF8A4C14FF0EB
:1011000001080C6808FA06F808EA0404A0457FD133
:101110004D68122D00F0AF8000F28880022D00F0A3
:10112000A7807CD8002D00F08E80012D00F09E80DD
:101130004FF00F09FF2C93BF824606F18045083D12
:10114000D0F800B092BFB500D0F804B0AD0009FAF5
:1011500005F82BEA080802FA05F588BF00F1040A31
:1011600048EA0505CAF80050D1F804A01AF0805FDB
:101170004ED0474D464FAD6926F0030845F00105B6
:10118000BD61BD6908F1804805F00105019508F5CC
:10119000803806F0030B019D4FEA8B0BD8F80850FE
:1011A00009FA0BF925EA09093A4DA84268D005F574
:1011B0008065A84266D005F58065A84264D005F533
:1011C0008065A8420CBF0325042505FA0BF545EA06
:1011D0000905C8F808501D681AF4803F14BF25435C
:1011E000A5431D605D681AF4003F14BF2543A54365
:1011F0005D609D681AF4801F14BF2543A5439D6060
:10120000DD681AF4001F14BF2C4325EA0404DC60D7
:101210000136102E7FF473AF03B0BDE8F08F032DBD
:1012200022D0112D84D1CA68043281E71A4FBD4201
:1012300009D012D8DFF86C904D4504D009F58039FB
:101240004D457FF475AF8A68C2B1012A0CBFC0F862
:101250001080C0F8148008226AE77545F3D0654510
:10126000F1D0DFF84490EBE7002261E7CA685FE75E
:10127000CA6808325CE7CA680C3259E7042257E7AB
:101280000025A2E70125A0E702259EE70004014012
:101290000010024000080140000021100000311041
:1012A0000000321000001110000022108368194263
:1012B00014BF0120002070470268536913F4806353
:1012C0000DD06FF480635361042320220364002354
:1012D000036380F83C3080F83D20012070471846B9
:1012E00070472DE9F843044617469946C1F307486D
:1012F0008EB22568B8F1010F0CBF6B69AB6936EA95
:10130000030314BF0120002008B9BDE8F8836B690E
:101310005A0512D52B68202243F400732B606FF41A
:1013200080636B610423236400230120236384F81A
:101330003C3084F83D20BDE8F8837B1CD9D04FB900
:1013400000232022236384F83C3084F83D200320CE
:10135000BDE8F883FFF73CFEA0EB09008742C8D246
:10136000EEE72DE9F843044690461F46089EC1F378
:1013700007498DB22368B9F1010F0CBF5B699B6906
:1013800035EA03030CBF01230023434502D00020AC
:10139000BDE8F8837B1CEDD05FB9002320222363D6
:1013A00084F83C3084F83D20032084F83E30BDE8CA
:1013B000F883FFF70DFE801B8742DBD2EDE770B5A7
:1013C00004460D46164623685B691B0601D50020BE
:1013D00070BD2046FFF770FFA8B96A1CF3D065B94D
:1013E000236C202243F02003236400230320236383
:1013F00084F83C3084F83D2070BDFFF7E9FD801B88
:101400008542E0D2ECE7012070BD00002DE9FF41EC
:1014100015460268984613680B9E43F48073136068
:101420000F4600960A9B00224FF001110446FFF779
:1014300098FF68B9236807F0FE071F610A9A3346D0
:101440001A492046FFF74DFF30B1236C042B18D00A
:10145000032004B0BDE8F081236803905A690A991B
:1014600003929B69324603932046039BFFF7A7FF35
:1014700048B1236C042BEBD12268136843F400734A
:1014800013600120E5E7B8F1010F236802D1EDB246
:101490001D61DEE72A0A1A610A9932462046FFF7E3
:1014A0008EFF0028E5D12368F1E700BF02000100AC
:1014B0002DE9FF419846036816461A680B9D42F4D1
:1014C00080621A601A680F4642F480721A604FF008
:1014D000011100950A9B00220446FFF742FF80B9E4
:1014E0002368FFB207F0FE021A612D492B460A9AC3
:1014F0002046FFF7F6FE40B1236C042B01D10120FA
:1015000000E0032004B0BDE8F081236803905A692D
:101510000A9903929B692A4603932046039BFFF78F
:101520004EFF40B1236C042BEBD12268136843F4C7
:1015300000731360E3E7B8F1010F236824D1F6B21A
:101540001E612A460A992046FFF739FF0246002805
:10155000E8D1216820460B6843F480730B60009546
:101560000A9B4FF00111FFF7FCFE0028C9D1236848
:1015700047F001071F610A9A2B4609492046FFF7E9
:10158000B0FE0028B8D1BDE7320A1A610A992A468E
:101590002046FFF714FF0028C4D12368CFE700BF1F
:1015A0000200010070B504460D46164620684369E6
:1015B00013F0400301D0002070BD4269D2060BD564
:1015C0006FF0100242612022236484F83C302363D0
:1015D000012084F83D2070BD5DB9236C032043F0E9
:1015E00020032364202384F83D30002384F83C301A
:1015F00070BDFFF7EDFC801B8542D7D2EDE770B5DB
:1016000004460D46164623685B695B0701D500203A
:1016100070BD2046FFF750FEA8B96A1CF3D065B92B
:10162000236C202243F02003236400230320236340
:1016300084F83C3084F83D2070BDFFF7C9FC801B66
:101640008542E0D2ECE7012070BD000038B50446C9
:1016500008B9012038BD90F83D3003F0FF021BB9F6
:1016600080F83C2003F0F4FC2423226884F83D3009
:10167000136823F00103136000F0A6FF63682F4A8C
:10168000934230D82E4A9042E3D92E4A2168B0FBCB
:10169000F2F24A6001320A62284A0138934232D893
:1016A0005B00B0FBF3F0431CC3F30B03042B38BF08
:1016B0000423CB61226AE369002013430B60E268D4
:1016C000236913438B60A26963691343CB600B6882
:1016D00043F001030B602023206484F83D30206335
:1016E00084F83E0038BD184A9042B2D9154D4FF4E7
:1016F0009672B0FBF5F521686A434D604FF47A7538
:10170000B2FBF5F2C6E7A26852B903EB4303B0FBA4
:10171000F3F0431CC3F30B036BB143F40043C8E77E
:1017200019225343B0FBF3F0431CC3F30B0313B173
:1017300043F44043BDE70123BBE700BFA08601009F
:101740007F841E0040420F00FF083D002DE9FF414D
:1017500004461F460D469046FFF73AFC94F83D308C
:101760000646202B04D00225284604B0BDE8F081AF
:101770000090192301225D492046FFF7F2FD002861
:10178000F1D194F83C30012BEDD0012384F83C30AA
:1017900023681A68D2075EBF1A6842F001021A6015
:1017A0001A6822F400621A60212284F83D20102277
:1017B00084F83E2000222264A2F580326785E2622E
:1017C000628DC4F824802285E26A042A04D0012AAA
:1017D00002D012F5803F04D11A6842F480721A6078
:1017E00002E0226B122AF7D000960A9B00224FF0EB
:1017F00001112046FFF7B5FD28BB23692268B3F528
:10180000804F12D105F0FE05156133460A9A38491A
:101810002046FFF766FD0546A0B9236803905A6984
:1018200003929B690393039B50E0EB1103F00603C3
:1018300043F0F00313612F4933460A9A2046FFF71D
:1018400050FD48B1236C236C042B4FF0000307D1EB
:1018500084F83C30012587E72368EDB21D61D4E7A9
:1018600084F83C3003257FE732460A992046FFF78B
:10187000A6FD40B1236C042BF4D12268136843F415
:1018800000731360E6E7616A20684B1C63620B78A3
:10189000228D0361638D013B9BB263854769531EB3
:1018A0009BB27F0723850AD54BB18B1C63624B78B3
:1018B000023A0361638D2285013B9BB26385324608
:1018C0000A992046FFF79BFE0028D3D1238D002BD9
:1018D000CAD121680A6842F400720A60202284F8A2
:1018E0003C3084F83D2084F83E303DE70200100093
:1018F00002000100080001002DE9F043044689B010
:1019000098460D469146109FFFF762FB94F83D30D4
:101910000646202B04D00225284609B0BDE8F083F6
:10192000009019230122A2492046FFF71AFD002842
:10193000F1D194F83C30012BEDD0012384F83C30F8
:1019400023681A68D2075EBF1A6842F001021A6063
:101950001A6822F400621A60222284F83D201022C4
:1019600084F83E2000222264A2F58032A4F82A8066
:10197000E262628DC4F824902285E26A1968042A22
:1019800041F48061196004D0012A02D012F5803F31
:1019900004D11A6842F480721A6002E0226B112AA4
:1019A000F7D000963B4600224FF001112046FFF78A
:1019B000D8FC00284DD12369B3F5804F236839D175
:1019C00045F00105EDB21D6133463A46794920469E
:1019D000FFF787FC054600283AD1228D2368002AAC
:1019E00069D0012A7AD11A6822F480621A6072B62C
:1019F000236804955A6904929A690492049A1A68B1
:101A000042F400721A6062B6DFF8B081238D002BB9
:101A10005BD0032B00F2D480012B7BD132463946B8
:101A20002046FFF7BFFD002800F09380236C202B99
:101A300016D13EE04FEAE51808F0060848F0F0023B
:101A40001A615D4933463A462046FFF74AFC48B1E1
:101A5000236C236C042B4FF0000328D184F83C3016
:101A6000012559E72368EDB21D613A4633465149D5
:101A70002046FFF736FC02460028E9D1236807908C
:101A8000596920460791996907910799196841F4A6
:101A90008071196000963B464FF00111FFF761FC21
:101AA0000028D6D1226848F0F10313618CE784F84E
:101AB0003C30032530E703955A6903929A690392F3
:101AC000039A1A6842F400721A60202384F83D30A9
:101AD000002384F83E3084F83C301DE7022A1A685F
:101AE0000ED142F400621A6072B6236805955A69F5
:101AF00005929A690592059A1A6822F4806281E734
:101B000042F480621A6006955A6906929B690693B0
:101B1000069B79E7022B00963B464FF000024146B8
:101B2000204624D1FFF71DFC0028C2D172B62368DD
:101B30001A6842F400721A60626A1B69511C616281
:101B40001370238D013B2385638D013B9BB263851D
:101B500062B6636A5A1C6262226812691A70238D27
:101B6000013B2385638D013B9BB263854EE7FFF705
:101B7000F8FB024600289CD121680B6823F480639F
:101B80000B6072B6636A2046591C6162216809695C
:101B90001970238D0096013B2385638D4146013BDF
:101BA0009BB263853B46FFF7DCFB0028BFD080E794
:101BB0000200100002000100080001000400010002
:101BC000324639462046FFF7EDFC00287FF42EAF61
:101BD000636A5A1C6262226812691A70238D226835
:101BE000013B2385638D013B9BB2638553695B0792
:101BF0007FF50CAF636A591C6162AEE72DE9F347CC
:101C000004469A46884691460C9EFFF7E1F994F8FF
:101C10003D300546202B03D0022002B0BDE8F087FE
:101C20000090192301223E492046FFF79AFB002825
:101C3000F2D194F83C30012BEED0012384F83C30F3
:101C4000236800271A684146D20758BF1A68204601
:101C50005CBF42F001021A601A6822F400621A6046
:101C6000212384F83D30402384F83E300A9B2764CA
:101C70006362BDF82C30019563852A4B0096E362C0
:101C8000638D4A4623855346FFF7C0FB00282AD0C0
:101C9000236C84F83C70042B07D10120BDE7FFF7CB
:101CA0008EFB20B1236C042B34D00320B5E7616A8E
:101CB00027684B1C63620B78228D3B61638D501E3D
:101CC000013B9BB263857B6980B25B0720850AD5A7
:101CD00048B18B1C63624B78023A3B61638D22856D
:101CE000013B9BB26385238D2A4631462046002B5B
:101CF000D5D1FFF784FC0028D4D12268136843F4BF
:101D000000731360202384F83C0084F83D3084F88D
:101D10003E0082E72268136843F400731360BCE757
:101D2000020010000000FFFF2DE9F047044686B0D6
:101D30009A460D469146109FFFF74AF994F83D30B8
:101D40000646202B04D00225284606B0BDE8F087C1
:101D500000901923012281492046FFF702FB002849
:101D6000F1D194F83C30012BEDD0012384F83C30C4
:101D700023684FF000081A682946D20758BF1A682E
:101D800020465CBF42F001021A601A6822F4006229
:101D90001A60222384F83D30402384F83E300E9BA5
:101DA000C4F840806362BDF83C30019663856C4B9B
:101DB0000097E362638D4A4623855346FFF778FB1D
:101DC000054630B1236C84F83C80042B3DD10125BD
:101DD000BAE7228D236892B902905A6902929A69F1
:101DE0000292029A1A6842F400721A60202384F860
:101DF0003D30002384F83E3084F83C30A4E7012ACB
:101E000025D11A6822F480621A6072B623680390A2
:101E10005A6903929A690392039A1A6842F400720B
:101E20001A6062B6DFF83C81238D002BDED0032BD5
:101E300077D8012B27D1324639462046FFF7B2FB2F
:101E400000283FD0236C202BC1D103257CE7022A38
:101E50001A680ED142F400621A6072B623680490C8
:101E60005A6904929A690492049A1A6822F4806268
:101E7000D6E742F480621A6005905A6905929B6920
:101E80000593059BCEE7022B00963B464FF00002E0
:101E90004146204624D1FFF764FA0028D5D172B616
:101EA00023681A6842F400721A60626A1B69511C46
:101EB00061621370238D013B2385638D013B9BB2CF
:101EC000638562B6636A5A1C6262226812691A707C
:101ED000238D013B2385638D013B9BB26385A3E783
:101EE000FFF73FFA02460028AFD121680B6823F4C0
:101EF00080630B6072B6636A2046591C6162216878
:101F000009691970238D0096013B2385638D414635
:101F1000013B9BB263853B46FFF723FA0028BFD005
:101F200093E7324639462046FFF73CFB002889D12B
:101F3000636A5A1C6262226812691A70238D2268D1
:101F4000013B2385638D013B9BB2638553695B072E
:101F50007FF56AAF636A591C6162B7E7020010003F
:101F60000000FFFF040001002DE9F04F044685B09A
:101F7000984689469246FFF72BF894F83D3006467E
:101F8000202B03D0022005B0BDE8F08F009019236C
:101F900001224B492046FFF7E4F90028F2D194F8DA
:101FA0003C30012BEED0012384F83C30236800251F
:101FB0001A68DFF80CB1D20758BF1A6809F0FE0999
:101FC0005CBF42F001021A601A6822F400621A60D3
:101FD000242384F83D303B4B2564E36222684FF0B4
:101FE00001111368204643F4807313600096434642
:101FF0000022FFF7B6F908B10320C4E72368A02741
:10200000C3F81090FEF7E4FF0646236859695A6941
:1020100094F83D30C1F34001C2F38022DBB211B924
:102020000AB9A02B20D12027236884F83D705A6973
:1020300012F0020F1A6842F400721A602AD00022CD
:1020400003925A691E4903929B6901220393039BE1
:10205000009619232046FFF784F90028CCD184F894
:102060003D7084F83C008EE7B8F1000F0CD184F885
:102070003D70236859695A6994F83D30C1F34001B5
:10208000C2F38022DBB2CAE7FEF7A2FF801B8045C5
:10209000EDD3EEE76FF4806259465A612046009610
:1020A00019230122FFF75DF90028A5D10135AA45C2
:1020B00094D884F83C0084F83D70012063E700BFA9
:1020C000020010000000FFFF90F83D007047006C18
:1020D0007047000003682DE9F341DB07054610D483
:1020E0002B689F075ED42B68190700F195802B6839
:1020F0005A0700F1BF80EA69002A40F02D810020D4
:1021000014E0904C636803F00C03042B07D0636861
:1021100003F00C03082B0CD16368DE0309D5236898
:102120009C03DDD56B68002BDAD1012002B0BDE83D
:10213000F0816B68B3F5803F10D1236843F480339E
:102140002360FEF745FF064623689803C8D4FEF7D0
:102150003FFF801B6428F7D90320E7E79BB923687A
:1021600023F480332360236823F480232360FEF765
:102170002FFF064623689903B2D5FEF729FF801B7F
:102180006428F7D9E8E7B3F5A02F236803D143F417
:1021900080232360D1E723F480332360236823F472
:1021A0008023CDE7674C636813F00C0F07D063689A
:1021B00003F00C03082B10D16368DA030DD42368F5
:1021C0009B0702D52B69012BAFD123686A6923F0E5
:1021D000F80343EAC203236085E72A695A4B6AB1D0
:1021E00001221A60FEF7F4FE064623689F07ECD42E
:1021F000FEF7EEFE801B0228F7D9ADE71A60FEF766
:10220000E7FE0646236898077FF56DAFFEF7E0FE10
:10221000801B0228F6D99FE7AA694A4C4B4BDAB1DA
:1022200001221A60FEF7D4FE0646636A9B070DD5AD
:102230004FF4FA52464B1B68B3FBF2F3019300BF15
:10224000019B5A1E0192002BF9D150E7FEF7C0FE08
:10225000801B0228E9D97FE71A60FEF7B9FE06461F
:10226000636A9F077FF543AFFEF7B2FE801B02282B
:10227000F6D971E7334CE369D80024D40127E36928
:1022800043F08053E361E36903F080530093009BC4
:10229000304E3368D90518D5EB68012B26D1236A57
:1022A00043F001032362FEF793FE41F28836804635
:1022B000236A9B073FD5002F3FF41DAFE36923F04E
:1022C0008053E36117E70027E2E7336843F4807344
:1022D0003360FEF77DFE80463368DA05DCD4FEF716
:1022E00077FEA0EB08006428F6D935E7ABB9236A7E
:1022F00041F2883823F001032362236A23F00403A8
:102300002362FEF765FE0646236A9807D3D5FEF7DB
:102310005FFE801B4045F7D91EE7052B236A03D1DA
:1023200043F004032362BAE723F001032362236A24
:1023300023F00403B6E7FEF74BFEA0EB0800B04223
:10234000B6D909E700100240000042428004424230
:102350002000002000700040224C636803F00C0352
:10236000082B3FF4E2AE00231F4E022A33602BD12C
:10237000FEF72EFE0746236899011FD42B6AB3F59A
:10238000803F05D16268A96822F400320A43626086
:10239000696A62680B4322F4741213436360012379
:1023A0003360FEF715FE054623689A013FF5A7AE98
:1023B000FEF70EFE401B0228F6D9CDE6FEF708FE1A
:1023C000C01B0228D7D9C7E6FEF702FE05462368E0
:1023D0009B017FF594AEFEF7FBFD401B0228F6D96A
:1023E000BAE600BF001002406000424230B5194B0F
:1023F00087B002AC03F1100522461868596808330B
:1024000003C2AB421446F7D101238DF804300223F6
:1024100011498DF805304B6803F00C02082A17D1DA
:10242000C3F3834206A80244DB0312F8102C0CD538
:102430004B680A48C3F34043504306AA134413F8B9
:10244000143CB0FBF3F007B030BD05485043FAE749
:102450000248F8E7685B00080010024000127A00AA
:1024600000093D00544A2DE9F0411368054603F088
:1024700007038B420E462AD329688C0734D4CA0737
:1024800047D44D4A136803F007039E42C0F0828090
:102490002A684A4C12F0040F40F08780130706D5D3
:1024A00063682A6923F4605343EAC2036360FFF759
:1024B0009DFF6368424AC3F30313D35CD840414B8A
:1024C00018600020FEF742FD0020BDE8F08113688F
:1024D00023F007030B431360136803F007039942CB
:1024E000CAD00120BDE8F081344B11F0040F1EBFAB
:1024F0005A6842F4E0625A60080742BF5A6842F4E0
:1025000060525A605A68A86822F0F00202435A608A
:10251000B5E76A68294C012A23681CD113F4003FEF
:10252000DFD0636841F2883823F00303134363600C
:10253000FEF74EFD6B680746012B14D1636803F06C
:102540000C03042B9DD0FEF743FDC01B4045F5D97D
:102550000320BDE8F081022A02D113F0007FDFE7FB
:1025600013F0020FDCE7022B0FD1636803F00C03BA
:10257000082B86D0FEF72CFDC01B4045F5D9E7E7B8
:10258000FEF726FDC01B4045E2D8636813F00C0F30
:10259000F6D176E7136823F007033343136013681B
:1025A00003F007039E429CD172E76368E96823F455
:1025B000E0630B43636071E70020024000100240BB
:1025C000C664000820000020044B054A5B68C3F382
:1025D0000223D35C034A1068D840704700100240C1
:1025E000D664000820000020036A70B523F00103C0
:1025F0000362036A446882690D6822F073022A4309
:102600008D6823F002032B430A4DA8420BD1CD68FD
:1026100023F008032B438E694D6924F4407435433D
:1026200023F004032C43446082614A6842630362DE
:1026300070BD00BF002C0140036A70B523F48073A5
:102640000362036A4468C2690D6822F073022A4378
:102650008D6823F4007343EA05230B4DA8420DD186
:10266000CD6823F4006343EA05238E694D6924F4A1
:102670004054354323F4806344EA05144460C26146
:102680004A68C263036270BD002C0140036A30B522
:1026900023F480530362036A4468C2690D6822F41C
:1026A000E64242EA05228D6823F4005343EA0533EB
:1026B000064DA84202BF4D6924F4804444EA8514C3
:1026C0004460C2614A680264036230BD002C01406C
:1026D000022341F2111210B580F83D300368044620
:1026E000196A114208D140F24442196A114202BFEC
:1026F0001A6822F001021A60204602F01BFD002039
:1027000084F83D0084F83C0010BD03680020DA68BE
:1027100042F00102DA601A6842F001021A60704762
:10272000704790F83C3070B5012B4FF002031CD07D
:10273000012280F83D30036880F83C209A6822F43A
:102740007F4222F077029A600A68402A79D019D82D
:10275000102A00F093800AD8002A00F08980012313
:1027600080F83D30002380F83C30184670BD202AA8
:1027700000F08A80302AF2D19A6822F0700242F08A
:10278000370236E0702A36D01BD8502A42D0602A51
:10279000E5D11C6A4D6824F01004CE681C6299696A
:1027A0001A6A21F4704122F0A00242EA051241EABD
:1027B000063199611A629A6822F0700242F067024B
:1027C00017E0B2F5805F11D0B2F5005FC7D18A681B
:1027D0004D689C68C9682A4324F47F4442EA012278
:1027E00022439A609A6842F4804202E09A6822F09A
:1027F00007029A60B3E78A684D689C68C9682A43F3
:1028000024F47F4442EA012222439A609A6842F00B
:102810007702EEE74C68CE68196A1D6A21F00A015A
:1028200025F001051D629A69214322F0F00242EA77
:1028300006129A6119629A6822F0700242F05702F9
:10284000D7E74C68CE68196A1D6A21F00A0125F0A5
:1028500001051D629A69214322F0F00242EA061244
:102860009A6119629A6822F0700242F04702C0E74A
:102870009A6822F0700242F00702BAE79A6822F0E2
:10288000700242F01702B4E79A6822F0700242F038
:102890002702AEE77047704770477047036810B56E
:1028A0001A69044691070ED5DA6892070BD56FF0C6
:1028B00002021A6101229B6902779B0777D0FFF71A
:1028C000EAFF0023237723681A69500710D5DA68D6
:1028D00051070DD56FF004021A6102229B6922771D
:1028E00013F4407F204668D0FFF7D5FF00232377FD
:1028F00023681A6912070FD5DA6810070CD56FF034
:1029000008021A610422DB692277990720465AD00F
:10291000FFF7C1FF0023237723681A69D20610D579
:10292000DA68D0060DD56FF010021A610822DB6953
:10293000227713F4407F20464BD0FFF7ACFF0023F3
:10294000237723681A69D10708D5DA68D20705D535
:102950006FF0010220461A6100F0E6F923681A6957
:10296000100608D5DA68110605D56FF080022046FA
:102970001A6100F0D8F923681A69520608D5DA6896
:10298000500605D56FF0400220461A61FFF785FF1B
:1029900023681A69910622D5DA6892061FD56FF06E
:1029A00020022046BDE810401A6100F0BBB9FFF7D5
:1029B00071FF2046FFF770FF83E7FFF76BFF2046AC
:1029C000FFF76AFF92E7FFF765FF2046FFF764FF16
:1029D000A0E7FFF75FFF2046FFF75EFFAFE710BD00
:1029E0001A4A036890420AD0B0F1804F07D0A2F58E
:1029F0009432904203D002F58062904215D14A6829
:102A000023F070031343114A90420AD0B0F1804F73
:102A100007D0A2F59432904203D002F58062904232
:102A200003D1CA6823F4407313434A6923F0800337
:102A3000134303608B68C3620B688362034B984245
:102A400004BF0B690363012343617047002C0140FD
:102A500010B50446A0B190F83D3003F0FF021BB959
:102A600080F83C2002F0AEFA0223206884F83D3062
:102A7000211DFFF7B5FF0123002084F83D3010BD74
:102A8000012010BD10B50446A0B190F83D3003F010
:102A9000FF021BB980F83C20FFF742FE02232068AA
:102AA00084F83D30211DFFF79BFF0123002084F8AF
:102AB0003D3010BD012010BD036A70B523F0100336
:102AC0000362036A446882690D6822F4E64242EABE
:102AD00005228D6823F0200343EA05130B4DA8421D
:102AE0000DD1CD6823F0800343EA05138E694D694B
:102AF00024F44064354323F0400344EA85044460F1
:102B000082614A688263036270BD00BF002C01408D
:102B100038B590F83C300446012B4FF0020025D028
:102B2000012384F83D0084F83C300C2A18D8DFE8F3
:102B300002F0071717171E1717172F171717400040
:102B40002068FFF751FD236809699A6942F008027D
:102B50009A619A6922F004029A619A690A439A6119
:102B60000123002084F83D3084F83C0038BD206803
:102B7000FFF7A2FF236809699A6942F400629A612B
:102B80009A6922F480629A619A6942EA0122E6E730
:102B90002068FFF751FD23680969DA6942F00802ED
:102BA000DA61DA6922F00402DA61DA690A43DA6189
:102BB000D6E72068FFF76AFD23680969DA6942F4FD
:102BC0000062DA61DA6922F48062DA61DA6942EA83
:102BD0000122ECE710B50124036A8C4023EA0403C8
:102BE0000362036A8A401A43026210BD10B50446AC
:102BF00001220068FFF7EEFF2368064A0020934297
:102C000002BF5A6C42F400425A641A6842F0010250
:102C10001A6010BD002C014010B504460022006867
:102C2000FFF7D8FF2368124A93420DD141F21112E7
:102C3000196A114208D140F24442196A114202BF96
:102C40005A6C22F400425A6441F21112196A11427C
:102C500008D140F24442196A114202BF1A6822F0B8
:102C600001021A600123002084F83D3010BD00BF2E
:102C7000002C014010B504460C290DD8DFE801F006
:102C8000070C0C0C1E0C0C0C230C0C0C28000268FE
:102C9000D36843F00203D36020680122FFF79AFF54
:102CA00023680E4A0020934202BF5A6C42F400424D
:102CB0005A641A6842F001021A6010BD0268D368B3
:102CC00043F00403E7E70268D36843F00803E2E750
:102CD0000268D36843F01003DDE700BF002C014019
:102CE00090F83C3010B5012B4FF0020318D080F85B
:102CF0003D3003680C685A68496822F070025A60D7
:102D00005A6822435A609A6822F080029A609A6850
:102D10000A439A60012380F83D30002380F83C305C
:102D2000184610BD7047704708B5274B834245D100
:102D300020212648FEF7BAFA254B5A88013292B272
:102D40005A805A781A78023A042A37D8DFE802F013
:102D5000031B2C343700002830D15A8892B2632AE2
:102D600001D8588008BD83F8040258705A78D2B24E
:102D7000511CC9B25970598803EB420289B2918043
:102D8000588003220EE0012818D15A78D2B2511C83
:102D9000C9B25970598803EB420289B2918000226E
:102DA0005A8004221A7009E00028DFD05A8892B2B3
:102DB000642A03D90522F5E70028D2D008BD0122F4
:102DC00083F80422F6E700BF5C070020000C0140F6
:102DD00030050020D0B504460846FDF70BFB002265
:102DE000114B06460F46FDF76BFB00220F4BFDF71C
:102DF00091FCFDF7FFFDA04214DC00220C4B304695
:102E00003946FDF75DFB0022084BFDF783FC0022ED
:102E1000084BFDF7A3F9FDF7EDFD8442CCBF002080
:102E20000120D0BD0020D0BD0000E83F0000494097
:102E30000000F43F0000F03FD0B5044601F164000B
:102E4000FDF7D8FA0022124B06460F46FDF738FB75
:102E50000022104BFDF75EFCFDF7CCFDA04214DC18
:102E600000220D4B30463946FDF72AFB0022094B64
:102E7000FDF750FC0022094BFDF770F9FDF7BAFD94
:102E80008442CCBF00200120D0BD0020D0BD00BFB7
:102E90000000E83F000049400000F43F0000F03F20
:102EA000D0B50446A1F16400FDF7A4FA0022124B4C
:102EB00006460F46FDF704FB0022104BFDF72AFCE7
:102EC000FDF798FDA04214DC00220D4B3046394638
:102ED000FDF7F6FA0022094BFDF71CFC0022094B16
:102EE000FDF73CF9FDF786FD8442CCBF00200120B0
:102EF000D0BD0020D0BD00BF0000E83F0000494029
:102F00000000F43F0000F03F30B5184C87B000F0EF
:102F1000F5F82046FFF7DCFB0021102202A802F0A2
:102F2000EDF94723124A002584E80C00312320469E
:102F3000E36000950195A5602561A561FFF788FD17
:102F40004FF4805302A920460293FFF7EAFB69463B
:102F5000204600950195FFF7C3FE0222054B20464F
:102F60001A705D70FFF7D1FB07B030BD5C07002021
:102F700000080040300500200222024B1A70002297
:102F80005A70704730050020F8B506460846FDF730
:102F900021FA044630460D46FDF71CFA10A3D3E98A
:102FA000002306460F46FDF78BFA02460B462046E5
:102FB0002946FDF7F7FC88B909A3D3E90023204689
:102FC0002946FDF77DFA02460B4630463946FDF7A5
:102FD000E9FC002814BF02200120F8BD0020F8BD44
:102FE0009A9999999999E93F2DE9F041B0F91070B2
:102FF0000646052F1FDD0124104DDFF84480A31C79
:10300000BB4207DB2023338100237560337001202E
:10301000BDE8F081F2686300043332F81400D15A3D
:1030200080B289B2FFF7B0FF08FB05F500B20134AA
:10303000454024B2E3E70020BDE8F081C59D1C8136
:103040009301000110B52C4B044613F8031CC36018
:10305000018293F8002213F8043C4282052B48D1E8
:1030600000F09EFA08B1012010BD204600F04EFD90
:103070000028F8D1204600F0DFFC0028F3D12046DC
:1030800000F038FA0028EED1204600F079FB002845
:10309000E9D1204600F0CAFB0028E4D1204600F028
:1030A000DFFA0028DFD1204600F0D0F90028DAD17D
:1030B000204600F059F90028D5D1204600F05CFCEC
:1030C0000028D0D1204600F083FD0028CBD1204637
:1030D00000F0A6F80028C6D1204600F0FDF8002830
:1030E000C1D12046FFF780FF0028BCD1FFF744FF85
:1030F00010BD002010BD00BF34050020054A136834
:1031000043F080731360044A136843F001031360B3
:10311000704700BFFCED00E0001000E070B54FF418
:103120007A767043214C224E8EB096FBF0F6204604
:10313000FFF7CEFA1022002103A8002502F0DEF8E6
:103140001C2229460DEB020001950295013E02F07A
:10315000D5F8184BB6B2204684E82800E660A56092
:103160002561A561FFF774FC4FF4805303A9204645
:103170000393FFF7D6FA2046FFF784FC01A9204607
:1031800001950295FFF7ACFD602307930323B6FB7F
:10319000F3F62A4607A92046089609950B95FFF7EE
:1031A000B7FC204601F086FF0EB070BD5C07002022
:1031B00000A24A0400080040064B074A1B68B3FB04
:1031C000F2F300225843054B5A605A689042FCD8EB
:1031D000704700BF2000002040420F00001000E0B8
:1031E00010B5044600210548FFF700FD24B1204634
:1031F000BDE81040FFF7E0BF10BD00BF5C07002036
:1032000010B5044600210548FFF706FD24B120460D
:10321000BDE81040FFF7D0BF10BD00BF5C07002025
:103220002DE9F8432B4B04465A789846572A02D882
:103230000020BDE8F883C36842F26021588880B25C
:10324000FFF7FAFD0028F3D0E36841F29411988863
:1032500080B2FFF725FE0028EAD01D27002598F848
:103260000130043B9F420CDB3E46013E46F34F06D5
:10327000292E2681DCDD0923656023700120BDE84D
:10328000F883E3684FF4FA7133F817004FEA4709FF
:1032900080B2FFF7D1FD0028CAD0E36809F1020926
:1032A00033F809004FF4167180B27E1CFFF7F8FD69
:1032B00020B16D0045F001050237D0E7E36840F228
:1032C000A46133F8090080B2FFF7EAFD0028CCD0F2
:1032D0006D00F1E730050020F8B5224B04465B781D
:1032E000202B01D00020F8BDC3684FF49671588898
:1032F00080B2FFF7A1FD0028F4D0E36840F2EE2190
:10330000988880B2FFF7CCFD0028EBD00627002577
:10331000E3684FF49671D85B80B2FFF78DFD00280B
:10332000E0D0E368BE1C985B4FF4E16180B2FFF728
:10333000B7FD60B16D0045F0010504373E2FE7D1C0
:103340000E2323810F23656023700120F8BDE368FD
:1033500040F2EE21985B80B2FFF7A2FD0028C1D0B9
:103360006D00EAE730050020F8B5374D04466B786C
:103370002E46222B1DD1C3684FF41671588880B297
:10338000FFF75AFDA8B16B78E26803F10043013BF7
:1033900032F813004FF4167180B2FFF74DFD40B1C3
:1033A000002323814FF0FF33636006230120237045
:1033B000F8BDE3684FF4FA51588880B2FFF73CFD3E
:1033C00008B90020F8BD7378202BFAD9E3684FF4D0
:1033D0007A61988880B2FFF763FD0028F1D0032658
:1033E0000025E3684FF4167133F81600770080B2B9
:1033F000FFF722FD0028E4D0E3680237D85B4FF4E2
:10340000C86180B2FFF74CFD98B16D0045F0010531
:103410000236232EE5D1E3684FF41671B3F8460067
:1034200080B2FFF709FD0028CBD01023656023810F
:10343000BBE7E36840F22621D85B80B2FFF730FD9E
:103440000028BED06D00E3E730050020F8B5284B1A
:1034500004465B78382B01D80020F8BDC3684FF4D0
:10346000FA51588880B2FFF7E7FC0028F4D0E368EF
:103470004FF47A61988880B2FFF712FD0028EBD0F4
:1034800003260025E3684FF4167133F81600770021
:1034900080B2FFF7D1FC0028DED0E3680237D85BAA
:1034A0004FF4C86180B2FFF7FBFCB0B16D0045F08E
:1034B000010502363B2EE5D1E3684FF41671B3F8EF
:1034C000760080B2FFF7B8FC0028C5D01C2323810A
:1034D0000A23656023700120F8BDE36840F22621CD
:1034E000D85B80B2FFF7DCFC0028B5D06D00E0E7C8
:1034F000300500202DE9F843284B04465A789946B8
:10350000212A02D80020BDE8F883C3684FF4AF71C8
:10351000588880B2FFF790FC0028F3D002270026DD
:1035200099F801307D1CAB420FDC3D46013D45F36F
:103530004F050F2DD4BF00200C232581C9BF666025
:10354000208123700120BDE8F883E36840F29E717A
:1035500033F817004FEA470880B2FFF76DFC80B1DF
:10356000760046F00106E36808F1020833F8080027
:103570004FF4AF7180B2FFF793FC0028D6D002372A
:10358000CEE7E36840F2EE2133F8170080B2FFF790
:1035900053FC0028B6D07600E5E700BF30050020D8
:1035A000F8B5C3680446588842F2283180B2FFF764
:1035B00043FC08B90020F8BD284D6A78042A18D1C8
:1035C000E36840F6CA01988880B2FFF769FC80B1D1
:1035D000E3684FF40C71D88880B2FFF72DFC40B13E
:1035E000002323814FF0FF33636003230120237006
:1035F000F8BD6B78432BDDD9E36841F294119888CC
:1036000080B2FFF74DFC0028D4D006270025E368E0
:103610004FF40C71D85B80B2FFF70EFC0028C9D0C4
:10362000E368BE1C985B40F29A6180B2FFF738FCF9
:1036300048B16D0045F001050437862FE7D12023FE
:1036400065602381D1E7E3684FF40C71985B80B229
:10365000FFF726FC0028ADD06D00EDE73005002017
:10366000C3682DE9F0410646588840F6AE5180B255
:10367000FFF7E2FB10B90020BDE8F081F36840F2EB
:10368000D661988880B2FFF7D7FB0028F3D00627D1
:1036900000240025F3684FF4FB71D85B80B2FFF77C
:1036A000CBFB0028E7D0F36807F1020833F80800E5
:1036B00040F2DC4180B2FFF7F3FB78B124196D4191
:1036C00044F001040437C62FE4D1052333703023BE
:1036D0007460758033810120BDE8F081F3684FF498
:1036E000C87133F8080080B2FFF7DAFB0028C2D0B7
:1036F00024196D41E6E72DE9F843904699460A689A
:10370000B0F910300F469A4234DA12F0010F0CBFB4
:103710006FF063046424D543C3684C4433F81260EB
:103720002146B6B2304605F00105FFF753FBE8B974
:103730004C4421463046FFF74DFBC8B909EB040164
:103740003046FFF747FBB8B10322D8F80030013309
:103750009A42DDBF0023C8F800303B68C8F800304B
:10376000DCBF01333B602846BDE8F8830122ECE76B
:103770000222EAE70125F6E74FF0FF35F3E7000004
:10378000002201232DE9F3418DE80C00264B04466D
:103790005A7898460C2A03D8002002B0BDE8F08180
:1037A00040F279336A4601A9FFF7A5FF0028F3D15B
:1037B00040F279336A4601A92046FFF79CFF0128B1
:1037C000EAD140F279336A4601A92046FFF793FF18
:1037D00006460028E0D1054698F80120019B9A4250
:1037E00004DC0120268165602070D6E740F2793341
:1037F0006A4601A92046FFF77EFF074640F279336B
:103800006A4601A92046FFF776FF012F06D100285E
:10381000C2D16D0045F001050136DDE7002FBBD1B7
:103820000128B9D16D00F7E73005002000232DE90C
:10383000F3410093B0F910300446002B03DC002064
:1038400002B0BDE8F0810222C36840F66A215888C0
:10385000019280B2FFF7F0FA0028F0D0019BE268F5
:10386000591C32F81300019180B240F27931FFF710
:1038700017FB0028E3D04FF4DE736A4601A9204607
:10388000FFF739FF06460028D9D14FF4DE736A46A8
:1038900001A92046FFF72FFF0128D0D13546B4F902
:1038A0001020019B9A4205DC02232681656023706B
:1038B0000120C5E74FF4DE736A4601A92046FFF7F1
:1038C0001AFF032E80461CD04FF4DE736A4601A90E
:1038D0002046FFF710FF032E074608D14FF4DE7392
:1038E0006A4601A92046FFF706FF8742A7D1B8F133
:1038F000000F10D0B8F1010FA1D1002F9FD16D00A2
:103900000EE04FF4DE736A4601A92046FFF7F3FE8E
:103910008045D9D093E7012F91D16D0045F0010585
:103920000136BCE738B50C4605462620FFF7F6FB06
:1039300041F29410FFF754FC41F29410FFF760FC41
:10394000611E01248C404FF40C7034B9FFF748FC21
:103950002046BDE83840FFF753BC2C4207D0FFF7A4
:103960003FFC4FF4C860FFF74BFC6408EBE7FFF740
:1039700037FC4FF40C70F6E7F8B5C3680446588876
:1039800041F2941180B2FFF757FA08B90020F8BD50
:10399000284D6A78042A18D1E36840F6CA0198884D
:1039A00080B2FFF77DFA80B1E3684FF40C71D888DC
:1039B00080B2FFF741FA40B1002323814FF0FF337B
:1039C0006360072301202370F8BD6B78432BDDD99A
:1039D000E36841F29411988880B2FFF761FA0028F9
:1039E000D4D006270025E3684FF40C71D85B80B271
:1039F000FFF722FA0028C9D0E368BE1C985B4FF499
:103A0000C86180B2FFF74CFA48B16D0045F001057E
:103A10000437862FE7D1202365602381D1E7E3684F
:103A20004FF40C71985B80B2FFF73AFA0028ADD0E2
:103A30006D00EDE7300500202DE9F843324B0446D8
:103A40005A789846192A02D80020BDE8F883C2683F
:103A500013889BB2B3F5487F09D2002303814FF04E
:103A6000FF3343600B2301202370BDE8F8835088A7
:103A700040F6AC5180B2FFF7DFF90028E4D0E368EC
:103A800040F6AC51988880B2FFF7D6F90028DBD019
:103A90000327002698F801307D1CAB420ADC3D4626
:103AA000013D45F34F050B2D25812BDC00202081A6
:103AB000BDE8F883E36840F2B63133F817004FEA07
:103AC000470980B2FFF7ECF90028E9D0E36809F173
:103AD000020933F809004FF4166180B2FFF7ACF920
:103AE00020B1760046F001060237D3E7E3684FF4D1
:103AF0002F7133F8090080B2FFF79EF90028A3D098
:103B00007600F1E76660ADE7300500202DE9F84367
:103B10002E4B04465A789846192A02D80020BDE850
:103B2000F883C26813889BB2B3F5FA7F09D20023E9
:103B300003814FF0FF3343600B2323700120BDE866
:103B4000F88350884FF4166180B2FFF775F90028AA
:103B5000E4D00227002698F801307D1CAB420ADC35
:103B60003D46013D45F34F050B2D25812BDC002003
:103B70002081BDE8F883E3684FF4167133F817002D
:103B80004FEA470980B2FFF78BF90028E9D0E368D4
:103B900009F1020933F809004FF4966180B2FFF78A
:103BA0004BF920B1760046F001060237D3E7E3680F
:103BB0004FF4167133F8090080B2FFF73DF9002881
:103BC000ACD07600F1E766600423B6E7300500204C
:103BD000F8B5314B04465B78452B01D80020F8BD81
:103BE000C36840F2EE21588880B2FFF725F900281B
:103BF000F4D0E36840F2EE21988880B2FFF750F9E4
:103C00000028EBD0E36840F62231D88880B2FFF775
:103C100013F90028E2D0E36840F62231188980B217
:103C2000FFF73EF90028D9D005260025E36840F2C9
:103C3000EE2133F81600770080B2FFF7FDF8002878
:103C4000CCD0E3680237D85B40F6660180B2FFF75C
:103C500027F9B0B16D0045F001050236452EE5D1DA
:103C6000E36840F2EE21B3F88A0080B2FFF7E4F88F
:103C70000028B3D02023238108236560237001200E
:103C8000F8BDE36840F2EE21D85B80B2FFF708F997
:103C90000028A3D06D00E0E7300500202DE9F04FAB
:103CA0004FF4967600254643DFF85490DFF854A091
:103CB000DFF854B087B00024AF1909EB47084FF084
:103CC000FF33029302233A19019305AB009392B29A
:103CD0001023BAF800105846FEF726F89DF9152073
:103CE0009DF9143043EA022348F814300234642C5E
:103CF000E5D16435B5F5967FDDD107B0BDE8F08F2D
:103D0000580B002014000020A00700202DE9F84FD8
:103D10009C4E074634787CBB204601F017F82146BC
:103D2000994C072001F026F994E8060001239748F2
:103D300001F00AF90C21072001F01CF994E80600B3
:103D40000123934801F000F91821072001F012F92E
:103D500094E8060001238F4801F0F6F8242107209B
:103D600001F008F994E8060001238B4801F0ECF813
:103D700000F0FAFF01233370012F3AD1874C824DB6
:103D80002178002001F0F6F895E806003B468448CB
:103D900001F0DAF8217800200C39C9B201F0EAF814
:103DA00095E806003B467F4801F0CEF8C820FDF7B5
:103DB00015F92178302915D90C39C9B2002001F044
:103DC000D9F895E806003B46764801F0BDF8002199
:103DD0000846217001F0CEF895E806003B46704891
:103DE00001F0B2F800F0C0FF23780C332370BDE877
:103DF000F88F022F38D1694C23780C2B05D146203F
:103E0000FDF7ECF80122684B1A702378182B0AD1C1
:103E10006E20FDF7E3F80123644A1370624A1370C1
:103E20000023337023702378242B02D04FF0FF350A
:103E300017E04FF49670FDF7D1F84FF0FF35DFF83B
:103E40007891DFF878B1DFF878A14FF40041484667
:103E5000FDF72CFA012809D1284600F0B3F8002319
:103E600023702378302B2ED0BDE8F88F4FF480419B
:103E70004846FDF71BFA01288046E6D101350020AF
:103E800000F064FF404F2B465A461421504601F083
:103E90003DFA2178032001F06DF897E806004346CB
:103EA000434801F051F82178032001F063F897E8C6
:103EB00006004346504601F047F800F055FFC82081
:103EC000FDF78CF8C1E74FF49670FDF787F8DFF83F
:103ED000E880DFF8E8A0DFF8E8904FF400414046C2
:103EE000FDF7E4F9012807461CD128460025FFF715
:103EF000D5FE002000F02AFF0A21032001F03AF845
:103F0000214A3B4606CA2B4801F01EF800F02CFF60
:103F1000C820FDF763F838463570FFF7F7FE2570C7
:103F2000BDE8F88F1E20FDF759F84FF48041404658
:103F3000FDF7BCF901288346CFD10135002000F000
:103F400005FF114F2B4652461421484601F0DEF979
:103F50002178032001F00EF897E806005B4614482C
:103F600000F0F2FF2178032001F004F897E8060042
:103F70005B46484600F0E8FF00F0F6FEC820FDF77B
:103F80002DF8AAE7AC00002018000020F45B000820
:103F9000035C0008145C0008255C0008AD000020EC
:103FA000335C0008515C0008AE000020500B00207C
:103FB000435C0008535C000800100140355C0008B9
:103FC000B90000202DE9F04F4FF496764643514F4B
:103FD000514D524C87B04FF0FF33012239882846AB
:103FE000FDF7C2FF20700028F5D137460446DFF800
:103FF00028A100254A4ABB1B03EB020B3BF91530F5
:104000004FF002098DF810301B128DF81130414B22
:1040100007EB450819884FF0FF331FFA88F8029321
:1040200004AB42460093CDF8049010235046FDF7B0
:10403000E5FD1420FCF7D2FF364B424619884FF0BD
:10404000FF33029305AB0093CDF804901023504644
:10405000FDF76AFEBDF914803BF91530984544D050
:10406000304A2821304801F051F9002000F06EFE5E
:104070004946DFF8C890032000F07CFF99E806006D
:104080000123294800F060FF4346284A282126489A
:1040900001F03CF90A21032000F06CFF99E80600CA
:1040A0000123214800F050FF2346214A602100955A
:1040B0001D4801F02BF91421082000F05BFF99E85E
:1040C00006000123184800F03FFF1E21082000F0E1
:1040D00051FF99E806000123164800F035FF00F073
:1040E00043FE44F62060FCF779FF0135322D85D17F
:1040F0000134032C07F164077FF47BAFC820FCF781
:104100006DFF00220C4B01201A70FFF7FFFD07B076
:10411000BDE8F08F14000020A0070020510B002004
:10412000F4070020785B0008B9000020895B0008D4
:10413000935B0008A35B0008AC000020180000207F
:10414000884204DA8242A8BF024610467047FCDD6E
:104150008A42A8BF0A46F8E72DE9F04F4FF41671DE
:104160008BB000AFADF5225D8AB06B466C4A0DF5A1
:10417000225A7A616B4A07F1180401FB002B0DF5F6
:104180001C520C323A610DF51F521C32FA600AF1D2
:10419000200A0022CC2101FB02315BF8220001320F
:1041A000322AC1F8CC00F5D10022191D786930F906
:1041B00012000132322A41F8040BF7D100225D6867
:1041C0001A60D3F8CC20D3F89811501B491B002853
:1041D000B8BF40420029B8BF4942C3F89C11996852
:1041E000C3F8D000521A002AB8BF5242C3F8D420F4
:1041F00003F1080216467A6003F1CC0156F8040B6D
:10420000D3F8CC20121A002AD6F8C400B8BF524204
:104210000244B142C6F8C820F0D11946D1F898211D
:104220005868CC31121A002A4868B8BF524202447A
:10423000C1F8D0203A698A42F0D103F1D008C146D2
:104240007A68BA60BA68D8F8C85052F8040B2D1AC8
:104250004846BA6041680268D0F8CC00FFF770FFAA
:10426000002DBA68B8BF6D4209F1040905449642B1
:10427000C9F8CC50E6D1FA6808F1CC084245DED145
:10428000DAF8002044F8042F3222154633216E1E3E
:1042900001FB06F802F1FF3E08EB0E0153F821C0C6
:1042A000332101FB05E153F82100216884450BD837
:1042B000904453F82880C44504D872466144216074
:1042C00035460CE0844523D34FF0330C0CFB062C11
:1042D00053F82CC060451BD87246014421600DB1D3
:1042E000002AD3D17A690BF1C80B64327A6107F1E5
:1042F0002402A2427FF44DAF3B6AF86918447B6AFE
:104300002C3718440323B0FBF3F0BD46BDE8F08F13
:10431000332000FB062053F8200001442160CFE742
:10432000F4070020580B002008B50848FEF7B6FA3D
:10433000074A136801331360064A13680133136098
:10434000054B1A884FF080435A6308BD940A002039
:10435000B0000020A8000020A40000202DE9F341B7
:104360000D4616464FF47A77DFF82C80440000970C
:1043700033462A4621460848FDF7E8F940B9064C7D
:104380002046FDF7A1FE2028FAD102B0BDE8F08159
:104390004046FDF79CFEEAE7A00700202DE9FF411B
:1043A0001D4604AB03F8011D0446164619460122BA
:1043B000FFF7D4FF4FF47A77DFF830806400ADB2B6
:1043C00000972B46324621460848FDF795FA40B93A
:1043D000064C2046FDF778FE2028FAD104B0BDE84F
:1043E000F0814046FDF773FEEAE700BFA00700201A
:1043F0006B2307B58DF80030002369460222682040
:104400008DF80130FFF7AAFF1B238DF80030082339
:104410006946022268208DF80130FFF79FFF1C23B8
:104420008DF8003010230222694668208DF8013093
:10443000FFF794FF03B05DF804FB1FB50E233B218B
:1044400004466A466820FFF7A9FF00230A210DEB06
:1044500003021DF90300527802EB002292FBF1F2F5
:10446000E2520233062BF2D19DF808209DF8093064
:1044700003EB0223E3809DF80A209DF80B3003EB49
:10448000022323819DF80C209DF80D3003EB0223BD
:10449000638104B010BD0000F0B54FF4FA771A4EF6
:1044A0001A4D1B4C85B001A8FFF7C7FFBDF90400EA
:1044B000FCF782FB3168FCF7CBFA3060BDF90600EF
:1044C000FCF77AFB2968FCF7C3FA2860BDF90800FD
:1044D000FCF772FB2168FCF7BBFA20600320FCF7B5
:1044E0007DFD013FDFD130680A49FCF76DFC0949C9
:1044F00030602868FCF768FC064928602068FCF7F3
:1045000063FC206005B0F0BD540B00203009002092
:10451000500900200000FA4310B590B02822002175
:1045200006A800F0EBFE0021142201A800F0E6FE30
:104530004FF480330122022407930E934FF4E013CB
:1045400006A806920A920F930D94FDF7C3FD0F2360
:104550004FF4806201930023214601A80294039343
:1045600004920593FDF77EFF10B010BD2DE9F04FCA
:10457000002697B0FCF70EFDFFF7CEFF10220021BA
:104580000BA800F0BBFE1C2231460FA809960A9624
:1045900000F0B4FE4FF08043C24D4FF4805885E8E0
:1045A000480041F270732846EB60AE602E61AE6148
:1045B000FEF74EFA0BA92846CDF82C80FEF7B1F88D
:1045C0002846FEF75FFA09A9284602274FF060093E
:1045D00009960A96FEF784FB47F2305332460FA93C
:1045E00028461093CDF83C9011971396FEF790FA59
:1045F00004220FA92846FEF78BFA08220FA92846A5
:10460000FEF786FA284600F055FDF022A64B31460B
:1046100083F81C232846FEF72DFB04212846FEF7CD
:1046200029FB08212846FEF725FB102231460FA85A
:1046300000F064FE9D4B4FF480459A690FA942F04B
:1046400020029A619A699A4802F020020592059A1E
:104650009A69DFF8A8A242F004029A619A6902F00E
:1046600004020692069A9A6942F008029A619A69CF
:1046700002F008020792079A9A6942F010029A61C2
:104680009B690F9503F010030893089BFCF72EFD20
:104690004FF400430FA986480F9310961196FCF72C
:1046A00025FD20230FA983480F9310961196FCF740
:1046B0001DFD8148814A824B056180E80C008660BF
:1046C000C66046618661C6610662FCF7BFFF00F006
:1046D00065FB304600F03AFB3146384600F04AFCB4
:1046E0009AE806000123774800F02EFC00F03CFB1E
:1046F000FFF77EFEFFF7D0FE102231460BA8724D69
:1047000000F0FCFD1C2231460FA809960A9600F025
:10471000F5FD6E4B284685E84800AE60EE602E61E0
:10472000AE61FEF795F90BA92846CDF82C80FDF770
:10473000F8FF2846FEF7A6F909A9284609960A9621
:10474000FEF7CEFACDF83C904FF0010932460FA9A2
:104750002846109611961396FEF7DAF9284600F0CF
:10476000A9FC5B4D102231460FA800F0C7FD594B44
:104770005949284685E80A00AE60C5F80C902E61BC
:104780006E61AE610B960C96FEF762F90FA9284692
:10479000CDF83C80FDF7C5FF0BA928460B960C967B
:1047A000FEF79EFA4FF41670FCF718FC304600F046
:1047B000CDFA3146384600F0DDFB9AE806004B465C
:1047C000464800F0C1FB00F0CFFA4FF41670FCF73A
:1047D00005FCFEF799FB2846FDF797FF4FF416738B
:1047E0003F4DDFF81C812B803E4B30461A68136822
:1047F00043F080731360D8F800301E603A4B1A689B
:10480000136843EA0903136000F0A0FA3146384602
:1048100000F0B0FB9AE806004B46344800F094FBE9
:1048200000F0A2FA3046FFF739FA2B880136C83378
:10483000062E2B80F6D1642300202B8000F086FA10
:104840000021022000F096FB9AE806000123284888
:1048500000F07AFB00F088FA4FF4FA70FCF7BEFB28
:104860000120FFF753FA4FF480411148FCF71EFD79
:10487000012840F07081FFF749FA3220FCF7AEFBC7
:10488000DFF880B09BF80030012B40F0E681194F33
:10489000DFF874903B68022B59DD174E0FA8FFF725
:1048A000CCFD33E0040B002000E100E000100240EA
:1048B00000100140000C0140A007002000580040FB
:1048C000A0860100635C00085C070020000800402F
:1048D000940A002080FC0A00002C0140745C00084F
:1048E000A4000020080000200C000020855C0008C7
:1048F000A65C0008A8000020D40A002018000020B0
:1049000010000020AE000020B8000020BDF93C00DF
:10491000FCF752F93168FCF79BF83060A44EBDF902
:104920003E00FCF749F93168FCF792F83060A14E7F
:10493000BDF94000FCF740F93168FCF789F8002325
:104940003B6099F800303060013389F8003099F904
:104950000030994E042B40F0AD80984B4FF07A51C7
:104960001868FCF77DF9924B03904FF07A51186864
:10497000FCF776F98F4B02904FF07A511868FCF7EC
:104980006FF931460346039A8D4806F1620731F804
:1049900002EF20F802EFB1F864E0B942A0F864E059
:1049A000B1F8C8E0A0F8C8E0F1D18649104609681E
:1049B0000393FCF74BF8FCF7A3FA834F834AA7F85D
:1049C000620011680298FCF741F8FCF799FA039B22
:1049D0007F4AA7F8C60011681846FCF737F8FCF7BD
:1049E0008FFA0023A7F82A010022F018D91931F80C
:1049F00012E020F812E00132322AF8D16433B3F524
:104A0000967FF1D100226D4B01341A60684B312C36
:104A10001A60684B1A604FF000036E4A89F8003044
:104A200013DD14788CB16C490C78002C00F09D805B
:104A30001C460B706948D8F800108BF800301370D2
:104A400000680968091A66480160B6F86230B6F86D
:104A5000C610643364319BB289B2C82B98BFC82991
:104A600094BF012300231278002A14BF002303F00F
:104A700001035C4A002B7DD0B6F82A3146339BB245
:104A80008C2B77D841F2707113780133DBB213703D
:104A90002A888A429CBF3C322A80132B0AD90122E1
:104AA000514B1A7041F270722B88934202D803F571
:104AB00016732B80B6F86230B6F8C620953395325F
:104AC0009BB292B2B3F5957F88BFB2F5957F8CBF4C
:104AD00001230023444A1178012914BF002303F065
:104AE000010383B1B6F82A3195339BB2B3F5957FB4
:104AF00009D901210024374B14701970D8F80030FF
:104B00001A68364B1A60394A1778012F40F0A58091
:104B10000023374E137033703346364ADFF8E0B067
:104B200093F80090B9F1050F27D90021DBF8003088
:104B30003048062F32D109B1CBF8003000231A4695
:104B4000DBF800002C493370062B5BD1002A00F003
:104B50008480337081E04FF400412848FCF7A6FBC5
:104B600001287FF48DAE022085E601211F4B1470D1
:104B700019706AE7002313709BE74846039202937B
:104B8000FFF7EAFA039A029B42F82900116809F13B
:104B90000109CBF8001083F80090C1E750F8042F0A
:104BA00001379A42ACBF1A460121FFB21346C0E753
:104BB0009C070020D80A0020F4070020D40A002017
:104BC00064090020540B00206609002030090020F1
:104BD000500900203C090020500B0020E40A00206E
:104BE000DC0A002028090020E00A0020440B0020F5
:104BF00064090020EC0A0020E80A002000100140AF
:104C00005409002051F8047F874263D1002B61D002
:104C100002B13370012B55D13048314B202118603F
:104C2000FEF780FEFEF770F933782E4A14212E48E5
:104C300000F06CFB002000F089F80A21032000F04E
:104C400099F99AE806000123274800F07DF900F061
:104C50008BF84FF4FA70FCF7C1F9244E3046FEF79A
:104C6000F1F900283FF4FFADB6F90830204A01936E
:104C700096F900306021013352F823301A4800932E
:104C800073681C4A00F042FB002000F05FF80A2124
:104C9000032000F06FF99AE806000123124800F0A3
:104CA00053F900F061F8FEF767F91420FCF796F964
:104CB0004FF011300A4B20211860FEF733FEFEF74B
:104CC00023F9D0E5022B01D10B48A6E7032BABD18A
:104CD0000A48A2E70133DBB2012235E710111111B6
:104CE000B4000020B45C0008B900002038070020A0
:104CF000AC5B0008C35C0008011111111110111107
:104D00007FB54FF0FF3306AA02F8010D029301238D
:104D100078218DE80C0003480022FCF76FFF07B0F4
:104D20005DF804FBA00700201FB54FF0FF3389B2E8
:104D30008DE8030002934022012378210248FCF70A
:104D40005DFF05B05DF804FBA007002000230549C6
:104D5000021C18BF012252425A540133B3F5806F2E
:104D6000F6D170472001002038B500240A4DA4F187
:104D70005000C0B2FFF7C4FF0020FFF7C1FF1020B2
:104D8000FFF7BEFF05EBC41080210134FFF7CCFF15
:104D9000082CECD138BD00BF2001002008B56420EC
:104DA000FCF71CF9AE20FFF7ABFF2020FFF7A8FFB0
:104DB0001020FFF7A5FFB020FFF7A2FFC820FFF7E4
:104DC0009FFF0020FFF79CFF1020FFF799FF402076
:104DD000FFF796FF8120FFF793FFFF20FFF790FF7B
:104DE000A120FFF78DFFA620FFF78AFFA820FFF77D
:104DF00087FF3F20FFF784FFA420FFF781FFD32028
:104E0000FFF77EFF0020FFF77BFFD520FFF778FF3D
:104E1000F020FFF775FFD920FFF772FF2220FFF780
:104E20006FFFDA20FFF76CFF1220FFF769FFDB202E
:104E3000FFF766FF2020FFF763FF8D20FFF760FF7D
:104E40001420FFF75DFFAF20FFF75AFF0020FFF7A8
:104E50007DFFFFF789FF0022024B1A805A80012252
:104E60005A7108BD1A010020030610B51AD43F2953
:104E700018D80D4B1B7913B1B2FA82F25209CC0843
:104E8000012A0A4B01F0070100EBC41004D18A404B
:104E9000195C0A431A5410BD01228A40195C21EAA8
:104EA0000201195410BD00BF1A010020200100208A
:104EB0002DE9F04F87B0074606A800E906009B469B
:104EC000204B9DF810901C88019304EB09027F2A67
:104ED00036DC5B889DF811A0009303EB0A023F2AA1
:104EE0002EDC0026A7F120020AFB02F303935645AD
:104EF00006D3019B4C441C80384607B0BDE8F08FB8
:104F00000025039B0599F21831F812300293009B9B
:104F100003EB06085FFA88F84D4501D30136E6E752
:104F2000029B281903FA05F2130456BFBBFA8BF251
:104F30005A4652094146C0B2FFF796FF0135EBE7EA
:104F40000027D9E71A010020F7B51F466D468DE806
:104F50000600461E74784CB195E8060020463B4694
:104F6000FFF7A6FF16F8014FA042F3D0204603B08A
:104F7000F0BD0000014B1880598070471A010020D5
:104F80000E4B82B09A6942F001029A619A6902F06E
:104F900001020092009ADA6942F08052DA61DB691C
:104FA000074A03F080530193019B536823F0E063A9
:104FB00043F00073536002B0704700BF001002401E
:104FC000000001401FB502681F4B04469A4212D1EF
:104FD00003F50233DA691E2042F00402DA6100228E
:104FE000DB69114603F004030193019BFCF71AF8F7
:104FF0001E20FCF74BF82268144B9A4212D103F59D
:1050000064439A69192042F400629A6100229B6904
:10501000114603F400630293029BFCF703F8192086
:10502000FCF734F82368B3F1804F0AD103F5043359
:10503000DA6942F00102DA61DB6903F001030393EC
:10504000039B04B010BD00BF00080040002C0140CD
:1050500010B5044686B01022002102A800F04EF9D7
:105060002268114B9A421DD1104C02A9A369104825
:1050700043F00803A361A36903F008030093009BB6
:105080004FF4406302931223039303230593FCF729
:105090002DF8E36943F48003E361E36903F48003DB
:1050A0000193019B06B010BD005800400010024063
:1050B000000C014010B5044686B01022002102A861
:1050C00000F01CF92268184B9A4213D103F5023301
:1050D0009A6902A942F008029A619B69134803F099
:1050E00008030093009B402302930223039305933C
:1050F000FBF7FCFF2368B3F1804F13D103F50433B2
:105100009A6902A942F004029A619B69084803F077
:1051100004030193019B0723029302230393059346
:10512000FBF7E4FF06B010BD00080040000C014092
:10513000000801400268114B10B59A42044607D19D
:105140000F4A1E20D36923F00403D361FBF7AAFFA3
:1051500022680C4B9A4207D1094A1920936923F41B
:1051600000639361FBF79EFF2368B3F1804F01BF9B
:10517000034AD36923F00103D36110BD0008004046
:1051800000100240002C01407047FEE7FEE7FEE7FA
:10519000FEE7704770477047FBF70EBF0148FDF709
:1051A0007DBB00BF5C07002008B50A4B02461968AA
:1051B00009B9094919606946186802448A4206D942
:1051C00000F058F80C2303604FF0FF3008BD1A6060
:1051D00008BD00BF200500206C1900200F4B1A6885
:1051E00042F001021A6059680D4A0A405A601A6872
:1051F00022F0847222F480321A601A6822F480222B
:105200001A605A6822F4FE025A604FF41F029A6034
:105210004FF00062034B9A60704700BF00100240DD
:105220000000FFF800ED00E0002103E00B4B5B58AD
:10523000435004310A480B4B42189A42F6D30A4AAB
:1052400002E0002342F8043B084B9A42F9D3FFF7EF
:10525000C5FF00F015F8FFF789F970471C650008D5
:105260000000002088000020880000206C19002029
:10527000FEE70000014B1868704700BF24000020C3
:1052800070B500250C4E0D4CA41BA410A54209D1ED
:1052900000F05EFC00250A4E0A4CA41BA410A54297
:1052A00005D170BD56F8253098470135EEE756F820
:1052B000253098470135F2E71465000814650008A9
:1052C0001465000818650008884210B501EB020358
:1052D00003D8421E99420CD110BD9842F9D28118D0
:1052E000D21AD34200D110BD13F8014D01F8014D7F
:1052F000F7E711F8014B02F8014FEBE703460244D0
:10530000934200D1704703F8011BF9E70CB430B5A4
:10531000174B0C1E9DB01D6808DA8B234FF0FF3031
:105320002B601DB0BDE8304002B070474FF40273EF
:10533000ADF814300CBF234604F1FF3304930793F8
:105340004FF6FF7302900690ADF81630209A21AB0D
:1053500002A92846019300F069F8431CBCBF8B23C7
:105360002B60002CDDD00022029B1A70D9E700BF11
:10537000240000202DE9F0478E6882469E420C46AC
:105380009146984635D88A8912F4906F31D002231D
:10539000256809696F1A656905EB450595FBF3F505
:1053A00008F101033B449D4238BF1D46530531D5EA
:1053B000294600F02DFB064650B90C23CAF80030F0
:1053C000A3894FF0FF3043F04003A381BDE8F0878D
:1053D0003A46216900F0C4FAA38923F4906343F0AC
:1053E0008003A38126613E44266046466561ED1B2D
:1053F000A560464528BF4646494632462068FFF725
:1054000063FFA36800209B1BA36023681E442660E3
:10541000BDE8F0872A4600F059FB06460028E1D196
:105420002169504600F0A8FAC7E700002DE9F04FC7
:105430009DB003938B8980461C060D4616460FD5FA
:105440000B696BB9402100F0E3FA2860286128B9A4
:105450000C23C8F800304FF0FF30C4E040236B61EC
:105460000023099320238DF8293030234FF0010BBE
:105470008DF82A3037463C4614F8013B002B3CD1CE
:10548000B7EB060A0BD05346324629464046FFF793
:1054900071FF013000F0A280099B534409933B78CF
:1054A000002B00F09B8000234FF0FF320493079302
:1054B000059206938DF853301A93052221785048AF
:1054C00000F040FA671C049BD8B9D90644BF2022DB
:1054D0008DF853201A0744BF2B228DF853202278D1
:1054E0002A2A16D000210A20079A27463B78013441
:1054F000303B092B50D9C9B111E0252BC0D027462C
:10550000B9E73F4A3C46801A0BFA00F01843049072
:10551000D3E7039A111D12680391002A01DB079259
:1055200004E0524243F00203079204933B782E2B8F
:105530000DD17B78791C2A2B32D1039B02371A1D9F
:105540001B680392002BB8BF4FF0FF3305932D4C1F
:1055500003223978204600F0F5F938B14023001BCA
:1055600003FA00F0049B01370343049339780622C1
:1055700025487E1C8DF8281000F0E4F9002835D06D
:10558000224BFBB9039B073323F007030833039334
:10559000099B4B4409936DE700FB02320121A4E70C
:1055A00000230A24184605930F463A780131303A11
:1055B000092A03D9002BCAD00590C8E704FB0020B4
:1055C0000123F1E703AB00932A46114B04A940469F
:1055D000AFF30080B0F1FF3F8146D9D1AB895B06C4
:1055E0003FF539AF09981DB0BDE8F08F03AB0093CC
:1055F0002A46074B04A9404600F084F8EAE700BFBA
:10560000DE640008E4640008E864000800000000AC
:10561000755300082DE9F04791461F468A680B69CB
:1056200006469342B8BF1346C9F8003091F84320AC
:105630000C46DDF8208012B10133C9F80030236830
:10564000990642BFD9F800300233C9F80030256806
:1056500015F0060507D104F1190AE368D9F800200E
:105660009B1A9D422ADB94F843302268003318BF0E
:10567000012392062FD404F1430239463046C04735
:10568000013022D02368E56803F00603042B18BF1D
:105690000025D9F800204FF0000908BFAD1AA36813
:1056A000226908BF25EAE5759342C4BF9B1AED182D
:1056B0001A344D451BD10020BDE8F0870123524626
:1056C00039463046C047013003D14FF0FF30BDE8C6
:1056D000F0870135C1E73020E11881F843005A1CFA
:1056E00094F845102244023382F84310C3E70123A3
:1056F000224639463046C0470130E6D009F101095B
:10570000D7E700002DE9F04317460A7E85B06E2AE0
:10571000984606460C460C9B01F1430E00F0BC80F7
:105720001AD8632A2ED00AD8002A00F0C880582A36
:1057300000F08A8004F1420584F842202AE0642ABD
:1057400001D0692AF6D121681A6811F0800F23D0A0
:10575000111D1960136827E0732A00F0B48008D87F
:105760006F2A2AD0702AE5D10A6842F020020A6026
:1057700003E0752A21D0782ADCD178226F4984F899
:10578000452064E01A6801F14205111D1960136893
:1057900084F842300123A3E011F0400F02F104012C
:1057A0001960D7D0B2F90030002B03DA2D225B420A
:1057B00084F8432062490A2217E02068196810F033
:1057C000800F03D0081D18600B6806E010F0400F32
:1057D00001F104001860F7D00B886F2A14BF0A2269
:1057E00008225749002084F843006568002DA56011
:1057F000C0F29C80206820F004002060002B3FD184
:10580000002D40F095807546082A0BD12368DA07F1
:1058100008D5236962689A42DEBF302305F8013C4F
:1058200005F1FF35AEEB05032361CDF800803B4663
:1058300003AA21463046FFF7EDFE013055D14FF067
:10584000FF3005B0BDE8F08381F845203C4922686F
:10585000186812F0800F00F104051D6001D0036884
:1058600002E05506FBD50388D00744BF42F0200272
:1058700022601BB9226822F0200222601022B1E7C8
:105880007546B3FBF2F002FB1033CB5C05F8013D2B
:1058900003460028F5D1B7E708681A6810F0800FB2
:1058A000496904D0101D18601368196007E010F0F2
:1058B000400F02F1040018601368F6D0198000232D
:1058C00075462361B1E71A68111D1960156800213A
:1058D0006268284600F036F808B1401B60606368D3
:1058E0002361002384F843309FE723692A46394621
:1058F0003046C0470130A2D023689B0707D500255A
:1059000004F11909E368039A9B1A9D4205DBE068DC
:10591000039B9842B8BF184693E701234A4639468D
:105920003046C04701308AD00135EBE7002BA7D1C4
:105930000B7804F1420584F8423065E70065000801
:10594000EF64000810B5C9B202449042034601D189
:10595000002010BD1C7801308C42F6D1184610BDD5
:1059600010B5431E0A44914200D110BD11F8014BFD
:1059700003F8014FF7E7000038B50546002943D08A
:1059800051F8043C0C1F002BB8BFE41800F0D4F809
:105990001E4A1368104633B9636014602846BDE898
:1059A000384000F0CAB8A3420BD92168621893426C
:1059B00001BF1A685B685218226063600460EDE7FB
:1059C00013465A680AB1A242FAD919685818A04277
:1059D0000BD120680144581882421960DED110684A
:1059E0005268014419605A60D8E702D90C232B6031
:1059F000D4E7206821188A4201BF1168526809184B
:105A0000216062605C60C9E738BD00BF24050020EA
:105A100070B5CD1C25F0030508350C2D38BF0C25BD
:105A2000002D064601DBA94203D90C233360002078
:105A300070BD00F081F8234A1468214691B9224CC8
:105A400023681BB9304600F067F8206029463046CD
:105A500000F062F8431C26D10C233046336000F07E
:105A60006CF8E4E70B685B1B1AD40B2B0FD90B60A7
:105A7000CC18CD50304600F060F804F10B00231D27
:105A800020F00700C31A1BD05A42E25070BD8C426E
:105A90000BBF63684B681360636018BF0C46E9E78F
:105AA0000C464968CAE7C41C24F00304A04205D090
:105AB000211A304600F030F80130CDD02560D9E70A
:105AC00070BD00BF2405002028050020F8B507465A
:105AD00014460E4621B91146BDE8F840FFF798BFBD
