:020000040800F2
:1000000000500020255700083556000837560008D4
:10001000395600083B5600083D5600080000000015
:100020000000000000000000000000003F56000833
:1000300041560008000000004356000845560008DD
:100040006D5700086D5700086D5700086D57000880
:100050006D5700086D5700086D5700086D57000870
:100060006D5700086D5700086D5700086D57000860
:100070006D5700086D5700086D5700086D57000850
:100080006D5700086D5700086D5700086D57000840
:100090006D5700086D5700086D5700086D57000830
:1000A0006D570008254500086D5700086D5700087A
:1000B0006D5700086D570008495600086D57000835
:1000C0006D5700086D5700086D5700086D57000800
:1000D0006D5700086D5700086D5700086D570008F0
:1000E0006D5700086D5700086D57000800000000AC
:1000F0000000000000000000000000000000000000
:0C01000000000000000000005FF808F1A3
:1001100010B5054C237833B9044B13B10448AFF341
:1001200000800123237010BD880000200000000023
:100130007867000808B5034B1BB103490348AFF3C8
:10014000008008BD000000008C00002078670008D7
:1001500081F0004102E000BF83F0004330B54FEA78
:1001600041044FEA430594EA050F08BF90EA020FE5
:100170001FBF54EA000C55EA020C7FEA645C7FEA78
:10018000655C00F0E2804FEA5454D4EB5555B8BF9B
:100190006D420CDD2C4480EA020281EA030382EA0C
:1001A000000083EA010180EA020281EA0303362D9E
:1001B00088BF30BD11F0004F4FEA01314FF4801C71
:1001C0004CEA113102D0404261EB410113F0004F83
:1001D0004FEA03334CEA133302D0524263EB43033A
:1001E00094EA050F00F0A780A4F10104D5F1200ED8
:1001F0000DDB02FA0EFC22FA05F2801841F1000133
:1002000003FA0EF2801843FA05F359410EE0A5F106
:1002100020050EF1200E012A03FA0EFC28BF4CF037
:10022000020C43FA05F3C01851EBE37101F00045ED
:1002300007D54FF0000EDCF1000C7EEB00006EEBFA
:100240000101B1F5801F1BD3B1F5001F0CD3490884
:100250005FEA30004FEA3C0C04F101044FEA4452DB
:1002600012F5800F80F09A80BCF1004F08BF5FEA62
:10027000500C50F1000041EB045141EA050130BD42
:100280005FEA4C0C404141EB010111F4801FA4F1E5
:100290000104E9D191F0000F04BF01460020B1FA3A
:1002A00081F308BF2033A3F10B03B3F120020CDA72
:1002B0000C3208DD02F1140CC2F10C0201FA0CF050
:1002C00021FA02F10CE002F11402D8BFC2F1200CB5
:1002D00001FA02F120FA0CFCDCBF41EA0C0190406B
:1002E000E41AA2BF01EB0451294330BD6FEA0404B4
:1002F0001F3C1CDA0C340EDC04F11404C4F120029F
:1003000020FA04F001FA02F340EA030021FA04F3B0
:1003100045EA030130BDC4F10C04C4F1200220FA07
:1003200002F001FA04F340EA0300294630BD21FA45
:1003300004F0294630BD94F0000F83F4801306BF0B
:1003400081F480110134013D4EE77FEA645C18BFFF
:100350007FEA655C29D094EA050F08BF90EA020F96
:1003600005D054EA000C04BF1946104630BD91EA8E
:10037000030F1EBF0021002030BD5FEA545C05D191
:100380004000494128BF41F0004130BD14F58004D0
:100390003CBF01F5801130BD01F0004545F0FE4144
:1003A00041F470014FF0000030BD7FEA645C1ABF79
:1003B000194610467FEA655C1CBF0B46024650EAB0
:1003C000013406BF52EA033591EA030F41F40021DC
:1003D00030BD00BF90F0000F04BF0021704730B562
:1003E0004FF4806404F132044FF000054FF0000137
:1003F00050E700BF90F0000F04BF0021704730B5F8
:100400004FF4806404F1320410F0004548BF4042CC
:100410004FF000013EE700BF42004FEAE2014FEA21
:1004200031014FEA02701FBF12F07F4393F07F4FFC
:1004300081F06051704792F0000F14BF93F07F4F2E
:10044000704730B54FF4607401F0004521F0004171
:1004500020E700BF50EA010208BF704730B54FF0F7
:1004600000050AE050EA010208BF704730B511F0FC
:10047000004502D5404261EB41014FF4806404F134
:1004800032045FEA915C3FF4DCAE4FF003025FEAB6
:10049000DC0C18BF03325FEADC0C18BF033202EB3E
:1004A000DC02C2F1200300FA03FC20FA02F001FA98
:1004B00003FE40EA0E0021FA02F11444C1E600BF37
:1004C00070B54FF0FF0C4CF4E06C1CEA11541DBFEA
:1004D0001CEA135594EA0C0F95EA0C0F00F0DEF8B5
:1004E0002C4481EA030621EA4C5123EA4C5350EA9A
:1004F000013518BF52EA033541F4801143F48013EB
:1005000038D0A0FB02CE4FF00005E1FB02E506F07B
:100510000042E0FB03E54FF00006E1FB03569CF0D0
:10052000000F18BF4EF0010EA4F1FF04B6F5007FD6
:1005300064F5407404D25FEA4E0E6D4146EB060648
:1005400042EAC62141EA55514FEAC52040EA5E50D1
:100550004FEACE2EB4F1FD0C88BFBCF5E06F1ED87B
:10056000BEF1004F08BF5FEA500E50F1000041EBB2
:10057000045170BD06F0004646EA010140EA02005F
:1005800081EA0301B4EB5C04C2BFD4EB0C0541EA81
:10059000045170BD41F480114FF0000E013C00F396
:1005A000AB8014F1360FDEBF002001F0004170BDBA
:1005B000C4F10004203C35DA0C341BDC04F11404D3
:1005C000C4F1200500FA05F320FA04F001FA05F25F
:1005D00040EA020001F0004221F0004110EBD3702C
:1005E00021FA04F642EB06015EEA430E08BF20EA58
:1005F000D37070BDC4F10C04C4F1200500FA04F3FB
:1006000020FA05F001FA04F240EA020001F000418C
:1006100010EBD37041F100015EEA430E08BF20EAFF
:10062000D37070BDC4F1200500FA05F24EEA020E47
:1006300020FA04F301FA05F243EA020321FA04F076
:1006400001F0004121FA04F220EA020000EBD3702D
:100650005EEA430E08BF20EAD37070BD94F0000F2D
:100660000FD101F00046400041EB010111F4801F61
:1006700008BF013CF7D041EA060195F0000F18BF12
:10068000704703F00046520043EB030313F4801F4E
:1006900008BF013DF7D043EA0603704794EA0C0F08
:1006A0000CEA135518BF95EA0C0F0CD050EA41061E
:1006B00018BF52EA4306D1D181EA030101F000419B
:1006C0004FF0000070BD50EA410606BF10461946C3
:1006D00052EA430619D094EA0C0F02D150EA0136CF
:1006E00013D195EA0C0F05D152EA03361CBF104610
:1006F00019460AD181EA030101F0004141F0FE41AF
:1007000041F470014FF0000070BD41F0FE4141F432
:10071000780170BD70B54FF0FF0C4CF4E06C1CEA32
:1007200011541DBF1CEA135594EA0C0F95EA0C0FE7
:1007300000F0A7F8A4EB050481EA030E52EA0335A2
:100740004FEA013100F088804FEA03334FF08055C3
:1007500045EA131343EA12634FEA022245EA1115F0
:1007600045EA10654FEA00260EF000419D4208BFA1
:10077000964244F1FD0404F5407402D25B084FEA4E
:100780003202B61A65EB03055B084FEA32024FF4FA
:1007900080104FF4002CB6EB020E75EB030E22BF57
:1007A000B61A754640EA0C005B084FEA3202B6EB17
:1007B000020E75EB030E22BFB61A754640EA5C00C6
:1007C0005B084FEA3202B6EB020E75EB030E22BF56
:1007D000B61A754640EA9C005B084FEA3202B6EB57
:1007E000020E75EB030E22BFB61A754640EADC0016
:1007F00055EA060E18D04FEA051545EA16754FEA78
:1008000006164FEAC30343EA52734FEAC2025FEA95
:100810001C1CC0D111F4801F0BD141EA00014FF024
:1008200000004FF0004CB6E711F4801F04BF0143F5
:100830000020B4F1FD0C88BFBCF5E06F3FF6AFAE11
:10084000B5EB030C04BFB6EB020C5FEA500C50F1A1
:10085000000041EB045170BD0EF0004E4EEA113124
:1008600014EB5C04C2BFD4EB0C0541EA045170BD2B
:1008700041F480114FF0000E013C90E645EA060E6F
:100880008DE60CEA135594EA0C0F08BF95EA0C0F9D
:100890003FF43BAF94EA0C0F0AD150EA01347FF4E5
:1008A00034AF95EA0C0F7FF425AF104619462CE7BC
:1008B00095EA0C0F06D152EA03353FF4FDAE10461F
:1008C000194622E750EA410618BF52EA43067FF470
:1008D000C5AE50EA41047FF40DAF52EA43057FF400
:1008E000EBAE12E74FF0FF3C06E000BF4FF0010C0B
:1008F00002E000BF4FF0010C4DF804CD4FEA410C6F
:100900007FEA6C5C4FEA430C18BF7FEA6C5C1BD03B
:1009100001B050EA410C0CBF52EA430C91EA030FBC
:1009200002BF90EA020F0020704710F1000F91EA19
:10093000030F58BF994208BF90422CBFD8176FEAE7
:10094000E37040F0010070474FEA410C7FEA6C5CB5
:1009500002D150EA013C07D14FEA430C7FEA6C5CBC
:10096000D6D152EA033CD3D05DF8040B704700BFE8
:100970008446104662468C461946634600E000BF36
:1009800001B5FFF7B7FF002848BF10F1000F01BD08
:100990004DF808EDFFF7F4FF0CBF012000205DF8D3
:1009A00008FB00BF4DF808EDFFF7EAFF34BF012058
:1009B00000205DF808FB00BF4DF808EDFFF7E0FFF1
:1009C00094BF012000205DF808FB00BF4DF808ED42
:1009D000FFF7CEFF94BF012000205DF808FB00BFA9
:1009E0004DF808EDFFF7C4FF34BF012000205DF88B
:1009F00008FB00BF4FEA410212F5001215D211D5D3
:100A00006FF47873B3EB625212D94FEAC12343F00B
:100A1000004343EA505311F0004F23FA02F018BF8D
:100A2000404270474FF00000704750EA013005D156
:100A300011F0004008BF6FF0004070474FF0000019
:100A4000704700BF80F0004002E000BF81F000412D
:100A500042001FBF5FEA410392EA030F7FEA226C64
:100A60007FEA236C6AD04FEA1262D2EB1363C1BFF4
:100A7000D218414048404140B8BF5B42192B88BF63
:100A8000704710F0004F40F4000020F07F4018BF86
:100A9000404211F0004F41F4000121F07F4118BFA6
:100AA000494292EA030F3FD0A2F1010241FA03FC4E
:100AB00010EB0C00C3F1200301FA03F100F0004336
:100AC00002D5494260EB4000B0F5000F13D3B0F1FE
:100AD000807F06D340084FEA310102F10102FE2A6D
:100AE00051D2B1F1004F40EBC25008BF20F00100DD
:100AF00040EA03007047490040EB000010F4000F8B
:100B0000A2F10102EDD1B0FA80FCACF1080CB2EB1D
:100B10000C0200FA0CF0AABF00EBC250524218437C
:100B2000BCBFD0401843704792F0000F81F4000121
:100B300006BF80F400000132013BB5E74FEA4103F4
:100B40007FEA226C18BF7FEA236C21D092EA030F60
:100B500004D092F0000F08BF0846704790EA010FDA
:100B60001CBF0020704712F07F4F04D1400028BF07
:100B700040F00040704712F100723CBF00F50000E9
:100B8000704700F0004343F0FE4040F4000070471F
:100B90007FEA226216BF08467FEA236301464202CB
:100BA00006BF5FEA412390EA010F40F480007047DE
:100BB0004FF0000304E000BF10F0004348BF404284
:100BC0005FEA000C08BF704743F0964301464FF0C0
:100BD00000001CE050EA010208BF70474FF000031C
:100BE0000AE000BF50EA010208BF704711F000435D
:100BF00002D5404261EB41015FEA010C02BF84462D
:100C00000146002043F0B64308BFA3F18053A3F58B
:100C10000003BCFA8CF2083AA3EBC25310DB01FAD2
:100C200002FC634400FA02FCC2F12002BCF1004F56
:100C300020FA02F243EB020008BF20F001007047E7
:100C400002F1200201FA02FCC2F1200250EA4C003B
:100C500021FA02F243EB020008BF20EADC70704781
:100C60004FF0FF0C1CEAD0521EBF1CEAD15392EA8F
:100C70000C0F93EA0C0F6FD01A4480EA010C40026B
:100C800018BF5FEA41211ED04FF0006343EA5010C5
:100C900043EA5111A0FB01310CF00040B1F5000F07
:100CA0003EBF490041EAD3715B0040EA010062F1B6
:100CB0007F02FD2A1DD8B3F1004F40EBC25008BFA0
:100CC00020F00100704790F0000F0CF0004C08BFBE
:100CD00049024CEA502040EA51207F3AC2BFD2F18B
:100CE000FF0340EAC250704740F400004FF0000399
:100CF000013A5DDC12F1190FDCBF00F000407047D3
:100D0000C2F10002410021FA02F1C2F1200200FA10
:100D100002FC5FEA310040F1000053EA4C0308BFD7
:100D200020EADC70704792F0000F00F0004C02BF28
:100D3000400010F4000F013AF9D040EA0C0093F0A3
:100D4000000F01F0004C02BF490011F4000F013BFD
:100D5000F9D041EA0C018FE70CEAD15392EA0C0F6B
:100D600018BF93EA0C0F0AD030F0004C18BF31F0D6
:100D7000004CD8D180EA010000F00040704790F0AC
:100D8000000F17BF90F0004F084691F0000F91F050
:100D9000004F14D092EA0C0F01D142020FD193EA16
:100DA0000C0F03D14B0218BF084608D180EA01009E
:100DB00000F0004040F0FE4040F40000704740F07A
:100DC000FE4040F4400070474FF0FF0C1CEAD05248
:100DD0001EBF1CEAD15392EA0C0F93EA0C0F69D0A4
:100DE000A2EB030280EA010C49024FEA402037D00F
:100DF0004FF0805343EA111143EA10130CF0004006
:100E00008B4238BF5B0042F17D024FF4000C8B42F5
:100E100024BF5B1A40EA0C00B3EB510F24BFA3EBD5
:100E2000510340EA5C00B3EB910F24BFA3EB9103A5
:100E300040EA9C00B3EBD10F24BFA3EBD10340EAFF
:100E4000DC001B0118BF5FEA1C1CE0D1FD2A3FF645
:100E500050AF8B4240EBC25008BF20F001007047FA
:100E60000CF0004C4CEA50207F32C2BFD2F1FF039D
:100E700040EAC250704740F400004FF00003013ACE
:100E800037E792F0000F00F0004C02BF400010F472
:100E9000000F013AF9D040EA0C0093F0000F01F086
:100EA000004C02BF490011F4000F013BF9D041EAA8
:100EB0000C0195E70CEAD15392EA0C0F08D14202DB
:100EC0007FF47DAF93EA0C0F7FF470AF084676E7AE
:100ED00093EA0C0F04D14B023FF44CAF08466EE787
:100EE00030F0004C18BF31F0004CCAD130F0004255
:100EF0007FF45CAF31F000437FF43CAF5FE700BFAD
:100F00004FEA4002B2F1FE4F0FD34FF09E03B3EB16
:100F100012620DD94FEA002343F0004310F0004F56
:100F200023FA02F018BF404270474FF000007047AC
:100F300012F1610F01D1420205D110F0004008BF4B
:100F40006FF0004070474FF00000704738B50E4B0F
:100F5000054618784FF47A73B3FBF0F30B4A106828
:100F6000B0FBF3F000F0ACF8044658B90F2D09D8E7
:100F7000024629464FF0FF3000F054F8044B20465B
:100F80001D6038BD012038BD000000202000002079
:100F900004000020074A08B51368032043F010033B
:100FA000136000F02DF80020FFF7D0FF04F03EFAA8
:100FB000002008BD00200240034A044B11681B7842
:100FC0000B441360704700BF38050020000000206C
:100FD000014B1868704700BF3805002038B504463B
:100FE000FFF7F6FF0546631C1EBF044B1B78E41891
:100FF000FFF7EEFF401B8442FAD838BD0000002006
:10100000074A0002D36800F4E06023F4E0631B04A5
:101010001B0C43F0BF6343F400330343D3607047BA
:1010200000ED00E0174B30B5DC68C4F30224C4F1D6
:101030000703251D042B28BF0423062D4FF00105AF
:1010400098BF002405FA03F303F1FF3388BF033C84
:101050001940A14005FA04F4013C2240002842EA6C
:1010600001024FEA0212AFBF00F16040064B00F0F0
:101070000F00D2B2A5BFD2B200F561401A5480F879
:10108000002330BD00ED00E014ED00E00123420933
:1010900000F01F0003FA00F0014B43F822007047F4
:1010A00000E100E00122430900F01F0002FA00F015
:1010B000024A203342F82300704700BF00E100E0FD
:1010C0000138B0F1807F0AD2F021064B064A586001
:1010D00082F823100020072298601A6070470120D0
:1010E000704700BF10E000E000ED00E02DE9F74F91
:1010F00000221646654BDFF8A4E1DFF8A4C14FF0EB
:1011000001080C6808FA06F808EA0404A0457FD133
:101110004D68122D00F0AF8000F28880022D00F0A3
:10112000A7807CD8002D00F08E80012D00F09E80DD
:101130004FF00F09FF2C93BF824606F18045083D12
:10114000D0F800B092BFB500D0F804B0AD0009FAF5
:1011500005F82BEA080802FA05F588BF00F1040A31
:1011600048EA0505CAF80050D1F804A01AF0805FDB
:101170004ED0474D464FAD6926F0030845F00105B6
:10118000BD61BD6908F1804805F00105019508F5CC
:10119000803806F0030B019D4FEA8B0BD8F80850FE
:1011A00009FA0BF925EA09093A4DA84268D005F574
:1011B0008065A84266D005F58065A84264D005F533
:1011C0008065A8420CBF0325042505FA0BF545EA06
:1011D0000905C8F808501D681AF4803F14BF25435C
:1011E000A5431D605D681AF4003F14BF2543A54365
:1011F0005D609D681AF4801F14BF2543A5439D6060
:10120000DD681AF4001F14BF2C4325EA0404DC60D7
:101210000136102E7FF473AF03B0BDE8F08F032DBD
:1012200022D0112D84D1CA68043281E71A4FBD4201
:1012300009D012D8DFF86C904D4504D009F58039FB
:101240004D457FF475AF8A68C2B1012A0CBFC0F862
:101250001080C0F8148008226AE77545F3D0654510
:10126000F1D0DFF84490EBE7002261E7CA685FE75E
:10127000CA6808325CE7CA680C3259E7042257E7AB
:101280000025A2E70125A0E702259EE70004014012
:101290000010024000080140000021100000311041
:1012A0000000321000001110000022108368194263
:1012B00014BF0120002070470268536913F4806353
:1012C0000DD06FF480635361042320220364002354
:1012D000036380F83C3080F83D20012070471846B9
:1012E00070472DE9F843044617469946C1F307486D
:1012F0008EB22568B8F1010F0CBF6B69AB6936EA95
:10130000030314BF0120002008B9BDE8F8836B690E
:101310005A0512D52B68202243F400732B606FF41A
:1013200080636B610423236400230120236384F81A
:101330003C3084F83D20BDE8F8837B1CD9D04FB900
:1013400000232022236384F83C3084F83D200320CE
:10135000BDE8F883FFF73CFEA0EB09008742C8D246
:10136000EEE72DE9F843044690461F46089EC1F378
:1013700007498DB22368B9F1010F0CBF5B699B6906
:1013800035EA03030CBF01230023434502D00020AC
:10139000BDE8F8837B1CEDD05FB9002320222363D6
:1013A00084F83C3084F83D20032084F83E30BDE8CA
:1013B000F883FFF70DFE801B8742DBD2EDE770B5A7
:1013C00004460D46164623685B691B0601D50020BE
:1013D00070BD2046FFF770FFA8B96A1CF3D065B94D
:1013E000236C202243F02003236400230320236383
:1013F00084F83C3084F83D2070BDFFF7E9FD801B88
:101400008542E0D2ECE7012070BD00002DE9FF41EC
:1014100015460268984613680B9E43F48073136068
:101420000F4600960A9B00224FF001110446FFF779
:1014300098FF68B9236807F0FE071F610A9A3346D0
:101440001A492046FFF74DFF30B1236C042B18D00A
:10145000032004B0BDE8F081236803905A690A991B
:1014600003929B69324603932046039BFFF7A7FF35
:1014700048B1236C042BEBD12268136843F400734A
:1014800013600120E5E7B8F1010F236802D1EDB246
:101490001D61DEE72A0A1A610A9932462046FFF7E3
:1014A0008EFF0028E5D12368F1E700BF02000100AC
:1014B0002DE9FF419846036816461A680B9D42F4D1
:1014C00080621A601A680F4642F480721A604FF008
:1014D000011100950A9B00220446FFF742FF80B9E4
:1014E0002368FFB207F0FE021A612D492B460A9AC3
:1014F0002046FFF7F6FE40B1236C042B01D10120FA
:1015000000E0032004B0BDE8F081236803905A692D
:101510000A9903929B692A4603932046039BFFF78F
:101520004EFF40B1236C042BEBD12268136843F4C7
:1015300000731360E3E7B8F1010F236824D1F6B21A
:101540001E612A460A992046FFF739FF0246002805
:10155000E8D1216820460B6843F480730B60009546
:101560000A9B4FF00111FFF7FCFE0028C9D1236848
:1015700047F001071F610A9A2B4609492046FFF7E9
:10158000B0FE0028B8D1BDE7320A1A610A992A468E
:101590002046FFF714FF0028C4D12368CFE700BF1F
:1015A0000200010070B504460D46164620684369E6
:1015B00013F0400301D0002070BD4269D2060BD564
:1015C0006FF0100242612022236484F83C302363D0
:1015D000012084F83D2070BD5DB9236C032043F0E9
:1015E00020032364202384F83D30002384F83C301A
:1015F00070BDFFF7EDFC801B8542D7D2EDE770B5DB
:1016000004460D46164623685B695B0701D500203A
:1016100070BD2046FFF750FEA8B96A1CF3D065B92B
:10162000236C202243F02003236400230320236340
:1016300084F83C3084F83D2070BDFFF7C9FC801B66
:101640008542E0D2ECE7012070BD000038B50446C9
:1016500008B9012038BD90F83D3003F0FF021BB9F6
:1016600080F83C2003F04AFF2423226884F83D30B0
:10167000136823F00103136000F0A6FF63682F4A8C
:10168000934230D82E4A9042E3D92E4A2168B0FBCB
:10169000F2F24A6001320A62284A0138934232D893
:1016A0005B00B0FBF3F0431CC3F30B03042B38BF08
:1016B0000423CB61226AE369002013430B60E268D4
:1016C000236913438B60A26963691343CB600B6882
:1016D00043F001030B602023206484F83D30206335
:1016E00084F83E0038BD184A9042B2D9154D4FF4E7
:1016F0009672B0FBF5F521686A434D604FF47A7538
:10170000B2FBF5F2C6E7A26852B903EB4303B0FBA4
:10171000F3F0431CC3F30B036BB143F40043C8E77E
:1017200019225343B0FBF3F0431CC3F30B0313B173
:1017300043F44043BDE70123BBE700BFA08601009F
:101740007F841E0040420F00FF083D002DE9FF414D
:1017500004461F460D469046FFF73AFC94F83D308C
:101760000646202B04D00225284604B0BDE8F081AF
:101770000090192301225D492046FFF7F2FD002861
:10178000F1D194F83C30012BEDD0012384F83C30AA
:1017900023681A68D2075EBF1A6842F001021A6015
:1017A0001A6822F400621A60212284F83D20102277
:1017B00084F83E2000222264A2F580326785E2622E
:1017C000628DC4F824802285E26A042A04D0012AAA
:1017D00002D012F5803F04D11A6842F480721A6078
:1017E00002E0226B122AF7D000960A9B00224FF0EB
:1017F00001112046FFF7B5FD28BB23692268B3F528
:10180000804F12D105F0FE05156133460A9A38491A
:101810002046FFF766FD0546A0B9236803905A6984
:1018200003929B690393039B50E0EB1103F00603C3
:1018300043F0F00313612F4933460A9A2046FFF71D
:1018400050FD48B1236C236C042B4FF0000307D1EB
:1018500084F83C30012587E72368EDB21D61D4E7A9
:1018600084F83C3003257FE732460A992046FFF78B
:10187000A6FD40B1236C042BF4D12268136843F415
:1018800000731360E6E7616A20684B1C63620B78A3
:10189000228D0361638D013B9BB263854769531EB3
:1018A0009BB27F0723850AD54BB18B1C63624B78B3
:1018B000023A0361638D2285013B9BB26385324608
:1018C0000A992046FFF79BFE0028D3D1238D002BD9
:1018D000CAD121680A6842F400720A60202284F8A2
:1018E0003C3084F83D2084F83E303DE70200100093
:1018F00002000100080001002DE9F043044689B010
:1019000098460D469146109FFFF762FB94F83D30D4
:101910000646202B04D00225284609B0BDE8F083F6
:10192000009019230122A2492046FFF71AFD002842
:10193000F1D194F83C30012BEDD0012384F83C30F8
:1019400023681A68D2075EBF1A6842F001021A6063
:101950001A6822F400621A60222284F83D201022C4
:1019600084F83E2000222264A2F58032A4F82A8066
:10197000E262628DC4F824902285E26A1968042A22
:1019800041F48061196004D0012A02D012F5803F31
:1019900004D11A6842F480721A6002E0226B112AA4
:1019A000F7D000963B4600224FF001112046FFF78A
:1019B000D8FC00284DD12369B3F5804F236839D175
:1019C00045F00105EDB21D6133463A46794920469E
:1019D000FFF787FC054600283AD1228D2368002AAC
:1019E00069D0012A7AD11A6822F480621A6072B62C
:1019F000236804955A6904929A690492049A1A68B1
:101A000042F400721A6062B6DFF8B081238D002BB9
:101A10005BD0032B00F2D480012B7BD132463946B8
:101A20002046FFF7BFFD002800F09380236C202B99
:101A300016D13EE04FEAE51808F0060848F0F0023B
:101A40001A615D4933463A462046FFF74AFC48B1E1
:101A5000236C236C042B4FF0000328D184F83C3016
:101A6000012559E72368EDB21D613A4633465149D5
:101A70002046FFF736FC02460028E9D1236807908C
:101A8000596920460791996907910799196841F4A6
:101A90008071196000963B464FF00111FFF761FC21
:101AA0000028D6D1226848F0F10313618CE784F84E
:101AB0003C30032530E703955A6903929A690392F3
:101AC000039A1A6842F400721A60202384F83D30A9
:101AD000002384F83E3084F83C301DE7022A1A685F
:101AE0000ED142F400621A6072B6236805955A69F5
:101AF00005929A690592059A1A6822F4806281E734
:101B000042F480621A6006955A6906929B690693B0
:101B1000069B79E7022B00963B464FF000024146B8
:101B2000204624D1FFF71DFC0028C2D172B62368DD
:101B30001A6842F400721A60626A1B69511C616281
:101B40001370238D013B2385638D013B9BB263851D
:101B500062B6636A5A1C6262226812691A70238D27
:101B6000013B2385638D013B9BB263854EE7FFF705
:101B7000F8FB024600289CD121680B6823F480639F
:101B80000B6072B6636A2046591C6162216809695C
:101B90001970238D0096013B2385638D4146013BDF
:101BA0009BB263853B46FFF7DCFB0028BFD080E794
:101BB0000200100002000100080001000400010002
:101BC000324639462046FFF7EDFC00287FF42EAF61
:101BD000636A5A1C6262226812691A70238D226835
:101BE000013B2385638D013B9BB2638553695B0792
:101BF0007FF50CAF636A591C6162AEE72DE9F347CC
:101C000004469A46884691460C9EFFF7E1F994F8FF
:101C10003D300546202B03D0022002B0BDE8F087FE
:101C20000090192301223E492046FFF79AFB002825
:101C3000F2D194F83C30012BEED0012384F83C30F3
:101C4000236800271A684146D20758BF1A68204601
:101C50005CBF42F001021A601A6822F400621A6046
:101C6000212384F83D30402384F83E300A9B2764CA
:101C70006362BDF82C30019563852A4B0096E362C0
:101C8000638D4A4623855346FFF7C0FB00282AD0C0
:101C9000236C84F83C70042B07D10120BDE7FFF7CB
:101CA0008EFB20B1236C042B34D00320B5E7616A8E
:101CB00027684B1C63620B78228D3B61638D501E3D
:101CC000013B9BB263857B6980B25B0720850AD5A7
:101CD00048B18B1C63624B78023A3B61638D22856D
:101CE000013B9BB26385238D2A4631462046002B5B
:101CF000D5D1FFF784FC0028D4D12268136843F4BF
:101D000000731360202384F83C0084F83D3084F88D
:101D10003E0082E72268136843F400731360BCE757
:101D2000020010000000FFFF2DE9F047044686B0D6
:101D30009A460D469146109FFFF74AF994F83D30B8
:101D40000646202B04D00225284606B0BDE8F087C1
:101D500000901923012281492046FFF702FB002849
:101D6000F1D194F83C30012BEDD0012384F83C30C4
:101D700023684FF000081A682946D20758BF1A682E
:101D800020465CBF42F001021A601A6822F4006229
:101D90001A60222384F83D30402384F83E300E9BA5
:101DA000C4F840806362BDF83C30019663856C4B9B
:101DB0000097E362638D4A4623855346FFF778FB1D
:101DC000054630B1236C84F83C80042B3DD10125BD
:101DD000BAE7228D236892B902905A6902929A69F1
:101DE0000292029A1A6842F400721A60202384F860
:101DF0003D30002384F83E3084F83C30A4E7012ACB
:101E000025D11A6822F480621A6072B623680390A2
:101E10005A6903929A690392039A1A6842F400720B
:101E20001A6062B6DFF83C81238D002BDED0032BD5
:101E300077D8012B27D1324639462046FFF7B2FB2F
:101E400000283FD0236C202BC1D103257CE7022A38
:101E50001A680ED142F400621A6072B623680490C8
:101E60005A6904929A690492049A1A6822F4806268
:101E7000D6E742F480621A6005905A6905929B6920
:101E80000593059BCEE7022B00963B464FF00002E0
:101E90004146204624D1FFF764FA0028D5D172B616
:101EA00023681A6842F400721A60626A1B69511C46
:101EB00061621370238D013B2385638D013B9BB2CF
:101EC000638562B6636A5A1C6262226812691A707C
:101ED000238D013B2385638D013B9BB26385A3E783
:101EE000FFF73FFA02460028AFD121680B6823F4C0
:101EF00080630B6072B6636A2046591C6162216878
:101F000009691970238D0096013B2385638D414635
:101F1000013B9BB263853B46FFF723FA0028BFD005
:101F200093E7324639462046FFF73CFB002889D12B
:101F3000636A5A1C6262226812691A70238D2268D1
:101F4000013B2385638D013B9BB2638553695B072E
:101F50007FF56AAF636A591C6162B7E7020010003F
:101F60000000FFFF040001002DE9F04F044685B09A
:101F7000984689469246FFF72BF894F83D3006467E
:101F8000202B03D0022005B0BDE8F08F009019236C
:101F900001224B492046FFF7E4F90028F2D194F8DA
:101FA0003C30012BEED0012384F83C30236800251F
:101FB0001A68DFF80CB1D20758BF1A6809F0FE0999
:101FC0005CBF42F001021A601A6822F400621A60D3
:101FD000242384F83D303B4B2564E36222684FF0B4
:101FE00001111368204643F4807313600096434642
:101FF0000022FFF7B6F908B10320C4E72368A02741
:10200000C3F81090FEF7E4FF0646236859695A6941
:1020100094F83D30C1F34001C2F38022DBB211B924
:102020000AB9A02B20D12027236884F83D705A6973
:1020300012F0020F1A6842F400721A602AD00022CD
:1020400003925A691E4903929B6901220393039BE1
:10205000009619232046FFF784F90028CCD184F894
:102060003D7084F83C008EE7B8F1000F0CD184F885
:102070003D70236859695A6994F83D30C1F34001B5
:10208000C2F38022DBB2CAE7FEF7A2FF801B8045C5
:10209000EDD3EEE76FF4806259465A612046009610
:1020A00019230122FFF75DF90028A5D10135AA45C2
:1020B00094D884F83C0084F83D70012063E700BFA9
:1020C000020010000000FFFF90F83D007047006C18
:1020D0007047000003682DE9F341DB07054610D483
:1020E0002B689F075ED42B68190700F195802B6839
:1020F0005A0700F1BF80EA69002A40F02D810020D4
:1021000014E0904C636803F00C03042B07D0636861
:1021100003F00C03082B0CD16368DE0309D5236898
:102120009C03DDD56B68002BDAD1012002B0BDE83D
:10213000F0816B68B3F5803F10D1236843F480339E
:102140002360FEF745FF064623689803C8D4FEF7D0
:102150003FFF801B6428F7D90320E7E79BB923687A
:1021600023F480332360236823F480232360FEF765
:102170002FFF064623689903B2D5FEF729FF801B7F
:102180006428F7D9E8E7B3F5A02F236803D143F417
:1021900080232360D1E723F480332360236823F472
:1021A0008023CDE7674C636813F00C0F07D063689A
:1021B00003F00C03082B10D16368DA030DD42368F5
:1021C0009B0702D52B69012BAFD123686A6923F0E5
:1021D000F80343EAC203236085E72A695A4B6AB1D0
:1021E00001221A60FEF7F4FE064623689F07ECD42E
:1021F000FEF7EEFE801B0228F7D9ADE71A60FEF766
:10220000E7FE0646236898077FF56DAFFEF7E0FE10
:10221000801B0228F6D99FE7AA694A4C4B4BDAB1DA
:1022200001221A60FEF7D4FE0646636A9B070DD5AD
:102230004FF4FA52464B1B68B3FBF2F3019300BF15
:10224000019B5A1E0192002BF9D150E7FEF7C0FE08
:10225000801B0228E9D97FE71A60FEF7B9FE06461F
:10226000636A9F077FF543AFFEF7B2FE801B02282B
:10227000F6D971E7334CE369D80024D40127E36928
:1022800043F08053E361E36903F080530093009BC4
:10229000304E3368D90518D5EB68012B26D1236A57
:1022A00043F001032362FEF793FE41F28836804635
:1022B000236A9B073FD5002F3FF41DAFE36923F04E
:1022C0008053E36117E70027E2E7336843F4807344
:1022D0003360FEF77DFE80463368DA05DCD4FEF716
:1022E00077FEA0EB08006428F6D935E7ABB9236A7E
:1022F00041F2883823F001032362236A23F00403A8
:102300002362FEF765FE0646236A9807D3D5FEF7DB
:102310005FFE801B4045F7D91EE7052B236A03D1DA
:1023200043F004032362BAE723F001032362236A24
:1023300023F00403B6E7FEF74BFEA0EB0800B04223
:10234000B6D909E700100240000042428004424230
:102350002000002000700040224C636803F00C0352
:10236000082B3FF4E2AE00231F4E022A33602BD12C
:10237000FEF72EFE0746236899011FD42B6AB3F59A
:10238000803F05D16268A96822F400320A43626086
:10239000696A62680B4322F4741213436360012379
:1023A0003360FEF715FE054623689A013FF5A7AE98
:1023B000FEF70EFE401B0228F6D9CDE6FEF708FE1A
:1023C000C01B0228D7D9C7E6FEF702FE05462368E0
:1023D0009B017FF594AEFEF7FBFD401B0228F6D96A
:1023E000BAE600BF001002406000424230B5194B0F
:1023F00087B002AC03F1100522461868596808330B
:1024000003C2AB421446F7D101238DF804300223F6
:1024100011498DF805304B6803F00C02082A17D1DA
:10242000C3F3834206A80244DB0312F8102C0CD538
:102430004B680A48C3F34043504306AA134413F8B9
:10244000143CB0FBF3F007B030BD05485043FAE749
:102450000248F8E7906700080010024000127A0076
:1024600000093D00544A2DE9F0411368054603F088
:1024700007038B420E462AD329688C0734D4CA0737
:1024800047D44D4A136803F007039E42C0F0828090
:102490002A684A4C12F0040F40F08780130706D5D3
:1024A00063682A6923F4605343EAC2036360FFF759
:1024B0009DFF6368424AC3F30313D35CD840414B8A
:1024C00018600020FEF742FD0020BDE8F08113688F
:1024D00023F007030B431360136803F007039942CB
:1024E000CAD00120BDE8F081344B11F0040F1EBFAB
:1024F0005A6842F4E0625A60080742BF5A6842F4E0
:1025000060525A605A68A86822F0F00202435A608A
:10251000B5E76A68294C012A23681CD113F4003FEF
:10252000DFD0636841F2883823F00303134363600C
:10253000FEF74EFD6B680746012B14D1636803F06C
:102540000C03042B9DD0FEF743FDC01B4045F5D97D
:102550000320BDE8F081022A02D113F0007FDFE7FB
:1025600013F0020FDCE7022B0FD1636803F00C03BA
:10257000082B86D0FEF72CFDC01B4045F5D9E7E7B8
:10258000FEF726FDC01B4045E2D8636813F00C0F30
:10259000F6D176E7136823F007033343136013681B
:1025A00003F007039E429CD172E76368E96823F455
:1025B000E0630B43636071E70020024000100240BB
:1025C0006071000820000020044B054A5B68C3F3DB
:1025D0000223D35C034A1068D840704700100240C1
:1025E0007071000820000020036A70B523F0010319
:1025F0000362036A446882690D6822F073022A4309
:102600008D6823F002032B430A4DA8420BD1CD68FD
:1026100023F008032B438E694D6924F4407435433D
:1026200023F004032C43446082614A6842630362DE
:1026300070BD00BF002C0140036A70B523F48073A5
:102640000362036A4468C2690D6822F073022A4378
:102650008D6823F4007343EA05230B4DA8420DD186
:10266000CD6823F4006343EA05238E694D6924F4A1
:102670004054354323F4806344EA05144460C26146
:102680004A68C263036270BD002C0140036A30B522
:1026900023F480530362036A4468C2690D6822F41C
:1026A000E64242EA05228D6823F4005343EA0533EB
:1026B000064DA84202BF4D6924F4804444EA8514C3
:1026C0004460C2614A680264036230BD002C01406C
:1026D000022341F2111210B580F83D300368044620
:1026E000196A114208D140F24442196A114202BFEC
:1026F0001A6822F001021A60204602F071FF0020E1
:1027000084F83D0084F83C0010BD03680020DA68BE
:1027100042F00102DA601A6842F001021A60704762
:10272000704790F83C3070B5012B4FF002031CD07D
:10273000012280F83D30036880F83C209A6822F43A
:102740007F4222F077029A600A68402A79D019D82D
:10275000102A00F093800AD8002A00F08980012313
:1027600080F83D30002380F83C30184670BD202AA8
:1027700000F08A80302AF2D19A6822F0700242F08A
:10278000370236E0702A36D01BD8502A42D0602A51
:10279000E5D11C6A4D6824F01004CE681C6299696A
:1027A0001A6A21F4704122F0A00242EA051241EABD
:1027B000063199611A629A6822F0700242F067024B
:1027C00017E0B2F5805F11D0B2F5005FC7D18A681B
:1027D0004D689C68C9682A4324F47F4442EA012278
:1027E00022439A609A6842F4804202E09A6822F09A
:1027F00007029A60B3E78A684D689C68C9682A43F3
:1028000024F47F4442EA012222439A609A6842F00B
:102810007702EEE74C68CE68196A1D6A21F00A015A
:1028200025F001051D629A69214322F0F00242EA77
:1028300006129A6119629A6822F0700242F05702F9
:10284000D7E74C68CE68196A1D6A21F00A0125F0A5
:1028500001051D629A69214322F0F00242EA061244
:102860009A6119629A6822F0700242F04702C0E74A
:102870009A6822F0700242F00702BAE79A6822F0E2
:10288000700242F01702B4E79A6822F0700242F038
:102890002702AEE77047704770477047036810B56E
:1028A0001A69044691070ED5DA6892070BD56FF0C6
:1028B00002021A6101229B6902779B0777D0FFF71A
:1028C000EAFF0023237723681A69500710D5DA68D6
:1028D00051070DD56FF004021A6102229B6922771D
:1028E00013F4407F204668D0FFF7D5FF00232377FD
:1028F00023681A6912070FD5DA6810070CD56FF034
:1029000008021A610422DB692277990720465AD00F
:10291000FFF7C1FF0023237723681A69D20610D579
:10292000DA68D0060DD56FF010021A610822DB6953
:10293000227713F4407F20464BD0FFF7ACFF0023F3
:10294000237723681A69D10708D5DA68D20705D535
:102950006FF0010220461A6100F0E6F923681A6957
:10296000100608D5DA68110605D56FF080022046FA
:102970001A6100F0D8F923681A69520608D5DA6896
:10298000500605D56FF0400220461A61FFF785FF1B
:1029900023681A69910622D5DA6892061FD56FF06E
:1029A00020022046BDE810401A6100F0BBB9FFF7D5
:1029B00071FF2046FFF770FF83E7FFF76BFF2046AC
:1029C000FFF76AFF92E7FFF765FF2046FFF764FF16
:1029D000A0E7FFF75FFF2046FFF75EFFAFE710BD00
:1029E0001A4A036890420AD0B0F1804F07D0A2F58E
:1029F0009432904203D002F58062904215D14A6829
:102A000023F070031343114A90420AD0B0F1804F73
:102A100007D0A2F59432904203D002F58062904232
:102A200003D1CA6823F4407313434A6923F0800337
:102A3000134303608B68C3620B688362034B984245
:102A400004BF0B690363012343617047002C0140FD
:102A500010B50446A0B190F83D3003F0FF021BB959
:102A600080F83C2002F004FD0223206884F83D3009
:102A7000211DFFF7B5FF0123002084F83D3010BD74
:102A8000012010BD10B50446A0B190F83D3003F010
:102A9000FF021BB980F83C20FFF742FE02232068AA
:102AA00084F83D30211DFFF79BFF0123002084F8AF
:102AB0003D3010BD012010BD036A70B523F0100336
:102AC0000362036A446882690D6822F4E64242EABE
:102AD00005228D6823F0200343EA05130B4DA8421D
:102AE0000DD1CD6823F0800343EA05138E694D694B
:102AF00024F44064354323F0400344EA85044460F1
:102B000082614A688263036270BD00BF002C01408D
:102B100038B590F83C300446012B4FF0020025D028
:102B2000012384F83D0084F83C300C2A18D8DFE8F3
:102B300002F0071717171E1717172F171717400040
:102B40002068FFF751FD236809699A6942F008027D
:102B50009A619A6922F004029A619A690A439A6119
:102B60000123002084F83D3084F83C0038BD206803
:102B7000FFF7A2FF236809699A6942F400629A612B
:102B80009A6922F480629A619A6942EA0122E6E730
:102B90002068FFF751FD23680969DA6942F00802ED
:102BA000DA61DA6922F00402DA61DA690A43DA6189
:102BB000D6E72068FFF76AFD23680969DA6942F4FD
:102BC0000062DA61DA6922F48062DA61DA6942EA83
:102BD0000122ECE710B50124036A8C4023EA0403C8
:102BE0000362036A8A401A43026210BD10B50446AC
:102BF00001220068FFF7EEFF2368064A0020934297
:102C000002BF5A6C42F400425A641A6842F0010250
:102C10001A6010BD002C014010B504460022006867
:102C2000FFF7D8FF2368124A93420DD141F21112E7
:102C3000196A114208D140F24442196A114202BF96
:102C40005A6C22F400425A6441F21112196A11427C
:102C500008D140F24442196A114202BF1A6822F0B8
:102C600001021A600123002084F83D3010BD00BF2E
:102C7000002C014010B504460C290DD8DFE801F006
:102C8000070C0C0C1E0C0C0C230C0C0C28000268FE
:102C9000D36843F00203D36020680122FFF79AFF54
:102CA00023680E4A0020934202BF5A6C42F400424D
:102CB0005A641A6842F001021A6010BD0268D368B3
:102CC00043F00403E7E70268D36843F00803E2E750
:102CD0000268D36843F01003DDE700BF002C014019
:102CE00090F83C3010B5012B4FF0020318D080F85B
:102CF0003D3003680C685A68496822F070025A60D7
:102D00005A6822435A609A6822F080029A609A6850
:102D10000A439A60012380F83D30002380F83C305C
:102D2000184610BD7047704708B5274B834245D100
:102D300020212648FEF7BAFA254B5A88013292B272
:102D40005A805A781A78023A042A37D8DFE802F013
:102D5000031B2C343700002830D15A8892B2632AE2
:102D600001D8588008BD83F8040258705A78D2B24E
:102D7000511CC9B25970598803EB420289B2918043
:102D8000588003220EE0012818D15A78D2B2511C83
:102D9000C9B25970598803EB420289B2918000226E
:102DA0005A8004221A7009E00028DFD05A8892B2B3
:102DB000642A03D90522F5E70028D2D008BD0122F4
:102DC00083F80422F6E700BF68070020000C0140EA
:102DD0003C050020D0B504460846FDF70BFB002259
:102DE000114B06460F46FDF76BFB00220F4BFDF71C
:102DF00091FCFDF7FFFDA04214DC00220C4B304695
:102E00003946FDF75DFB0022084BFDF783FC0022ED
:102E1000084BFDF7A3F9FDF7EDFD8442CCBF002080
:102E20000120D0BD0020D0BD0000E83F0000494097
:102E30000000F43F0000F03FD0B5044601F164000B
:102E4000FDF7D8FA0022124B06460F46FDF738FB75
:102E50000022104BFDF75EFCFDF7CCFDA04214DC18
:102E600000220D4B30463946FDF72AFB0022094B64
:102E7000FDF750FC0022094BFDF770F9FDF7BAFD94
:102E80008442CCBF00200120D0BD0020D0BD00BFB7
:102E90000000E83F000049400000F43F0000F03F20
:102EA000D0B50446A1F16400FDF7A4FA0022124B4C
:102EB00006460F46FDF704FB0022104BFDF72AFCE7
:102EC000FDF798FDA04214DC00220D4B3046394638
:102ED000FDF7F6FA0022094BFDF71CFC0022094B16
:102EE000FDF73CF9FDF786FD8442CCBF00200120B0
:102EF000D0BD0020D0BD00BF0000E83F0000494029
:102F00000000F43F0000F03F30B5184C87B000F0EF
:102F1000F5F82046FFF7DCFB0021102202A802F0A2
:102F20006BFC4723124A002584E80C00312320461D
:102F3000E36000950195A5602561A561FFF788FD17
:102F40004FF4805302A920460293FFF7EAFB69463B
:102F5000204600950195FFF7C3FE0222054B20464F
:102F60001A705D70FFF7D1FB07B030BD6807002015
:102F7000000800403C0500200222024B1A7000228B
:102F80005A7070473C050020F8B506460846FDF724
:102F900021FA044630460D46FDF71CFA10A3D3E98A
:102FA000002306460F46FDF78BFA02460B462046E5
:102FB0002946FDF7F7FC88B909A3D3E90023204689
:102FC0002946FDF77DFA02460B4630463946FDF7A5
:102FD000E9FC002814BF02200120F8BD0020F8BD44
:102FE0009A9999999999E93F2DE9F041B0F91070B2
:102FF0000646052F1FDD0124104DDFF84480A31C79
:10300000BB4207DB2023338100237560337001202E
:10301000BDE8F081F2686300043332F81400D15A3D
:1030200080B289B2FFF7B0FF08FB05F500B20134AA
:10303000454024B2E3E70020BDE8F081C59D1C8136
:103040009301000110B52C4B044613F8031CC36018
:10305000018293F8002213F8043C4282052B48D1E8
:1030600000F09EFA08B1012010BD204600F04EFD90
:103070000028F8D1204600F0DFFC0028F3D12046DC
:1030800000F038FA0028EED1204600F079FB002845
:10309000E9D1204600F0CAFB0028E4D1204600F028
:1030A000DFFA0028DFD1204600F0D0F90028DAD17D
:1030B000204600F059F90028D5D1204600F05CFCEC
:1030C0000028D0D1204600F083FD0028CBD1204637
:1030D00000F0A6F80028C6D1204600F0FDF8002830
:1030E000C1D12046FFF780FF0028BCD1FFF744FF85
:1030F00010BD002010BD00BF40050020054A136828
:1031000043F080731360044A136843F001031360B3
:10311000704700BFFCED00E0001000E070B54FF418
:103120007A767043214C224E8EB096FBF0F6204604
:10313000FFF7CEFA1022002103A8002502F05CFB65
:103140001C2229460DEB020001950295013E02F07A
:1031500053FB184BB6B2204684E82800E660A56011
:103160002561A561FFF774FC4FF4805303A9204645
:103170000393FFF7D6FA2046FFF784FC01A9204607
:1031800001950295FFF7ACFD602307930323B6FB7F
:10319000F3F62A4607A92046089609950B95FFF7EE
:1031A000B7FC204602F0DCF90EB070BD68070020C5
:1031B00000A24A0400080040064B074A1B68B3FB04
:1031C000F2F300225843054B5A605A689042FCD8EB
:1031D000704700BF2000002040420F00001000E0B8
:1031E00010B5044600210548FFF700FD24B1204634
:1031F000BDE81040FFF7E0BF10BD00BF680700202A
:1032000010B5044600210548FFF706FD24B120460D
:10321000BDE81040FFF7D0BF10BD00BF6807002019
:103220002DE9F8432B4B04465A789846572A02D882
:103230000020BDE8F883C36842F26021588880B25C
:10324000FFF7FAFD0028F3D0E36841F29411988863
:1032500080B2FFF725FE0028EAD01D27002598F848
:103260000130043B9F420CDB3E46013E46F34F06D5
:10327000292E2681DCDD0923656023700120BDE84D
:10328000F883E3684FF4FA7133F817004FEA4709FF
:1032900080B2FFF7D1FD0028CAD0E36809F1020926
:1032A00033F809004FF4167180B27E1CFFF7F8FD69
:1032B00020B16D0045F001050237D0E7E36840F228
:1032C000A46133F8090080B2FFF7EAFD0028CCD0F2
:1032D0006D00F1E73C050020F8B5224B04465B7811
:1032E000202B01D00020F8BDC3684FF49671588898
:1032F00080B2FFF7A1FD0028F4D0E36840F2EE2190
:10330000988880B2FFF7CCFD0028EBD00627002577
:10331000E3684FF49671D85B80B2FFF78DFD00280B
:10332000E0D0E368BE1C985B4FF4E16180B2FFF728
:10333000B7FD60B16D0045F0010504373E2FE7D1C0
:103340000E2323810F23656023700120F8BDE368FD
:1033500040F2EE21985B80B2FFF7A2FD0028C1D0B9
:103360006D00EAE73C050020F8B5374D04466B7860
:103370002E46222B1DD1C3684FF41671588880B297
:10338000FFF75AFDA8B16B78E26803F10043013BF7
:1033900032F813004FF4167180B2FFF74DFD40B1C3
:1033A000002323814FF0FF33636006230120237045
:1033B000F8BDE3684FF4FA51588880B2FFF73CFD3E
:1033C00008B90020F8BD7378202BFAD9E3684FF4D0
:1033D0007A61988880B2FFF763FD0028F1D0032658
:1033E0000025E3684FF4167133F81600770080B2B9
:1033F000FFF722FD0028E4D0E3680237D85B4FF4E2
:10340000C86180B2FFF74CFD98B16D0045F0010531
:103410000236232EE5D1E3684FF41671B3F8460067
:1034200080B2FFF709FD0028CBD01023656023810F
:10343000BBE7E36840F22621D85B80B2FFF730FD9E
:103440000028BED06D00E3E73C050020F8B5284B0E
:1034500004465B78382B01D80020F8BDC3684FF4D0
:10346000FA51588880B2FFF7E7FC0028F4D0E368EF
:103470004FF47A61988880B2FFF712FD0028EBD0F4
:1034800003260025E3684FF4167133F81600770021
:1034900080B2FFF7D1FC0028DED0E3680237D85BAA
:1034A0004FF4C86180B2FFF7FBFCB0B16D0045F08E
:1034B000010502363B2EE5D1E3684FF41671B3F8EF
:1034C000760080B2FFF7B8FC0028C5D01C2323810A
:1034D0000A23656023700120F8BDE36840F22621CD
:1034E000D85B80B2FFF7DCFC0028B5D06D00E0E7C8
:1034F0003C0500202DE9F843284B04465A789946AC
:10350000212A02D80020BDE8F883C3684FF4AF71C8
:10351000588880B2FFF790FC0028F3D002270026DD
:1035200099F801307D1CAB420FDC3D46013D45F36F
:103530004F050F2DD4BF00200C232581C9BF666025
:10354000208123700120BDE8F883E36840F29E717A
:1035500033F817004FEA470880B2FFF76DFC80B1DF
:10356000760046F00106E36808F1020833F8080027
:103570004FF4AF7180B2FFF793FC0028D6D002372A
:10358000CEE7E36840F2EE2133F8170080B2FFF790
:1035900053FC0028B6D07600E5E700BF3C050020CC
:1035A000F8B5C3680446588842F2283180B2FFF764
:1035B00043FC08B90020F8BD284D6A78042A18D1C8
:1035C000E36840F6CA01988880B2FFF769FC80B1D1
:1035D000E3684FF40C71D88880B2FFF72DFC40B13E
:1035E000002323814FF0FF33636003230120237006
:1035F000F8BD6B78432BDDD9E36841F294119888CC
:1036000080B2FFF74DFC0028D4D006270025E368E0
:103610004FF40C71D85B80B2FFF70EFC0028C9D0C4
:10362000E368BE1C985B40F29A6180B2FFF738FCF9
:1036300048B16D0045F001050437862FE7D12023FE
:1036400065602381D1E7E3684FF40C71985B80B229
:10365000FFF726FC0028ADD06D00EDE73C0500200B
:10366000C3682DE9F0410646588840F6AE5180B255
:10367000FFF7E2FB10B90020BDE8F081F36840F2EB
:10368000D661988880B2FFF7D7FB0028F3D00627D1
:1036900000240025F3684FF4FB71D85B80B2FFF77C
:1036A000CBFB0028E7D0F36807F1020833F80800E5
:1036B00040F2DC4180B2FFF7F3FB78B124196D4191
:1036C00044F001040437C62FE4D1052333703023BE
:1036D0007460758033810120BDE8F081F3684FF498
:1036E000C87133F8080080B2FFF7DAFB0028C2D0B7
:1036F00024196D41E6E72DE9F843904699460A689A
:10370000B0F910300F469A4234DA12F0010F0CBFB4
:103710006FF063046424D543C3684C4433F81260EB
:103720002146B6B2304605F00105FFF753FBE8B974
:103730004C4421463046FFF74DFBC8B909EB040164
:103740003046FFF747FBB8B10322D8F80030013309
:103750009A42DDBF0023C8F800303B68C8F800304B
:10376000DCBF01333B602846BDE8F8830122ECE76B
:103770000222EAE70125F6E74FF0FF35F3E7000004
:10378000002201232DE9F3418DE80C00264B04466D
:103790005A7898460C2A03D8002002B0BDE8F08180
:1037A00040F279336A4601A9FFF7A5FF0028F3D15B
:1037B00040F279336A4601A92046FFF79CFF0128B1
:1037C000EAD140F279336A4601A92046FFF793FF18
:1037D00006460028E0D1054698F80120019B9A4250
:1037E00004DC0120268165602070D6E740F2793341
:1037F0006A4601A92046FFF77EFF074640F279336B
:103800006A4601A92046FFF776FF012F06D100285E
:10381000C2D16D0045F001050136DDE7002FBBD1B7
:103820000128B9D16D00F7E73C05002000232DE900
:10383000F3410093B0F910300446002B03DC002064
:1038400002B0BDE8F0810222C36840F66A215888C0
:10385000019280B2FFF7F0FA0028F0D0019BE268F5
:10386000591C32F81300019180B240F27931FFF710
:1038700017FB0028E3D04FF4DE736A4601A9204607
:10388000FFF739FF06460028D9D14FF4DE736A46A8
:1038900001A92046FFF72FFF0128D0D13546B4F902
:1038A0001020019B9A4205DC02232681656023706B
:1038B0000120C5E74FF4DE736A4601A92046FFF7F1
:1038C0001AFF032E80461CD04FF4DE736A4601A90E
:1038D0002046FFF710FF032E074608D14FF4DE7392
:1038E0006A4601A92046FFF706FF8742A7D1B8F133
:1038F000000F10D0B8F1010FA1D1002F9FD16D00A2
:103900000EE04FF4DE736A4601A92046FFF7F3FE8E
:103910008045D9D093E7012F91D16D0045F0010585
:103920000136BCE738B50C4605462620FFF7F6FB06
:1039300041F29410FFF754FC41F29410FFF760FC41
:10394000611E01248C404FF40C7034B9FFF748FC21
:103950002046BDE83840FFF753BC2C4207D0FFF7A4
:103960003FFC4FF4C860FFF74BFC6408EBE7FFF740
:1039700037FC4FF40C70F6E7F8B5C3680446588876
:1039800041F2941180B2FFF757FA08B90020F8BD50
:10399000284D6A78042A18D1E36840F6CA0198884D
:1039A00080B2FFF77DFA80B1E3684FF40C71D888DC
:1039B00080B2FFF741FA40B1002323814FF0FF337B
:1039C0006360072301202370F8BD6B78432BDDD99A
:1039D000E36841F29411988880B2FFF761FA0028F9
:1039E000D4D006270025E3684FF40C71D85B80B271
:1039F000FFF722FA0028C9D0E368BE1C985B4FF499
:103A0000C86180B2FFF74CFA48B16D0045F001057E
:103A10000437862FE7D1202365602381D1E7E3684F
:103A20004FF40C71985B80B2FFF73AFA0028ADD0E2
:103A30006D00EDE73C0500202DE9F843324B0446CC
:103A40005A789846192A02D80020BDE8F883C2683F
:103A500013889BB2B3F5487F09D2002303814FF04E
:103A6000FF3343600B2301202370BDE8F8835088A7
:103A700040F6AC5180B2FFF7DFF90028E4D0E368EC
:103A800040F6AC51988880B2FFF7D6F90028DBD019
:103A90000327002698F801307D1CAB420ADC3D4626
:103AA000013D45F34F050B2D25812BDC00202081A6
:103AB000BDE8F883E36840F2B63133F817004FEA07
:103AC000470980B2FFF7ECF90028E9D0E36809F173
:103AD000020933F809004FF4166180B2FFF7ACF920
:103AE00020B1760046F001060237D3E7E3684FF4D1
:103AF0002F7133F8090080B2FFF79EF90028A3D098
:103B00007600F1E76660ADE73C0500202DE9F8435B
:103B10002E4B04465A789846192A02D80020BDE850
:103B2000F883C26813889BB2B3F5FA7F09D20023E9
:103B300003814FF0FF3343600B2323700120BDE866
:103B4000F88350884FF4166180B2FFF775F90028AA
:103B5000E4D00227002698F801307D1CAB420ADC35
:103B60003D46013D45F34F050B2D25812BDC002003
:103B70002081BDE8F883E3684FF4167133F817002D
:103B80004FEA470980B2FFF78BF90028E9D0E368D4
:103B900009F1020933F809004FF4966180B2FFF78A
:103BA0004BF920B1760046F001060237D3E7E3680F
:103BB0004FF4167133F8090080B2FFF73DF9002881
:103BC000ACD07600F1E766600423B6E73C05002040
:103BD000F8B5314B04465B78452B01D80020F8BD81
:103BE000C36840F2EE21588880B2FFF725F900281B
:103BF000F4D0E36840F2EE21988880B2FFF750F9E4
:103C00000028EBD0E36840F62231D88880B2FFF775
:103C100013F90028E2D0E36840F62231188980B217
:103C2000FFF73EF90028D9D005260025E36840F2C9
:103C3000EE2133F81600770080B2FFF7FDF8002878
:103C4000CCD0E3680237D85B40F6660180B2FFF75C
:103C500027F9B0B16D0045F001050236452EE5D1DA
:103C6000E36840F2EE21B3F88A0080B2FFF7E4F88F
:103C70000028B3D02023238108236560237001200E
:103C8000F8BDE36840F2EE21D85B80B2FFF708F997
:103C90000028A3D06D00E0E73C0500201D481E4928
:103CA000B0F86220B0F8C630FA32C83B92B29BB28C
:103CB000B2F5FA7F98BFFA2B184A23D8B0F82A3108
:103CC000963B9BB2642B1DD8012341F27070137098
:103CD0000A781A44D2B20A7011490B70114B198834
:103CE00081429CBF643119803B2A12D9012041F2E4
:103CF00070710D4A10701A888A420AD802F57A72D9
:103D00001A807047002312780B70012A04BF054AFD
:103D1000138070470008002074190020C1000020A3
:103D2000B8000020A40000201600002021482249ED
:103D3000B0F86230B0F8C620643364329BB292B2FD
:103D4000C82B98BFC82A94BF012300231B4A1278AE
:103D5000002A14BF002303F00103194A0BB3B0F883
:103D60002A3146339BB28C2B1BD8042341F270704E
:103D700013700A78134B0132D2B20A70198881424B
:103D80009CBF64311980132A12D9012041F270714D
:103D90000D4A10701A888A420AD802F57A721A807F
:103DA0007047002312780B70042A04BF054A138061
:103DB000704700BF00080020340900204809002097
:103DC000C1000020A8000020EC0A00201D4810B50A
:103DD000B0F86220B0F82A31FA32A3F52F7392B20C
:103DE0009BB2642A98BFC82B174C1849184A1FD891
:103DF000B0F8C630642B1BD8022341F270702370D8
:103E00000B780133DBB20B70118881429CBF6431A7
:103E100011803B2B14D902210E4B197041F27071A5
:103E200013888B420CD803F57A731380012010BDE0
:103E30000023138022780B70022A04BF064A1380E5
:103E400010BD00BF00080020C1000020350900207F
:103E5000A600002016000020A80000201349B1F899
:103E60006230B1F8C620953395329BB292B2B3F569
:103E7000957F88BFB2F5957F8CBF012300230C4A44
:103E80001078012814BF002303F0010363B1B1F8D7
:103E90002A3195339BB2B3F5957F05D90120054BA7
:103EA0001870002313707047704700BF000800208F
:103EB000EC0A0020480900202DE9F04F4FF49676D7
:103EC0004643514F514D524C87B04FF0FF330122C2
:103ED00039882846FEF748F820700028F5D1374683
:103EE0000446DFF828A100254A4ABB1B03EB020B5E
:103EF0003BF915304FF002098DF810301B128DF888
:103F00001130414B07EB450819884FF0FF331FFA7A
:103F100088F8029304AB42460093CDF80490102336
:103F20005046FDF76BFE1420FDF758F8364B42461D
:103F300019884FF0FF33029305AB0093CDF804903E
:103F400010235046FDF7F0FEBDF914803BF9153003
:103F5000984544D0304A2821304801F069FC0020BF
:103F600001F04AF94946DFF8C890032001F058FAF9
:103F700099E806000123294801F03CFA4346284A03
:103F80002821264801F054FC0A21032001F048FAB8
:103F900099E806000123214801F02CFA2346214A22
:103FA000602100951D4801F043FC1421082001F018
:103FB00037FA99E806000123184801F01BFA1E2180
:103FC000082001F02DFA99E806000123164801F0B7
:103FD00011FA01F01FF944F62060FCF7FFFF0135EC
:103FE000322D85D10134032C07F164077FF47BAFB8
:103FF000C820FCF7F3FF00220C4B01201A7000F0E0
:1040000019F807B0BDE8F08F14000020AC070020BD
:104010005D0B002000080020A0670008C3000020FE
:10402000B1670008BB670008CB670008B00000203C
:10403000180000202DE9F047934E074634787CBBEA
:10404000204601F0D9F82146904C072001F0E8F90C
:1040500094E8060001238E4801F0CCF90C210720DA
:1040600001F0DEF994E8060001238A4801F0C2F964
:104070001821072001F0D4F994E8060001238648AE
:1040800001F0B8F92421072001F0CAF994E80600EC
:104090000123824801F0AEF901F0BCF8012333702E
:1040A000012F3AD17E4C794D2178002001F0B8F9EA
:1040B00095E806003B467B4801F09CF921780020FA
:1040C0000C39C9B201F0ACF995E806003B467648D8
:1040D00001F090F9C820FCF781FF2178302915D92B
:1040E0000C39C9B2002001F09BF995E806003B4667
:1040F0006D4801F07FF900210846217001F090F928
:1041000095E806003B46674801F074F901F082F833
:1041100023780C332370BDE8F087022F34D1604C34
:1041200023780C2B05D14620FCF758FF01225F4B6A
:104130001A702378182B0AD16E20FCF74FFF012349
:104140005B4A1370594A137000233370237023782D
:10415000242B16D14FF49670FCF740FF4FF0FF3739
:10416000DFF85891DFF858A1DFF858814FF400418B
:104170004846FDF79BF8054640B93846FFF79CFED8
:1041800025702378302B4ED0BDE8F087002001F059
:1041900033F83E4D3B4652461421404601F048FB61
:1041A0002178032001F03CF995E8060001234148FD
:1041B00001F020F92178032001F032F995E806009A
:1041C0000123404601F016F901F024F81420FCF711
:1041D00005FF4FF480414846FDF768F80028C5D137
:1041E000013701F009F83B4652461421404601F0E0
:1041F0001FFB2178032001F013F995E80600012345
:104200002C4801F0F7F82178032001F009F995E82E
:1042100006000123404601F0EDF800F0FBFFC82046
:10422000FCF7DCFEA2E74FF49670FCF7D7FEDFF850
:104230008C80164FDFF890904FF400414046FDF718
:1042400035F8054630B9C820FCF7C8FE3570257032
:10425000BDE8F0871E20FCF7C1FE002000F0CCFF77
:104260002178032001F0DCF897E806000123484696
:1042700001F0C0F800F0CEFF0F4A1378B3FA83F3D1
:104280005B091370D8E700BFB000002018000020C1
:104290001C6800082B6800083C6800084D6800088E
:1042A000B10000205B68000879680008B2000020B7
:1042B0005C0B00206B680008C0000020001001406B
:1042C0005D680008C30000207B6800082DE9F04FFE
:1042D0004FF4967600254643DFF85490DFF854A05B
:1042E000DFF854B087B00024AF1909EB47084FF04E
:1042F000FF33029302233A19019305AB009392B264
:104300001023BAF800105846FDF70EFD9DF9152050
:104310009DF9143043EA022348F814300234642C27
:10432000E5D16435B5F5967FDDD107B0BDE8F08FF6
:10433000640B002014000020AC070020884204DA3F
:104340008242A8BF024610467047FCDD8A42A8BFE1
:104350000A46F8E72DE9F04F4FF416718BB000AF25
:10436000ADF5225D8AB06B466C4A0DF5225A7A6132
:104370006B4A07F1180401FB002B0DF51C520C329F
:104380003A610DF51F521C32FA600AF1200A002230
:10439000CC2101FB02315BF822000132322AC1F844
:1043A000CC00F5D10022191D786930F912000132D4
:1043B000322A41F8040BF7D100225D681A60D3F865
:1043C000CC20D3F89811501B491B0028B8BF40429D
:1043D0000029B8BF4942C3F89C119968C3F8D000BE
:1043E000521A002AB8BF5242C3F8D42003F108027F
:1043F00016467A6003F1CC0156F8040BD3F8CC20B2
:10440000121A002AD6F8C400B8BF52420244B14280
:10441000C6F8C820F0D11946D1F898215868CC3197
:10442000121A002A4868B8BF52420244C1F8D0208C
:104430003A698A42F0D103F1D008C1467A68BA607D
:10444000BA68D8F8C85052F8040B2D1A4846BA601A
:1044500041680268D0F8CC00FFF770FF002DBA6801
:10446000B8BF6D4209F1040905449642C9F8CC5021
:10447000E6D1FA6808F1CC084245DED1DAF800202E
:1044800044F8042F3222154633216E1E01FB06F834
:1044900002F1FF3E08EB0E0153F821C0332101FB6E
:1044A00005E153F82100216884450BD8904453F866
:1044B0002880C44504D872466144216035460CE02A
:1044C000844523D34FF0330C0CFB062C53F82CC03F
:1044D00060451BD87246014421600DB1002AD3D13A
:1044E0007A690BF1C80B64327A6107F12402A242A7
:1044F0007FF44DAF3B6AF86918447B6A2C37184447
:104500000323B0FBF3F0BD46BDE8F08F332000FB82
:10451000062053F8200001442160CFE70008002066
:10452000640B002008B50B48FEF7B8F90A4A136877
:1045300001331360094A136801331360084B1A886A
:104540004FF080435A63074A12889A63064A1288DA
:10455000DA6308BDA00A0020B4000020AC000020EF
:10456000A4000020A6000020A80000202DE9F341AF
:104570000D4616464FF47A77DFF82C8044000097FA
:1045800033462A4621460848FDF7E0F840B9064C74
:104590002046FDF799FD2028FAD102B0BDE8F08150
:1045A0004046FDF794FDEAE7AC0700202DE9FF4106
:1045B0001D4604AB03F8011D0446164619460122A8
:1045C000FFF7D4FF4FF47A77DFF830806400ADB2A4
:1045D00000972B46324621460848FDF78DF940B931
:1045E000064C2046FDF770FD2028FAD104B0BDE846
:1045F000F0814046FDF76BFDEAE700BFAC07002005
:104600006B2307B58DF8003000236946022268202D
:104610008DF80130FFF7AAFF1B238DF80030082327
:104620006946022268208DF80130FFF79FFF1C23A6
:104630008DF8003010230222694668208DF8013081
:10464000FFF794FF03B05DF804FB1FB50E233B2179
:1046500004466A466820FFF7A9FF00230A210DEBF4
:1046600003021DF90300527802EB002292FBF1F2E3
:10467000E2520233062BF2D19DF808209DF8093052
:1046800003EB0223E3809DF80A209DF80B3003EB37
:10469000022323819DF80C209DF80D3003EB0223AB
:1046A000638104B010BD0000F0B54FF4FA771A4EE4
:1046B0001A4D1B4C85B001A8FFF7C7FFBDF90400D8
:1046C000FCF77AFA3168FCF7C3F93060BDF90600EF
:1046D000FCF772FA2968FCF7BBF92860BDF90800FD
:1046E000FCF76AFA2168FCF7B3F920600320FCF7B5
:1046F00075FC013FDFD130680A49FCF765FB0949C9
:1047000030602868FCF760FB064928602068FCF7E9
:104710005BFB206005B0F0BD600B00203C09002071
:104720005C0900200000FA4310B590B02822002157
:1047300006A801F061F80021142201A801F05CF83C
:104740004FF480330122022407930E934FF4E013B9
:1047500006A806920A920F930D94FDF7BBFC0F2357
:104760004FF4806201930023214601A80294039331
:1047700004920593FDF776FE10B010BD2DE9F04FC1
:10478000002697B0FCF706FCFFF7CEFF10220021B1
:104790000BA801F031F81C2231460FA84FF08047DA
:1047A00009960A9601F028F841F270734FF4805987
:1047B000C04C4FF0600A2046E36027606660A66048
:1047C0002661A661FEF744F90BA92046CDF82C908E
:1047D000FDF7A7FF2046FEF755F909A920460996DF
:1047E0000A96FEF77DFA47F2305332460FA920466B
:1047F0001093CDF83CA011961396FEF789F9042288
:104800000FA92046FEF784F908220FA92046FEF7DB
:104810007FF9204600F0A4FEF022A74B314683F832
:104820001C232046FEF726FA04212046FEF722FA32
:1048300008212046FEF71EFA052331467B6310222D
:10484000BB630FA8FB6300F0D7FF9C4B4FF0010B3D
:104850009A694FF4804442F020029A619A690FA944
:1048600002F020020592059A9A69954842F00402E6
:104870009A619A69DFF8948202F004020692069A1D
:104880009A69904F42F008029A619A6902F0080210
:104890000792079A9A6942F010029A619B690F94F5
:1048A00003F010030893089BCDF844B0FCF71EFCFE
:1048B0004FF400430FA982480F931096CDF844B0EF
:1048C000FCF714FC20230FA97F480F931096119634
:1048D000FCF70CFC7D4A7E4B404688E80C00C8F88B
:1048E0000860C8F80C60C8F81040C8F81460794C2B
:1048F000C8F81860C8F81C60C8F82060FCF7A6FE6D
:1049000000F0A2FC304600F077FC3146022000F0B7
:1049100087FD94E806005B466F4800F06BFD00F0F1
:1049200079FC1421022000F07BFD94E806005B4630
:104930006A4800F05FFD00F06DFCFFF761FEFFF7D5
:10494000B3FE314610220BA800F056FF1C22314660
:104950000FA809960A9600F04FFF614B384687E88A
:104960004800BE60FE603E61BE61FEF771F80BA9B3
:104970003846CDF82C90FDF7D4FE3846FEF782F885
:1049800009A9384609960A96FEF7AAF932460FA9F0
:104990003846CDF83CA0109611961396FEF7B8F85D
:1049A000384600F0DDFD4F4F102231460FA800F0D1
:1049B00023FF4D4B4D49384687E80A00BE603E61F3
:1049C0007E61BE610B960C96C7F80CB0FEF740F8FE
:1049D0000FA93846CDF83C90FDF7A3FE0BA9384649
:1049E0000B960C96FEF77CF94FF41670FCF7F6FA6E
:1049F000304600F001FC3146022000F011FD94E841
:104A000006005B463A4800F0F5FC00F003FC4FF46A
:104A10001670FCF7E3FA304600F0EEFB314609264B
:104A20000220344F00F0FCFC94E806005B4632485C
:104A3000DFF8DCA0DFF8DC9000F0DCFC00F0EAFB43
:104A400087F800B039780B0640F109824FF47A708C
:104A5000FCF7C4FA2348FDF758FEFEF755FA4FF469
:104A600016730026DFF8B0803046A8F80030234BDC
:104A70001A68136843F080731360214B1B681E6033
:104A8000204B1A68136843F00103136000F0B4FB75
:104A90003146022000F0C4FC94E8060001231A48C5
:104AA00000F0A8FC00F0B6FB4FF4FA70FCF796FAA1
:104AB00034E000BF100B002000E100E000100240D5
:104AC0000010014068070020000C01400058004021
:104AD000A08601001800002086680008976800087A
:104AE00000080040A00A002080FC0A00002C0140C1
:104AF0009F68000870090020B068000808000020C6
:104B0000100000200C000020B9680008AC0700204D
:104B100078690008C3000020A40000203046FFF799
:104B2000D5FBB8F80030013603F51673062EA8F849
:104B30000030F3D10A230020A8F8003000F05CFB1D
:104B40000021022000F06CFC94E806000123D1480B
:104B500000F050FC00F05EFB4FF4FA70FCF73EFAF8
:104B60000120FFF767FA4FF48041CB48FCF79EFB2A
:104B7000002840F084810120FFF75CFA3220FCF726
:104B80002DFAC64B1B78012B40F0A582DFF8688315
:104B9000DFF86893D8F80030022B25DDC04E0FA84F
:104BA000FFF753FDBDF93C00FCF706F83168FBF751
:104BB0004FFF3060BB4EBDF93E00FBF7FDFF316893
:104BC000FBF746FF3060B84EBDF94000FBF7F4FF3D
:104BD0003168FBF73DFF0023C8F8003099F800303A
:104BE0003060013389F8003099F90030042B40F02F
:104BF0000781DFF8ACB24FF07A51DBF80000FCF728
:104C00002FF8DFF8A0A203904FF07A51DAF80000F5
:104C1000FCF726F8A44B4FF07A5106461868FCF7CB
:104C20001FF8A2490346039AA14801F1620E31F828
:104C300002CF20F802CFB1F864C07145A0F864C07B
:104C4000B1F8C8C0A0F8C8C0F1D19A4910460968A7
:104C50000393FBF7FBFEFCF753F9DFF8A482964AB7
:104C6000A8F8620011683046FBF7F0FEFCF748F93F
:104C7000039B924AA8F8C60011681846FBF7E6FEA7
:104C8000FCF73EF90023894EA8F82A010022981962
:104C900003EB080131F812E020F812E00132322A69
:104CA000F8D16433B3F5967FF0D1002300224FF0A2
:104CB0000008CBF80030CAF800307B4B89F8008040
:104CC0001A607F4BDFF83CB293F80090B9F1010F06
:104CD00060D1404600F090FA2B467A4A14217A4877
:104CE00000F0A6FDDFF820A24146404600F098FB08
:104CF00094E806004B46744800F07CFBB6F960303F
:104D0000724A6021CDF800A06F4800F091FD10219B
:104D1000404600F085FB94E806004B466A4800F0E8
:104D200069FBB6F9C4306A4A6021CDF800A0664834
:104D300000F07EFD1A21404600F072FB94E8060068
:104D40004B46614800F056FBB6F92831614A6021B4
:104D5000CDF800A05C4800F06BFD2421404600F037
:104D60005FFB94E806004B46574800F043FB9BF876
:104D70000030594A6021544800F05AFD2E21404627
:104D800000F04EFB94E806004B464F4800F032FB23
:104D900000F040FA2846FEF781FF2846FFF716F894
:104DA000FEF7C4FF9BF80030022B40F0B6800135BF
:104DB000312D25DD494B1D7815B3494A1578002D55
:104DC00000F0A68000251570344A284615701D7025
:104DD00000F012FA0A21032000F022FB94E80600FA
:104DE0000123404800F006FB1421032000F018FBCB
:104DF00094E8060001233C4800F0FCFA00F00AFAAF
:104E0000FFF72CF8394A0128167808BF0025012E33
:104E100040F061810023DFF8D8A0DFF8F090137034
:104E20003B7097F80080B8F1050F40F21181002126
:104E3000D9F800302E48062E40F0188109B1C9F883
:104E4000003000231A46D9F800002A493B70062B8F
:104E500040F01681002A00F03E813B703BE10223C6
:104E600049001A464046FDF77FF8002800F06F81A0
:104E70002E2000F0C9FC3B7801333B70E2E54FF493
:104E800000410548FCF712FA00287FF47AAE0220B0
:104E900072E600BFDA68000800100140B20000208E
:104EA000E00A0020A8070020E40A002000080020F3
:104EB00070090020600B00203C0900205C090020E4
:104EC000C0000020E8680008C3000020F668000861
:104ED000016900080C6900081769000848090020EA
:104EE0005C0B002025690008DF680008500B0020DB
:104EF000F80A0020F40A0020AC000020C2000020C4
:104F00007209002016000020776800086009002060
:104F100001219A4A1D70117072E7012B7FF470AF66
:104F2000B6F96020DFF88082B2F5967F57DDB6F9DA
:104F30005E20B2F5967F09DDB6F95C20B2F5967F6A
:104F400004DD98F800200AB988F80030B6F9C430BA
:104F5000B3F5967F56DDB6F9C230B3F5967F0ADD1C
:104F6000B6F9C030B3F5967F05DD98F8003013B977
:104F7000032388F80030B6F92831B3F5967F54DD65
:104F8000B6F92631B3F5967F0ADDB6F92431B3F5CB
:104F9000967F05DD98F8003013B9052388F80030B6
:104FA00098F80030002B3FF42BAF002000F024F9DC
:104FB00098F80030724A1421724800F039FC002140
:104FC000084600F02DFA94E8060001236D4800F031
:104FD00011FA00F01FF9002388F8003010E712F5ED
:104FE000967FB3DAB6F95E3013F5967FAEDAB6F98E
:104FF0005C3013F5967FA9DA98F80030002BA5D124
:105000000223A1E713F5967FB5DAB6F9C23013F59E
:10501000967FB0DAB6F9C03013F5967FABDA98F820
:105020000030002BA7D10423A3E713F5967FB7DA4E
:10503000B6F9263113F5967FB2DAB6F9243113F5B5
:10504000967FADDA98F80030002BA9D10623A5E7AA
:105050004046FFF77FF94AF82800DAF8003008F1F7
:105060000108C9F8003087F80080DAE650F8042F0C
:1050700001369342D4BF1A460121F6B21346DAE64E
:1050800051F8046F86425ED1002B5CD002B13B70B8
:10509000012B50D13C483D4B20211860FEF742FCCB
:1050A000FDF732FF3B783A4A1421364800F0C0FB46
:1050B000002000F0A1F80A21032000F0B1F994E8E3
:1050C000060001232F4800F095F900F0A3F84FF4F3
:1050D000FA70FBF783FF2F4E3046FDF7B3FF002831
:1050E0003FF441ADB6F908302B4A019396F90030F0
:1050F0006021013352F82330224800937368274A15
:1051000000F096FB002000F077F80A21032000F061
:1051100087F994E8060001231A4800F06BF900F0C3
:1051200079F8FDF729FF1420FBF758FF4FF01132F3
:10513000164B1A6017E5022B01D11948ABE7032B78
:10514000B0D11848A7E70133DBB201227FE63B78F4
:1051500052461421F6B2484600F06AFB314602205E
:1051600000F05EF994E8060001234846093600F095
:1051700041F976B200F04EF87DE600BF500B0020FA
:1051800039690008C300002010111111BC00002073
:105190004A69000844070020D467000859690008DC
:1051A0000111111111101111B80000207FB54FF03D
:1051B000FF3306AA02F8010D0293012378218DE83E
:1051C0000C0003480022FCF719FD07B05DF804FB52
:1051D000AC0700201FB54FF0FF3389B28DE8030004
:1051E00002934022012378210248FCF707FD05B015
:1051F0005DF804FBAC07002000230549021C18BF22
:10520000012252425A540133B3F5806FF6D17047F0
:105210002A01002038B500240A4DA4F15000C0B284
:10522000FFF7C4FF0020FFF7C1FF1020FFF7BEFF0C
:1052300005EBC41080210134FFF7CCFF082CECD122
:1052400038BD00BF2A01002008B56420FBF7C6FE68
:10525000AE20FFF7ABFF2020FFF7A8FF1020FFF7DD
:10526000A5FFB020FFF7A2FFC820FFF79FFF002097
:10527000FFF79CFF1020FFF799FF4020FFF796FFF4
:105280008120FFF793FFFF20FFF790FFA120FFF79A
:105290008DFFA620FFF78AFFA820FFF787FF3F209A
:1052A000FFF784FFA420FFF781FFD320FFF77EFFE5
:1052B0000020FFF77BFFD520FFF778FFF020FFF7F6
:1052C00075FFD920FFF772FF2220FFF76FFFDA206A
:1052D000FFF76CFF1220FFF769FFDB20FFF766FF87
:1052E0002020FFF763FF8D20FFF760FF1420FFF7FA
:1052F0005DFFAF20FFF75AFF0020FFF77DFFFFF7AC
:1053000089FF0022024B1A805A8001225A7108BD7F
:1053100024010020030610B51AD43F2918D80D4BDC
:105320001B7913B1B2FA82F25209CC08012A0A4B56
:1053300001F0070100EBC41004D18A40195C0A4354
:105340001A5410BD01228A40195C21EA0201195445
:1053500010BD00BF240100202A0100202DE9F04FDC
:1053600087B0074606A800E906009B46204B9DF83B
:1053700010901C88019304EB09027F2A36DC5B88BD
:105380009DF811A0009303EB0A023F2A2EDC0026B1
:10539000A7F120020AFB02F30393564506D3019BB3
:1053A0004C441C80384607B0BDE8F08F0025039BB5
:1053B0000599F21831F812300293009B03EB0608AE
:1053C0005FFA88F84D4501D30136E6E7029B2819BC
:1053D00003FA05F2130456BFBBFA8BF25A46520980
:1053E0004146C0B2FFF796FF0135EBE70027D9E74A
:1053F00024010020F7B51F466D468DE80600461EC5
:1054000074784CB195E8060020463B46FFF7A6FFAE
:1054100016F8014FA042F3D0204603B0F0BD0000C3
:10542000014B188059807047240100200E4B82B038
:105430009A6942F001029A619A6902F001020092AF
:10544000009ADA6942F08052DA61DB69074A03F0B8
:1054500080530193019B536823F0E06343F0007392
:10546000536002B0704700BF0010024000000140CE
:105470001FB502681F4B04469A4212D103F502334E
:10548000DA691E2042F00402DA610022DB6911466B
:1054900003F004030193019BFBF7C4FD1E20FBF7FF
:1054A000F5FD2268144B9A4212D103F564439A69C0
:1054B000192042F400629A6100229B69114603F4AC
:1054C00000630293029BFBF7ADFD1920FBF7DEFDA5
:1054D0002368B3F1804F0AD103F50433DA6942F04F
:1054E0000102DA61DB6903F001030393039B04B05B
:1054F00010BD00BF00080040002C014010B504465C
:1055000086B01022002102A800F076F92268114B23
:105510009A421DD1104C02A9A369104843F0080318
:10552000A361A36903F008030093009B4FF4406359
:1055300002931223039303230593FBF7D7FDE3693B
:1055400043F48003E361E36903F480030193019B67
:1055500006B010BD0058004000100240000C014091
:1055600010B5044686B01022002102A800F044F9CC
:105570002268184B9A4213D103F502339A6902A9A3
:1055800042F008029A619B69134803F008030093F4
:10559000009B40230293022303930593FBF7A6FD90
:1055A0002368B3F1804F13D103F504339A6902A93C
:1055B00042F004029A619B69084803F004030193D6
:1055C000019B07230293022303930593FBF78EFDB0
:1055D00006B010BD00080040000C0140000801406A
:1055E0000268114B10B59A42044607D10F4A1E209B
:1055F000D36923F00403D361FBF754FD22680C4BFD
:105600009A4207D1094A1920936923F400639361F0
:10561000FBF748FD2368B3F1804F01BF034AD3690C
:1056200023F00103D36110BD0008004000100240C8
:10563000002C01407047FEE7FEE7FEE7FEE77047FB
:1056400070477047FBF7B8BC0148FDF727B900BFAA
:105650006807002070B50E4615460C46A31B9D42F8
:1056600001DC284670BDAFF3008004F8010BF5E7BC
:1056700070B50E4615460C46A31B9D4201DC28461C
:1056800070BD14F8010BAFF30080F5E708B50A4BC5
:105690000246196809B9094919606946186802443F
:1056A0008A4206D900F064F80C2303604FF0FF3003
:1056B00008BD1A6008BD00BF2C0500207C19002021
:1056C0004FF0FF3070474FF4005300204B6070479D
:1056D00001207047002070470F4B1A6842F001020A
:1056E0001A6059680D4A0A405A601A6822F084729A
:1056F00022F480321A601A6822F480221A605A68F2
:1057000022F4FE025A604FF41F029A604FF00062CA
:10571000034B9A60704700BF001002400000FFF882
:1057200000ED00E0002103E00B4B5B5843500431D7
:105730000A480B4B42189A42F6D30A4A02E0002369
:1057400042F8043B084B9A42F9D3FFF7C5FF00F03B
:1057500015F8FFF713F870471872000800000020D2
:1057600088000020880000207C190020FEE700004F
:10577000014B1868704700BF2400002070B5002559
:105780000C4E0D4CA41BA410A54209D100F0F4FF4F
:1057900000250A4E0A4CA41BA410A54205D170BDD9
:1057A00056F8253098470135EEE756F825309847EA
:1057B0000135F2E71072000810720008107200083C
:1057C00014720008884210B501EB020303D8421E90
:1057D00099420CD110BD9842F9D28118D21AD34205
:1057E00000D110BD13F8014D01F8014DF7E711F894
:1057F000014B02F8014FEBE703460244934200D10C
:10580000704703F8011BF9E738B5084B05461C68DB
:1058100024B1A36913B9204600F07EF8A268294696
:105820002046BDE8384000F047BC00BF24000020FF
:105830000CB430B5174B0C1E9DB01D6808DA8B23D5
:105840004FF0FF302B601DB0BDE8304002B0704714
:105850004FF40273ADF814300CBF234604F1FF334C
:10586000049307934FF6FF7302900690ADF816303D
:10587000209A21AB02A92846019300F091F9431C1C
:10588000BCBF8B232B60002CDDD00022029B1A7042
:10589000D9E700BF24000020014900F0A9B800BFEB
:1058A000A1640008002310B50446036043608360D0
:1058B00081814366C2810361436183611946082285
:1058C0005C30FFF799FF054B24626362044BA362CF
:1058D000044BE362044B236310BD00BF4561000825
:1058E000676100089F610008C361000870B5682502
:1058F0004A1E55430E4605F1740100F097F8044620
:1059000040B1002180E842000C30A06005F168023F
:10591000FFF772FF204670BD836910B5044633BBA4
:105920008364C3640365124B124A1B688262984207
:1059300004BF0123836100F01FF86060204600F07F
:105940001BF8A060204600F017F80022E060042158
:105950006068FFF7A7FF01220921A068FFF7A2FFF7
:1059600002221221E068FFF79DFF0123A36110BD11
:105970007871000899580008F8B51C4B07461E6856
:10598000B36913B93046FFF7C7FF4836B468736888
:10599000013B03D5336833B13668F7E7B4F90C50EF
:1059A0006DB16834F4E704213846FFF79FFF30609B
:1059B0000028F1D10C2304463B602046F8BD4FF689
:1059C000FF73E38101236566A3812560A56065609F
:1059D00025616561A5610822294604F15C00FFF795
:1059E0000BFF6563A563A564E564E6E778710008CD
:1059F0002DE9F84380468946002600F1480414B991
:105A00003046BDE8F883A5686768013F01D5246882
:105A1000F5E7AB89012B07D9B5F90E30013303D077
:105A200029464046C84706436835EEE770B5CD1CA9
:105A300025F0030508350C2D38BF0C25002D064632
:105A400001DBA94203D90C233360002070BD00F0B4
:105A5000E0FD234A1468214691B9224C23681BB902
:105A6000304600F05FFB20602946304600F05AFBCC
:105A7000431C26D10C233046336000F0CBFDE4E715
:105A80000B685B1B1AD40B2B0FD90B60CC18CD50B5
:105A9000304600F0BFFD04F10B00231D20F007008D
:105AA000C31A1BD05A42E25070BD8C420BBF6368D0
:105AB0004B681360636018BF0C46E9E70C46496801
:105AC000CAE7C41C24F00304A04205D0211A3046C2
:105AD00000F028FB0130CDD02560D9E770BD00BFB4
