:020000040800F2
:1000000000500020E93D0008493D00084B3D000834
:100010004D3D00084F3D0008513D00080000000024
:10002000000000000000000000000000533D000838
:10003000553D000800000000573D0008593D0008EC
:10004000313E0008313E0008313E0008313E0008D4
:10005000313E0008313E0008313E0008313E0008C4
:10006000313E0008313E0008313E0008313E0008B4
:10007000313E0008313E0008313E0008313E0008A4
:10008000313E0008313E0008313E0008313E000894
:10009000313E0008313E0008313E0008313E000884
:1000A000313E000891370008313E0008313E00081B
:1000B000313E0008313E00085D3D0008313E000839
:1000C000313E0008313E0008313E0008313E000854
:1000D000313E0008313E0008313E0008313E000844
:1000E000313E0008313E0008313E000800000000AB
:1000F0000000000000000000000000000000000000
:0C01000000000000000000005FF808F1A3
:1001100010B5054C237833B9044B13B10448AFF341
:1001200000800123237010BD70000020000000003B
:100130007048000808B5034B1BB103490348AFF3EF
:10014000008008BD00000000740000207048000816
:10015000034613F8012B002AFBD1181A0138704707
:1001600081F0004102E000BF83F0004330B54FEA68
:1001700041044FEA430594EA050F08BF90EA020FD5
:100180001FBF54EA000C55EA020C7FEA645C7FEA68
:10019000655C00F0E2804FEA5454D4EB5555B8BF8B
:1001A0006D420CDD2C4480EA020281EA030382EAFC
:1001B000000083EA010180EA020281EA0303362D8E
:1001C00088BF30BD11F0004F4FEA01314FF4801C61
:1001D0004CEA113102D0404261EB410113F0004F73
:1001E0004FEA03334CEA133302D0524263EB43032A
:1001F00094EA050F00F0A780A4F10104D5F1200EC8
:100200000DDB02FA0EFC22FA05F2801841F1000122
:1002100003FA0EF2801843FA05F359410EE0A5F1F6
:1002200020050EF1200E012A03FA0EFC28BF4CF027
:10023000020C43FA05F3C01851EBE37101F00045DD
:1002400007D54FF0000EDCF1000C7EEB00006EEBEA
:100250000101B1F5801F1BD3B1F5001F0CD3490874
:100260005FEA30004FEA3C0C04F101044FEA4452CB
:1002700012F5800F80F09A80BCF1004F08BF5FEA52
:10028000500C50F1000041EB045141EA050130BD32
:100290005FEA4C0C404141EB010111F4801FA4F1D5
:1002A0000104E9D191F0000F04BF01460020B1FA2A
:1002B00081F308BF2033A3F10B03B3F120020CDA62
:1002C0000C3208DD02F1140CC2F10C0201FA0CF040
:1002D00021FA02F10CE002F11402D8BFC2F1200CA5
:1002E00001FA02F120FA0CFCDCBF41EA0C0190405B
:1002F000E41AA2BF01EB0451294330BD6FEA0404A4
:100300001F3C1CDA0C340EDC04F11404C4F120028E
:1003100020FA04F001FA02F340EA030021FA04F3A0
:1003200045EA030130BDC4F10C04C4F1200220FAF7
:1003300002F001FA04F340EA0300294630BD21FA35
:1003400004F0294630BD94F0000F83F4801306BFFB
:1003500081F480110134013D4EE77FEA645C18BFEF
:100360007FEA655C29D094EA050F08BF90EA020F86
:1003700005D054EA000C04BF1946104630BD91EA7E
:10038000030F1EBF0021002030BD5FEA545C05D181
:100390004000494128BF41F0004130BD14F58004C0
:1003A0003CBF01F5801130BD01F0004545F0FE4134
:1003B00041F470014FF0000030BD7FEA645C1ABF69
:1003C000194610467FEA655C1CBF0B46024650EAA0
:1003D000013406BF52EA033591EA030F41F40021CC
:1003E00030BD00BF90F0000F04BF0021704730B552
:1003F0004FF4806404F132044FF000054FF0000127
:1004000050E700BF90F0000F04BF0021704730B5E7
:100410004FF4806404F1320410F0004548BF4042BC
:100420004FF000013EE700BF42004FEAE2014FEA11
:1004300031014FEA02701FBF12F07F4393F07F4FEC
:1004400081F06051704792F0000F14BF93F07F4F1E
:10045000704730B54FF4607401F0004521F0004161
:1004600020E700BF50EA010208BF704730B54FF0E7
:1004700000050AE050EA010208BF704730B511F0EC
:10048000004502D5404261EB41014FF4806404F124
:1004900032045FEA915C3FF4DCAE4FF003025FEAA6
:1004A000DC0C18BF03325FEADC0C18BF033202EB2E
:1004B000DC02C2F1200300FA03FC20FA02F001FA88
:1004C00003FE40EA0E0021FA02F11444C1E600BF27
:1004D00070B54FF0FF0C4CF4E06C1CEA11541DBFDA
:1004E0001CEA135594EA0C0F95EA0C0F00F0DEF8A5
:1004F0002C4481EA030621EA4C5123EA4C5350EA8A
:10050000013518BF52EA033541F4801143F48013DA
:1005100038D0A0FB02CE4FF00005E1FB02E506F06B
:100520000042E0FB03E54FF00006E1FB03569CF0C0
:10053000000F18BF4EF0010EA4F1FF04B6F5007FC6
:1005400064F5407404D25FEA4E0E6D4146EB060638
:1005500042EAC62141EA55514FEAC52040EA5E50C1
:100560004FEACE2EB4F1FD0C88BFBCF5E06F1ED86B
:10057000BEF1004F08BF5FEA500E50F1000041EBA2
:10058000045170BD06F0004646EA010140EA02004F
:1005900081EA0301B4EB5C04C2BFD4EB0C0541EA71
:1005A000045170BD41F480114FF0000E013C00F386
:1005B000AB8014F1360FDEBF002001F0004170BDAA
:1005C000C4F10004203C35DA0C341BDC04F11404C3
:1005D000C4F1200500FA05F320FA04F001FA05F24F
:1005E00040EA020001F0004221F0004110EBD3701C
:1005F00021FA04F642EB06015EEA430E08BF20EA48
:10060000D37070BDC4F10C04C4F1200500FA04F3EA
:1006100020FA05F001FA04F240EA020001F000417C
:1006200010EBD37041F100015EEA430E08BF20EAEF
:10063000D37070BDC4F1200500FA05F24EEA020E37
:1006400020FA04F301FA05F243EA020321FA04F066
:1006500001F0004121FA04F220EA020000EBD3701D
:100660005EEA430E08BF20EAD37070BD94F0000F1D
:100670000FD101F00046400041EB010111F4801F51
:1006800008BF013CF7D041EA060195F0000F18BF02
:10069000704703F00046520043EB030313F4801F3E
:1006A00008BF013DF7D043EA0603704794EA0C0FF8
:1006B0000CEA135518BF95EA0C0F0CD050EA41060E
:1006C00018BF52EA4306D1D181EA030101F000418B
:1006D0004FF0000070BD50EA410606BF10461946B3
:1006E00052EA430619D094EA0C0F02D150EA0136BF
:1006F00013D195EA0C0F05D152EA03361CBF104600
:1007000019460AD181EA030101F0004141F0FE419E
:1007100041F470014FF0000070BD41F0FE4141F422
:10072000780170BD70B54FF0FF0C4CF4E06C1CEA22
:1007300011541DBF1CEA135594EA0C0F95EA0C0FD7
:1007400000F0A7F8A4EB050481EA030E52EA033592
:100750004FEA013100F088804FEA03334FF08055B3
:1007600045EA131343EA12634FEA022245EA1115E0
:1007700045EA10654FEA00260EF000419D4208BF91
:10078000964244F1FD0404F5407402D25B084FEA3E
:100790003202B61A65EB03055B084FEA32024FF4EA
:1007A00080104FF4002CB6EB020E75EB030E22BF47
:1007B000B61A754640EA0C005B084FEA3202B6EB07
:1007C000020E75EB030E22BFB61A754640EA5C00B6
:1007D0005B084FEA3202B6EB020E75EB030E22BF46
:1007E000B61A754640EA9C005B084FEA3202B6EB47
:1007F000020E75EB030E22BFB61A754640EADC0006
:1008000055EA060E18D04FEA051545EA16754FEA67
:1008100006164FEAC30343EA52734FEAC2025FEA85
:100820001C1CC0D111F4801F0BD141EA00014FF014
:1008300000004FF0004CB6E711F4801F04BF0143E5
:100840000020B4F1FD0C88BFBCF5E06F3FF6AFAE01
:10085000B5EB030C04BFB6EB020C5FEA500C50F191
:10086000000041EB045170BD0EF0004E4EEA113114
:1008700014EB5C04C2BFD4EB0C0541EA045170BD1B
:1008800041F480114FF0000E013C90E645EA060E5F
:100890008DE60CEA135594EA0C0F08BF95EA0C0F8D
:1008A0003FF43BAF94EA0C0F0AD150EA01347FF4D5
:1008B00034AF95EA0C0F7FF425AF104619462CE7AC
:1008C00095EA0C0F06D152EA03353FF4FDAE10460F
:1008D000194622E750EA410618BF52EA43067FF460
:1008E000C5AE50EA41047FF40DAF52EA43057FF4F0
:1008F000EBAE12E74FF0FF3C06E000BF4FF0010CFB
:1009000002E000BF4FF0010C4DF804CD4FEA410C5E
:100910007FEA6C5C4FEA430C18BF7FEA6C5C1BD02B
:1009200001B050EA410C0CBF52EA430C91EA030FAC
:1009300002BF90EA020F0020704710F1000F91EA09
:10094000030F58BF994208BF90422CBFD8176FEAD7
:10095000E37040F0010070474FEA410C7FEA6C5CA5
:1009600002D150EA013C07D14FEA430C7FEA6C5CAC
:10097000D6D152EA033CD3D05DF8040B704700BFD8
:100980008446104662468C461946634600E000BF26
:1009900001B5FFF7B7FF002848BF10F1000F01BDF8
:1009A0004DF808EDFFF7F4FF0CBF012000205DF8C3
:1009B00008FB00BF4DF808EDFFF7EAFF34BF012048
:1009C00000205DF808FB00BF4DF808EDFFF7E0FFE1
:1009D00094BF012000205DF808FB00BF4DF808ED32
:1009E000FFF7CEFF94BF012000205DF808FB00BF99
:1009F0004DF808EDFFF7C4FF34BF012000205DF87B
:100A000008FB00BF4FEA410212F5001215D211D5C2
:100A10006FF47873B3EB625212D94FEAC12343F0FB
:100A2000004343EA505311F0004F23FA02F018BF7D
:100A3000404270474FF00000704750EA013005D146
:100A400011F0004008BF6FF0004070474FF0000009
:100A5000704700BF80F0004002E000BF81F000411D
:100A600042001FBF5FEA410392EA030F7FEA226C54
:100A70007FEA236C6AD04FEA1262D2EB1363C1BFE4
:100A8000D218414048404140B8BF5B42192B88BF53
:100A9000704710F0004F40F4000020F07F4018BF76
:100AA000404211F0004F41F4000121F07F4118BF96
:100AB000494292EA030F3FD0A2F1010241FA03FC3E
:100AC00010EB0C00C3F1200301FA03F100F0004326
:100AD00002D5494260EB4000B0F5000F13D3B0F1EE
:100AE000807F06D340084FEA310102F10102FE2A5D
:100AF00051D2B1F1004F40EBC25008BF20F00100CD
:100B000040EA03007047490040EB000010F4000F7A
:100B1000A2F10102EDD1B0FA80FCACF1080CB2EB0D
:100B20000C0200FA0CF0AABF00EBC250524218436C
:100B3000BCBFD0401843704792F0000F81F4000111
:100B400006BF80F400000132013BB5E74FEA4103E4
:100B50007FEA226C18BF7FEA236C21D092EA030F50
:100B600004D092F0000F08BF0846704790EA010FCA
:100B70001CBF0020704712F07F4F04D1400028BFF7
:100B800040F00040704712F100723CBF00F50000D9
:100B9000704700F0004343F0FE4040F4000070470F
:100BA0007FEA226216BF08467FEA236301464202BB
:100BB00006BF5FEA412390EA010F40F480007047CE
:100BC0004FF0000304E000BF10F0004348BF404274
:100BD0005FEA000C08BF704743F0964301464FF0B0
:100BE00000001CE050EA010208BF70474FF000030C
:100BF0000AE000BF50EA010208BF704711F000434D
:100C000002D5404261EB41015FEA010C02BF84461C
:100C10000146002043F0B64308BFA3F18053A3F57B
:100C20000003BCFA8CF2083AA3EBC25310DB01FAC2
:100C300002FC634400FA02FCC2F12002BCF1004F46
:100C400020FA02F243EB020008BF20F001007047D7
:100C500002F1200201FA02FCC2F1200250EA4C002B
:100C600021FA02F243EB020008BF20EADC70704771
:100C70004FF0FF0C1CEAD0521EBF1CEAD15392EA7F
:100C80000C0F93EA0C0F6FD01A4480EA010C40025B
:100C900018BF5FEA41211ED04FF0006343EA5010B5
:100CA00043EA5111A0FB01310CF00040B1F5000FF7
:100CB0003EBF490041EAD3715B0040EA010062F1A6
:100CC0007F02FD2A1DD8B3F1004F40EBC25008BF90
:100CD00020F00100704790F0000F0CF0004C08BFAE
:100CE00049024CEA502040EA51207F3AC2BFD2F17B
:100CF000FF0340EAC250704740F400004FF0000389
:100D0000013A5DDC12F1190FDCBF00F000407047C2
:100D1000C2F10002410021FA02F1C2F1200200FA00
:100D200002FC5FEA310040F1000053EA4C0308BFC7
:100D300020EADC70704792F0000F00F0004C02BF18
:100D4000400010F4000F013AF9D040EA0C0093F093
:100D5000000F01F0004C02BF490011F4000F013BED
:100D6000F9D041EA0C018FE70CEAD15392EA0C0F5B
:100D700018BF93EA0C0F0AD030F0004C18BF31F0C6
:100D8000004CD8D180EA010000F00040704790F09C
:100D9000000F17BF90F0004F084691F0000F91F040
:100DA000004F14D092EA0C0F01D142020FD193EA06
:100DB0000C0F03D14B0218BF084608D180EA01008E
:100DC00000F0004040F0FE4040F40000704740F06A
:100DD000FE4040F4400070474FF0FF0C1CEAD05238
:100DE0001EBF1CEAD15392EA0C0F93EA0C0F69D094
:100DF000A2EB030280EA010C49024FEA402037D0FF
:100E00004FF0805343EA111143EA10130CF00040F5
:100E10008B4238BF5B0042F17D024FF4000C8B42E5
:100E200024BF5B1A40EA0C00B3EB510F24BFA3EBC5
:100E3000510340EA5C00B3EB910F24BFA3EB910395
:100E400040EA9C00B3EBD10F24BFA3EBD10340EAEF
:100E5000DC001B0118BF5FEA1C1CE0D1FD2A3FF635
:100E600050AF8B4240EBC25008BF20F001007047EA
:100E70000CF0004C4CEA50207F32C2BFD2F1FF038D
:100E800040EAC250704740F400004FF00003013ABE
:100E900037E792F0000F00F0004C02BF400010F462
:100EA000000F013AF9D040EA0C0093F0000F01F076
:100EB000004C02BF490011F4000F013BF9D041EA98
:100EC0000C0195E70CEAD15392EA0C0F08D14202CB
:100ED0007FF47DAF93EA0C0F7FF470AF084676E79E
:100EE00093EA0C0F04D14B023FF44CAF08466EE777
:100EF00030F0004C18BF31F0004CCAD130F0004245
:100F00007FF45CAF31F000437FF43CAF5FE700BF9C
:100F100038B50E4B054618784FF47A73B3FBF0F3EF
:100F20000B4A1068B0FBF3F000F0ACF8044658B977
:100F30000F2D09D8024629464FF0FF3000F054F833
:100F4000044B20461D6038BD012038BD0000002044
:100F50000800002004000020074A08B51368032099
:100F600043F01003136000F02DF80020FFF7D0FFCE
:100F700002F0DAFD002008BD00200240034A044BC5
:100F800011681B780B441360704700BF9800002065
:100F900000000020014B1868704700BF9800002037
:100FA00038B50446FFF7F6FF0546631C1EBF044B29
:100FB0001B78E418FFF7EEFF401B8442FAD838BDD7
:100FC00000000020074A0002D36800F4E06023F428
:100FD000E0631B041B0C43F0BF6343F40033034383
:100FE000D360704700ED00E0174B30B5DC68C4F308
:100FF0000224C4F10703251D042B28BF0423062D5A
:101000004FF0010598BF002405FA03F303F1FF3305
:1010100088BF033C1940A14005FA04F4013C22407A
:10102000002842EA01024FEA0212AFBF00F160401D
:10103000064B00F00F00D2B2A5BFD2B200F561405E
:101040001A5480F8002330BD00ED00E014ED00E0FC
:101050000123420900F01F0003FA00F0014B43F89E
:101060002200704700E100E00122430900F01F0068
:1010700002FA00F0024A203342F82300704700BF12
:1010800000E100E00138B0F1807F0AD2F021064B88
:10109000064A586082F823100020072298601A60E0
:1010A00070470120704700BF10E000E000ED00E055
:1010B0002DE9F74F00221646654BDFF8A4E1DFF873
:1010C000A4C14FF001080C6808FA06F808EA040405
:1010D000A0457FD14D68122D00F0AF8000F28880CE
:1010E000022D00F0A7807CD8002D00F08E80012D0D
:1010F00000F09E804FF00F09FF2C93BF824606F14F
:101100008045083DD0F800B092BFB500D0F804B0DB
:10111000AD0009FA05F82BEA080802FA05F588BFC0
:1011200000F1040A48EA0505CAF80050D1F804A005
:101130001AF0805F4ED0474D464FAD6926F0030848
:1011400045F00105BD61BD6908F1804805F0010564
:10115000019508F5803806F0030B019D4FEA8B0BD3
:10116000D8F8085009FA0BF925EA09093A4DA842BE
:1011700068D005F58065A84266D005F58065A8426F
:1011800064D005F58065A8420CBF0325042505FA47
:101190000BF545EA0905C8F808501D681AF4803FA8
:1011A00014BF2543A5431D605D681AF4003F14BFBA
:1011B0002543A5435D609D681AF4801F14BF254335
:1011C000A5439D60DD681AF4001F14BF2C4325EA77
:1011D0000404DC600136102E7FF473AF03B0BDE869
:1011E000F08F032D22D0112D84D1CA68043281E7FB
:1011F0001A4FBD4209D012D8DFF86C904D4504D08B
:1012000009F580394D457FF475AF8A68C2B1012A6E
:101210000CBFC0F81080C0F8148008226AE775453A
:10122000F3D06545F1D0DFF84490EBE7002261E7A9
:10123000CA685FE7CA6808325CE7CA680C3259E7D7
:10124000042257E70025A2E70125A0E702259EE733
:10125000000401400010024000080140000021107D
:1012600000003110000032100000111000002210A8
:101270008368194214BF0120002070470268536937
:1012800013F480630DD06FF4806353610423202234
:1012900003640023036380F83C3080F83D20012084
:1012A0007047184670472DE9F8430446174699469B
:1012B000C1F307488EB22568B8F1010F0CBF6B6906
:1012C000AB6936EA030314BF0120002008B9BDE86A
:1012D000F8836B695A0512D52B68202243F40073FA
:1012E0002B606FF480636B6104232364002301206F
:1012F000236384F83C3084F83D20BDE8F8837B1CF0
:10130000D9D04FB900232022236384F83C3084F8DD
:101310003D200320BDE8F883FFF73CFEA0EB090069
:101320008742C8D2EEE72DE9F843044690461F46AF
:10133000089EC1F307498DB22368B9F1010F0CBFB4
:101340005B699B6935EA03030CBF01230023434516
:1013500002D00020BDE8F8837B1CEDD05FB90023EC
:101360002022236384F83C3084F83D20032084F855
:101370003E30BDE8F883FFF70DFE801B8742DBD2CD
:10138000EDE770B504460D46164623685B691B06FB
:1013900001D5002070BD2046FFF770FFA8B96A1C78
:1013A000F3D065B9236C202243F02003236400238B
:1013B0000320236384F83C3084F83D2070BDFFF7A0
:1013C000E9FD801B8542E0D2ECE7012070BD70B5DD
:1013D00004460D4616462068436913F0400301D0C9
:1013E000002070BD4269D2060BD56FF01002426139
:1013F0002022236484F83C302363012084F83D20BC
:1014000070BD5DB9236C032043F0200323642023C7
:1014100084F83D30002384F83C3070BDFFF7BAFDFE
:10142000801B8542D7D2EDE770B504460D461646BF
:1014300023685B695B0701D5002070BD2046FFF77C
:101440001DFFA8B96A1CF3D065B9236C202243F0B4
:101450002003236400230320236384F83C3084F8B2
:101460003D2070BDFFF796FD801B8542E0D2ECE782
:10147000012070BD38B5044608B9012038BD90F888
:101480003D3003F0FF021BB980F83C2002F0A4FBC2
:101490002423226884F83D30136823F0010313608D
:1014A00000F040FD63682F4A934230D82E4A9042A4
:1014B000E3D92E4A2168B0FBF2F24A6001320A6297
:1014C000284A0138934232D85B00B0FBF3F0431C4A
:1014D000C3F30B03042B38BF0423CB61226AE369F7
:1014E000002013430B60E268236913438B60A269F9
:1014F00063691343CB600B6843F001030B60202347
:10150000206484F83D30206384F83E0038BD184ADA
:101510009042B2D9154D4FF49672B0FBF5F52168A3
:101520006A434D604FF47A75B2FBF5F2C6E7A268E4
:1015300052B903EB4303B0FBF3F0431CC3F30B03BB
:101540006BB143F40043C8E719225343B0FBF3F0F7
:10155000431CC3F30B0313B143F44043BDE7012322
:10156000BBE700BFA08601007F841E0040420F0041
:10157000FF083D002DE9FF4104461F460D469046F9
:10158000FFF708FD94F83D300646202B04D00225D5
:10159000284604B0BDE8F0810090192301225D497E
:1015A0002046FFF7C0FE0028F1D194F83C30012B13
:1015B000EDD0012384F83C3023681A68D2075EBF5F
:1015C0001A6842F001021A601A6822F400621A6076
:1015D000212284F83D20102284F83E20002222643B
:1015E000A2F580326785E262628DC4F8248022858C
:1015F000E26A042A04D0012A02D012F5803F04D105
:101600001A6842F480721A6002E0226B122AF7D044
:1016100000960A9B00224FF001112046FFF783FE3F
:1016200028BB23692268B3F5804F12D105F0FE056F
:10163000156133460A9A38492046FFF734FE0546BD
:10164000A0B9236803905A6903929B690393039B93
:1016500050E0EB1103F0060343F0F00313612F4950
:1016600033460A9A2046FFF71EFE48B1236C236CCE
:10167000042B4FF0000307D184F83C30012587E7A5
:101680002368EDB21D61D4E784F83C3003257FE781
:1016900032460A992046FFF774FE40B1236C042BB2
:1016A000F4D12268136843F400731360E6E7616ABB
:1016B00020684B1C63620B78228D0361638D013BB4
:1016C0009BB263854769531E9BB27F0723850AD56A
:1016D0004BB18B1C63624B78023A0361638D2285A8
:1016E000013B9BB2638532460A992046FFF79CFE78
:1016F0000028D3D1238D002BCAD121680A6842F477
:1017000000720A60202284F83C3084F83D2084F87E
:101710003E303DE702001000020001000800010019
:101720002DE9F043044689B098460D469146109F36
:10173000FFF730FC94F83D300646202B04D00225FC
:10174000284609B0BDE8F083009019230122A24980
:101750002046FFF7E8FD0028F1D194F83C30012B3A
:10176000EDD0012384F83C3023681A68D2075EBFAD
:101770001A6842F001021A601A6822F400621A60C4
:10178000222284F83D20102284F83E200022226488
:10179000A2F58032A4F82A80E262628DC4F8249017
:1017A0002285E26A1968042A41F48061196004D034
:1017B000012A02D012F5803F04D11A6842F48072E7
:1017C0001A6002E0226B112AF7D000963B460022F5
:1017D0004FF001112046FFF7A6FD00284DD12369E7
:1017E000B3F5804F236839D145F00105EDB21D6195
:1017F00033463A4679492046FFF755FD054600280D
:101800003AD1228D2368002A69D0012A7AD11A6838
:1018100022F480621A6072B6236804955A690492B1
:101820009A690492049A1A6842F400721A6062B6C5
:10183000DFF8B081238D002B5BD0032B00F2D48026
:10184000012B7BD1324639462046FFF7C0FD0028E8
:1018500000F09380236C202B16D13EE04FEAE51870
:1018600008F0060848F0F0021A615D4933463A462E
:101870002046FFF718FD48B1236C236C042B4FF072
:10188000000328D184F83C30012559E72368EDB2E4
:101890001D613A46334651492046FFF704FD024692
:1018A0000028E9D123680790596920460791996972
:1018B00007910799196841F48071196000963B46B9
:1018C0004FF00111FFF72FFD0028D6D1226848F014
:1018D000F10313618CE784F83C30032530E703956E
:1018E0005A6903929A690392039A1A6842F4007241
:1018F0001A60202384F83D30002384F83E3084F8B9
:101900003C301DE7022A1A680ED142F400621A60C8
:1019100072B6236805955A6905929A690592059AE7
:101920001A6822F4806281E742F480621A600695A8
:101930005A6906929B690693069B79E7022B0096EB
:101940003B464FF000024146204624D1FFF7EBFC16
:101950000028C2D172B623681A6842F400721A6075
:10196000626A1B69511C61621370238D013B2385E0
:10197000638D013B9BB2638562B6636A5A1C6262E7
:10198000226812691A70238D013B2385638D013B08
:101990009BB263854EE7FFF7C6FC024600289CD148
:1019A00021680B6823F480630B6072B6636A20467B
:1019B000591C6162216809691970238D0096013BE9
:1019C0002385638D4146013B9BB263853B46FFF710
:1019D000AAFC0028BFD080E702001000020001002E
:1019E0000800010004000100324639462046FFF796
:1019F000EEFC00287FF42EAF636A5A1C62622268F4
:101A000012691A70238D2268013B2385638D013B87
:101A10009BB2638553695B077FF50CAF636A591C02
:101A20006162AEE790F83D007047006C70470000BF
:101A300003682DE9F341DB07054610D42B689F07A7
:101A40005ED42B68190700F195802B685A0700F1C6
:101A5000BF80EA69002A40F02D81002014E0904CFC
:101A6000636803F00C03042B07D0636803F00C03D6
:101A7000082B0CD16368DE0309D523689C03DDD5F0
:101A80006B68002BDAD1012002B0BDE8F0816B68F1
:101A9000B3F5803F10D1236843F480332360FFF710
:101AA00079FA064623689803C8D4FFF773FA801BB7
:101AB0006428F7D90320E7E79BB9236823F4803330
:101AC0002360236823F480232360FFF763FA06462C
:101AD00023689903B2D5FFF75DFA801B6428F7D914
:101AE000E8E7B3F5A02F236803D143F480232360F4
:101AF000D1E723F480332360236823F48023CDE7E8
:101B0000674C636813F00C0F07D0636803F00C0395
:101B1000082B10D16368DA030DD423689B0702D524
:101B20002B69012BAFD123686A6923F0F80343EADC
:101B3000C203236085E72A695A4B6AB101221A6001
:101B4000FFF728FA064623689F07ECD4FFF722FA2E
:101B5000801B0228F7D9ADE71A60FFF71BFA06468B
:101B6000236898077FF56DAFFFF714FA801B0228F2
:101B7000F6D99FE7AA694A4C4B4BDAB101221A60A9
:101B8000FFF708FA0646636A9B070DD54FF4FA5231
:101B9000464B1B68B3FBF2F3019300BF019B5A1E37
:101BA0000192002BF9D150E7FFF7F4F9801B0228CE
:101BB000E9D97FE71A60FFF7EDF90646636A9F07E8
:101BC0007FF543AFFFF7E6F9801B0228F6D971E7EE
:101BD000334CE369D80024D40127E36943F08053F0
:101BE000E361E36903F080530093009B304E336858
:101BF000D90518D5EB68012B26D1236A43F00103E0
:101C00002362FFF7C7F941F288368046236A9B07B3
:101C10003FD5002F3FF41DAFE36923F08053E3610C
:101C200017E70027E2E7336843F480733360FFF778
:101C3000B1F980463368DA05DCD4FFF7ABF9A0EBE5
:101C400008006428F6D935E7ABB9236A41F2883831
:101C500023F001032362236A23F004032362FFF7C6
:101C600099F90646236A9807D3D5FFF793F9801BA5
:101C70004045F7D91EE7052B236A03D143F004033F
:101C80002362BAE723F001032362236A23F00403EB
:101C9000B6E7FFF77FF9A0EB0800B042B6D909E735
:101CA000001002400000424280044242080000202E
:101CB00000700040224C636803F00C03082B3FF4D3
:101CC000E2AE00231F4E022A33602BD1FFF762F9E8
:101CD0000746236899011FD42B6AB3F5803F05D1CD
:101CE0006268A96822F400320A436260696A626825
:101CF0000B4322F474121343636001233360FFF734
:101D000049F9054623689A013FF5A7AEFFF742F966
:101D1000401B0228F6D9CDE6FFF73CF9C01B02288C
:101D2000D7D9C7E6FFF736F9054623689B017FF54B
:101D300094AEFFF72FF9401B0228F6D9BAE600BF90
:101D4000001002406000424230B5194B87B002AC2F
:101D500003F11005224618685968083303C2AB42E4
:101D60001446F7D101238DF80430022311498DF870
:101D700005304B6803F00C02082A17D1C3F38342E5
:101D800006A80244DB0312F8102C0CD54B680A4855
:101D9000C3F34043504306AA134413F8143CB0FB6A
:101DA000F3F007B030BD05485043FAE70248F8E7C2
:101DB000884800080010024000127A0000093D0027
:101DC000544A2DE9F0411368054603F007038B429E
:101DD0000E462AD329688C0734D4CA0747D44D4A03
:101DE000136803F007039E42C0F082802A684A4CC1
:101DF00012F0040F40F08780130706D563682A6944
:101E000023F4605343EAC2036360FFF79DFF6368F6
:101E1000424AC3F30313D35CD840414B18600020FF
:101E2000FFF776F80020BDE8F081136823F0070380
:101E30000B431360136803F007039942CAD00120D3
:101E4000BDE8F081344B11F0040F1EBF5A6842F414
:101E5000E0625A60080742BF5A6842F460525A6012
:101E60005A68A86822F0F00202435A60B5E76A682F
:101E7000294C012A23681CD113F4003FDFD063688A
:101E800041F2883823F0030313436360FFF782F8BD
:101E90006B680746012B14D1636803F00C03042B15
:101EA0009DD0FFF777F8C01B4045F5D90320BDE86A
:101EB000F081022A02D113F0007FDFE713F0020F56
:101EC000DCE7022B0FD1636803F00C03082B86D0EC
:101ED000FFF760F8C01B4045F5D9E7E7FFF75AF870
:101EE000C01B4045E2D8636813F00C0FF6D176E7CB
:101EF000136823F0070333431360136803F00703E9
:101F00009E429CD172E76368E96823F4E0630B4367
:101F1000636071E70020024000100240C2490008DF
:101F200008000020044B054A5B68C3F30223D35C1E
:101F3000034A1068D840704700100240D249000898
:101F400008000020044B054A5B68C3F3C223D35C3E
:101F5000034A1068D840704700100240D249000878
:101F600008000020036A70B523F001030362036ACE
:101F7000446882690D6822F073022A438D6823F059
:101F800002032B430A4DA8420BD1CD6823F008036E
:101F90002B438E694D6924F44074354323F00403C8
:101FA0002C43446082614A684263036270BD00BF93
:101FB000002C0140036A70B523F480730362036A46
:101FC0004468C2690D6822F073022A438D6823F4C5
:101FD000007343EA05230B4DA8420DD1CD6823F4CD
:101FE000006343EA05238E694D6924F44054354368
:101FF00023F4806344EA05144460C2614A68C26302
:10200000036270BD002C0140036A30B523F4805395
:102010000362036A4468C2690D6822F4E64242EA38
:1020200005228D6823F4005343EA0533064DA84288
:1020300002BF4D6924F4804444EA85144460C261BF
:102040004A680264036230BD002C0140022341F261
:10205000111210B580F83D3003680446196A114228
:1020600008D140F24442196A114202BF1A6822F0B4
:1020700001021A60204601F007FE002084F83D00AE
:1020800084F83C0010BD03680020DA6842F00102C9
:10209000DA601A6842F001021A607047704790F8DF
:1020A0003C3070B5012B4FF002031CD0012280F8A8
:1020B0003D30036880F83C209A6822F47F4222F089
:1020C00077029A600A68402A79D019D8102A00F05D
:1020D00093800AD8002A00F08980012380F83D30DF
:1020E000002380F83C30184670BD202A00F08A801A
:1020F000302AF2D19A6822F0700242F0370236E0BC
:10210000702A36D01BD8502A42D0602AE5D11C6AEA
:102110004D6824F01004CE681C6299691A6A21F493
:10212000704122F0A00242EA051241EA06319961AB
:102130001A629A6822F0700242F0670217E0B2F564
:10214000805F11D0B2F5005FC7D18A684D689C6886
:10215000C9682A4324F47F4442EA012222439A6058
:102160009A6842F4804202E09A6822F007029A607C
:10217000B3E78A684D689C68C9682A4324F47F44A1
:1021800042EA012222439A609A6842F07702EEE71F
:102190004C68CE68196A1D6A21F00A0125F0010514
:1021A0001D629A69214322F0F00242EA06129A6106
:1021B00019629A6822F0700242F05702D7E74C6821
:1021C000CE68196A1D6A21F00A0125F001051D6219
:1021D0009A69214322F0F00242EA06129A611962DA
:1021E0009A6822F0700242F04702C0E79A6822F033
:1021F000700242F00702BAE79A6822F0700242F0D9
:102200001702B4E79A6822F0700242F02702AEE7A4
:102210007047704770477047036810B51A690446E5
:1022200091070ED5DA6892070BD56FF002021A619A
:1022300001229B6902779B0777D0FFF7EAFF002313
:10224000237723681A69500710D5DA6851070DD52E
:102250006FF004021A6102229B69227713F4407F17
:10226000204668D0FFF7D5FF0023237723681A693B
:1022700012070FD5DA6810070CD56FF008021A6143
:102280000422DB692277990720465AD0FFF7C1FF65
:102290000023237723681A69D20610D5DA68D0069E
:1022A0000DD56FF010021A610822DB69227713F452
:1022B000407F20464BD0FFF7ACFF002323772368F5
:1022C0001A69D10708D5DA68D20705D56FF001027F
:1022D00020461A6100F0B0FA23681A69100608D582
:1022E000DA68110605D56FF0800220461A6100F009
:1022F00052F923681A69520608D5DA68500605D5DE
:102300006FF0400220461A61FFF785FF23681A69C3
:10231000910622D5DA6892061FD56FF0200220467A
:10232000BDE810401A6100F035B9FFF771FF204693
:10233000FFF770FF83E7FFF76BFF2046FFF76AFFA9
:1023400092E7FFF765FF2046FFF764FFA0E7FFF77E
:102350005FFF2046FFF75EFFAFE710BD1A4A036834
:1023600090420AD0B0F1804F07D0A2F5943290424B
:1023700003D002F58062904215D14A6823F07003C1
:102380001343114A90420AD0B0F1804F07D0A2F512
:102390009432904203D002F58062904203D1CA6821
:1023A00023F4407313434A6923F08003134303600B
:1023B0008B68C3620B688362034B984204BF0B694E
:1023C0000363012343617047002C014010B50446AC
:1023D000A0B190F83D3003F0FF021BB980F83C201B
:1023E00001F0C4FB0223206884F83D30211DFFF773
:1023F000B5FF0123002084F83D3010BD012010BD41
:1024000010B50446A0B190F83D3003F0FF021BB9AF
:1024100080F83C20FFF742FE0223206884F83D301C
:10242000211DFFF79BFF0123002084F83D3010BDE4
:10243000012010BD036A70B523F010030362036A24
:10244000446882690D6822F4E64242EA05228D68FA
:1024500023F0200343EA05130B4DA8420DD1CD68AC
:1024600023F0800343EA05138E694D6924F4406428
:10247000354323F0400344EA8504446082614A689E
:102480008263036270BD00BF002C014038B590F834
:102490003C300446012B4FF0020025D0012384F884
:1024A0003D0084F83C300C2A18D8DFE802F007170A
:1024B00017171E1717172F17171740002068FFF759
:1024C00051FD236809699A6942F008029A619A6984
:1024D00022F004029A619A690A439A61012300205A
:1024E00084F83D3084F83C0038BD2068FFF7A2FF37
:1024F000236809699A6942F400629A619A6922F430
:1025000080629A619A6942EA0122E6E72068FFF751
:1025100051FD23680969DA6942F00802DA61DA6973
:1025200022F00402DA61DA690A43DA61D6E7206848
:10253000FFF76AFD23680969DA6942F40062DA612B
:10254000DA6922F48062DA61DA6942EA0122ECE7B0
:1025500090F83C3010B5012B4FF0020318D080F8F2
:102560003D3003680C685A68496822F070025A606E
:102570005A6822435A609A6822F080029A609A68E8
:102580000A439A60012380F83D30002380F83C30F4
:10259000184610BD704770472DE9F0470568C268BE
:1025A0002B69016923F4405313432B618368EA6864
:1025B0000B43416922F4B05222F00C020B43134347
:1025C000EB606B69826923F4407313436B61404B8A
:1025D00081469D424FF0190446D1FFF7B3FC04FB3E
:1025E00000F3D9F804604FF06408B600B3FBF6F3CB
:1025F000B3FBF8F31E01FFF7A5FC6043D9F80430E4
:102600009B00B0FBF3F7FFF79DFC6043D9F8043063
:102610009B00B0FBF3F3B3FBF8F308FB13731B0150
:102620003233B3FBF8F303F0F007FFF78BFC6043A2
:10263000D9F804209200B0FBF2FAFFF783FC604364
:10264000D9F804309B00B0FBF3F3B3FBF8F308FBBD
:1026500013A31B013233B3FBF8F303F00F033B4327
:102660003344AB60BDE8F087FFF75CFC04FB00F38C
:10267000D9F804604FF06408B600B3FBF6F3B3FB7F
:10268000F8F31E01FFF74EFC6043D9F804309B00BD
:10269000B0FBF3F7FFF746FC6043D9F804309B002A
:1026A000B0FBF3F3B3FBF8F308FB13731B013233F6
:1026B000B3FBF8F303F0F007FFF734FC6043D9F8FD
:1026C00004209200B0FBF2FAFFF72CFCB7E700BF42
:1026D00000380140F8B504460E4617461D462168ED
:1026E0000B6836EA030301D10020F8BD6B1CF7D05C
:1026F00095B923680320DA6822F4D072DA605A6947
:1027000022F001025A61202384F8393084F83A30EB
:10271000002384F83830F8BDFEF73CFCC01B85422E
:10272000DDD2E6E710B5044640B390F8393003F047
:10273000FF021BB980F8382001F0CAFA242322686E
:1027400084F83930D368204623F40053D360FFF770
:1027500023FF236800201A6922F490421A615A6903
:1027600022F02A025A61DA6842F40052DA60202329
:10277000E06384F8393084F83A3010BD012010BD90
:102780002DE9F0411F4690F839300446202B0D46C4
:1027900090464ED1002949D0002A47D090F83830D1
:1027A000012B46D0012380F838300023C363212356
:1027B00080F83930FEF7EEFB0646A4F82480A4F832
:1027C0002680E38C9BB26BB93B46324640212046C3
:1027D000FFF780FFA8B9202384F8380084F8393047
:1027E000BDE8F081E38C3246013B9BB2E384A368F1
:1027F0008021B3F5805F20463B460ED1FFF76AFF8C
:1028000010B10320BDE8F0812B882268C3F30803D0
:102810005360236943B90235D3E7FFF75BFF002814
:10282000EFD123682A785A600135CAE70120BDE854
:10283000F0810220BDE8F08108B5274B834245D1E5
:1028400020212648FEF714FD254B5A88013292B20A
:102850005A805A781A78023A042A37D8DFE802F008
:10286000031B2C343700002830D15A8892B2632AD7
:1028700001D8588008BD83F8040258705A78D2B243
:10288000511CC9B25970598803EB420289B2918038
:10289000588003220EE0012818D15A78D2B2511C78
:1028A000C9B25970598803EB420289B29180002263
:1028B0005A8004221A7009E00028DFD05A8892B2A8
:1028C000642A03D90522F5E70028D2D008BD0122E9
:1028D00083F80422F6E700BFD0020020000C01407C
:1028E0009C000020D0B504460846FDF78BFD002271
:1028F000114B06460F46FDF7EBFD00220F4BFDF78F
:1029000011FFFEF77FF8A04214DC00220C4B30468A
:102910003946FDF7DDFD0022084BFDF703FF0022DD
:10292000084BFDF723FCFEF76DF88442CCBF002076
:102930000120D0BD0020D0BD0000E83F000049408C
:102940000000F43F0000F03FD0B5044601F1640000
:10295000FDF758FD0022124B06460F46FDF7B8FD65
:102960000022104BFDF7DEFEFEF74CF8A04214DC0F
:1029700000220D4B30463946FDF7AAFD0022094BD7
:10298000FDF7D0FE0022094BFDF7F0FBFEF73AF809
:102990008442CCBF00200120D0BD0020D0BD00BFAC
:1029A0000000E83F000049400000F43F0000F03F15
:1029B000D0B50446A1F16400FDF724FD0022124BBE
:1029C00006460F46FDF784FD0022104BFDF7AAFED8
:1029D000FEF718F8A04214DC00220D4B30463946B1
:1029E000FDF776FD0022094BFDF79CFE0022094B06
:1029F000FDF7BCFBFEF706F88442CCBF00200120A7
:102A0000D0BD0020D0BD00BF0000E83F000049401D
:102A10000000F43F0000F03F30B5184C87B000F0E4
:102A2000F5F82046FFF712FB0021102202A801F062
:102A30002BFA4723124A002584E80C003123204654
:102A4000E36000950195A5602561A561FFF7BEFCD7
:102A50004FF4805302A920460293FFF720FB6946FA
:102A6000204600950195FFF773FD0222054B204695
:102A70001A705D70FFF707FB07B030BDD002002071
:102A8000000800409C0000200222024B1A70002225
:102A90005A7070479C000020F8B506460846FDF7BE
:102AA000A1FC044630460D46FDF79CFC10A3D3E97B
:102AB000002306460F46FDF70BFD02460B46204657
:102AC0002946FDF777FF88B909A3D3E900232046FB
:102AD0002946FDF7FDFC02460B4630463946FDF718
:102AE00069FF002814BF02200120F8BD0020F8BDB6
:102AF0009A9999999999E93F2DE9F041B0F91070A7
:102B00000646052F1FDD0124104DDFF84480A31C6D
:102B1000BB4207DB20233381002375603370012023
:102B2000BDE8F081F2686300043332F81400D15A32
:102B300080B289B2FFF7B0FF08FB05F500B201349F
:102B4000454024B2E3E70020BDE8F081C59D1C812B
:102B50009301000110B52C4B044613F8031CC3600D
:102B6000018293F8002213F8043C4282052B48D1DD
:102B700000F01CFA08B1012010BD204600F0A2FCB4
:102B80000028F8D1204600F033FC0028F3D120467D
:102B900000F0B6F90028EED1204600F0F7FA002840
:102BA000E9D1204600F048FB0028E4D1204600F09F
:102BB0005DFA0028DFD1204600F04EF90028DAD176
:102BC000204600F0D7F80028D5D1204600F0B0FB11
:102BD0000028D0D1204600F0D7FC0028CBD12046D9
:102BE00000F024F80028C6D1204600F07BF8002829
:102BF000C1D12046FFF780FF0028BCD1FFF744FF7A
:102C000010BD002010BD00BFA0000020054A1368C1
:102C100043F080731360044A136843F001031360A8
:102C2000704700BFFCED00E0001000E02DE9F84324
:102C30002B4B04465A789846572A02D80020BDE804
:102C4000F883C36842F26021588880B2FFF77CFEA7
:102C50000028F3D0E36841F29411988880B2FFF71E
:102C6000A7FE0028EAD01D27002598F80130043B74
:102C70009F420CDB3E46013E46F34F06292E26813D
:102C8000DCDD0923656023700120BDE8F883E3687B
:102C90004FF4FA7133F817004FEA470980B2FFF793
:102CA00053FE0028CAD0E36809F1020933F809008D
:102CB0004FF4167180B27E1CFFF77AFE20B16D00D2
:102CC00045F001050237D0E7E36840F2A46133F82C
:102CD000090080B2FFF76CFE0028CCD06D00F1E750
:102CE0009C000020F8B5224B04465B78202B01D0D5
:102CF0000020F8BDC3684FF49671588880B2FFF782
:102D000023FE0028F4D0E36840F2EE21988880B2D8
:102D1000FFF74EFE0028EBD006270025E3684FF4AE
:102D20009671D85B80B2FFF70FFE0028E0D0E36811
:102D3000BE1C985B4FF4E16180B2FFF739FE60B1D1
:102D40006D0045F0010504373E2FE7D10E232381A6
:102D50000F23656023700120F8BDE36840F2EE2187
:102D6000985B80B2FFF724FE0028C1D06D00EAE72F
:102D70009C000020F8B5374D04466B782E46222B78
:102D80001DD1C3684FF41671588880B2FFF7DCFD7F
:102D9000A8B16B78E26803F10043013B32F81300FD
:102DA0004FF4167180B2FFF7CFFD40B100232381AD
:102DB0004FF0FF336360062301202370F8BDE36802
:102DC0004FF4FA51588880B2FFF7BEFD08B90020D1
:102DD000F8BD7378202BFAD9E3684FF47A619888AC
:102DE00080B2FFF7E5FD0028F1D003260025E36857
:102DF0004FF4167133F81600770080B2FFF7A4FD88
:102E00000028E4D0E3680237D85B4FF4C86180B291
:102E1000FFF7CEFD98B16D0045F001050236232E77
:102E2000E5D1E3684FF41671B3F8460080B2FFF7BE
:102E30008BFD0028CBD0102365602381BBE7E368BE
:102E400040F22621D85B80B2FFF7B2FD0028BED049
:102E50006D00E3E79C000020F8B5284B04465B7842
:102E6000382B01D80020F8BDC3684FF4FA515888B8
:102E700080B2FFF769FD0028F4D0E3684FF47A616F
:102E8000988880B2FFF794FD0028EBD00326002538
:102E9000E3684FF4167133F81600770080B2FFF73D
:102EA00053FD0028DED0E3680237D85B4FF4C861D9
:102EB00080B2FFF77DFDB0B16D0045F0010502362F
:102EC0003B2EE5D1E3684FF41671B3F8760080B27B
:102ED000FFF73AFD0028C5D01C2323810A23656033
:102EE00023700120F8BDE36840F22621D85B80B250
:102EF000FFF75EFD0028B5D06D00E0E79C000020E4
:102F00002DE9F843284B04465A789946212A02D8DD
:102F10000020BDE8F883C3684FF4AF71588880B2D1
:102F2000FFF712FD0028F3D00227002699F80130A0
:102F30007D1CAB420FDC3D46013D45F34F050F2D97
:102F4000D4BF00200C232581C9BF66602081237077
:102F50000120BDE8F883E36840F29E7133F8170062
:102F60004FEA470880B2FFF7EFFC80B1760046F0E9
:102F70000106E36808F1020833F808004FF4AF7166
:102F800080B2FFF715FD0028D6D00237CEE7E36800
:102F900040F2EE2133F8170080B2FFF7D5FC00288D
:102FA000B6D07600E5E700BF9C000020F8B5C36806
:102FB0000446588842F2283180B2FFF7C5FC08B9B0
:102FC0000020F8BD284D6A78042A18D1E36840F63D
:102FD000CA01988880B2FFF7EBFC80B1E3684FF438
:102FE0000C71D88880B2FFF7AFFC40B10023238179
:102FF0004FF0FF336360032301202370F8BD6B782B
:10300000432BDDD9E36841F29411988880B2FFF731
:10301000CFFC0028D4D006270025E3684FF40C71BC
:10302000D85B80B2FFF790FC0028C9D0E368BE1CD3
:10303000985B40F29A6180B2FFF7BAFC48B16D002C
:1030400045F001050437862FE7D1202365602381F1
:10305000D1E7E3684FF40C71985B80B2FFF7A8FCEE
:103060000028ADD06D00EDE79C000020C3682DE97D
:10307000F0410646588840F6AE5180B2FFF764FC36
:1030800010B90020BDE8F081F36840F2D66198885D
:1030900080B2FFF759FC0028F3D006270024002552
:1030A000F3684FF4FB71D85B80B2FFF74DFC00284A
:1030B000E7D0F36807F1020833F8080040F2DC417A
:1030C00080B2FFF775FC78B124196D4144F001041A
:1030D0000437C62FE4D10523337030237460758024
:1030E00033810120BDE8F081F3684FF4C87133F8F3
:1030F000080080B2FFF75CFC0028C2D024196D41A3
:10310000E6E72DE9F843904699460A68B0F9103091
:103110000F469A4234DA12F0010F0CBF6FF06304CD
:103120006424D543C3684C4433F812602146B6B2D8
:10313000304605F00105FFF7D5FBE8B94C442146C0
:103140003046FFF7CFFBC8B909EB04013046FFF763
:10315000C9FBB8B10322D8F8003001339A42DDBF71
:103160000023C8F800303B68C8F80030DCBF0133EA
:103170003B602846BDE8F8830122ECE70222EAE73B
:103180000125F6E74FF0FF35F3E7000000220123A9
:103190002DE9F3418DE80C00264B04465A789846F9
:1031A0000C2A03D8002002B0BDE8F08140F2793348
:1031B0006A4601A9FFF7A5FF0028F3D140F2793351
:1031C0006A4601A92046FFF79CFF0128EAD140F298
:1031D00079336A4601A92046FFF793FF0646002887
:1031E000E0D1054698F80120019B9A4204DC0120B9
:1031F000268165602070D6E740F279336A4601A9DE
:103200002046FFF77EFF074640F279336A4601A960
:103210002046FFF776FF012F06D10028C2D16D00AE
:1032200045F001050136DDE7002FBBD10128B9D1FA
:103230006D00F7E79C00002000232DE9F341009387
:10324000B0F910300446002B03DC002002B0BDE8CA
:10325000F0810222C36840F66A215888019280B248
:10326000FFF772FB0028F0D0019BE268591C32F88E
:103270001300019180B240F27931FFF799FB0028E9
:10328000E3D04FF4DE736A4601A92046FFF739FF09
:1032900006460028D9D14FF4DE736A4601A92046BC
:1032A000FFF72FFF0128D0D13546B4F91020019B3C
:1032B0009A4205DC02232681656023700120C5E760
:1032C0004FF4DE736A4601A92046FFF71AFF032E6A
:1032D00080461CD04FF4DE736A4601A92046FFF7F2
:1032E00010FF032E074608D14FF4DE736A4601A98A
:1032F0002046FFF706FF8742A7D1B8F1000F10D094
:10330000B8F1010FA1D1002F9FD16D000EE04FF455
:10331000DE736A4601A92046FFF7F3FE8045D9D047
:1033200093E7012F91D16D0045F001050136BCE70F
:10333000F8B5C3680446588841F2941180B2FFF78B
:1033400003FB08B90020F8BD284D6A78042A18D17B
:10335000E36840F6CA01988880B2FFF729FB80B184
:10336000E3684FF40C71D88880B2FFF7EDFA40B1F2
:10337000002323814FF0FF33636007230120237074
:10338000F8BD6B78432BDDD9E36841F2941198883E
:1033900080B2FFF70DFB0028D4D006270025E36894
:1033A0004FF40C71D85B80B2FFF7CEFA0028C9D079
:1033B000E368BE1C985B4FF4C86180B2FFF7F8FA6F
:1033C00048B16D0045F001050437862FE7D1202371
:1033D00065602381D1E7E3684FF40C71985B80B29C
:1033E000FFF7E6FA0028ADD06D00EDE79C00002065
:1033F0002DE9F843324B04465A789846192A02D8E8
:103400000020BDE8F883C26813889BB2B3F5487FFB
:1034100009D2002303814FF0FF3343600B230120C7
:103420002370BDE8F883508840F6AC5180B2FFF7B6
:103430008BFA0028E4D0E36840F6AC51988880B25B
:10344000FFF782FA0028DBD00327002698F8013026
:103450007D1CAB420ADC3D46013D45F34F050B2D7B
:1034600025812BDC00202081BDE8F883E36840F251
:10347000B63133F817004FEA470980B2FFF798FAE0
:103480000028E9D0E36809F1020933F809004FF494
:10349000166180B2FFF758FA20B1760046F00106B7
:1034A0000237D3E7E3684FF42F7133F8090080B295
:1034B000FFF74AFA0028A3D07600F1E76660ADE78F
:1034C0009C0000202DE9F8432E4B04465A7898467C
:1034D000192A02D80020BDE8F883C26813889BB27D
:1034E000B3F5FA7F09D2002303814FF0FF33436025
:1034F0000B2323700120BDE8F88350884FF4166138
:1035000080B2FFF721FA0028E4D00227002698F8BD
:1035100001307D1CAB420ADC3D46013D45F34F05C1
:103520000B2D25812BDC00202081BDE8F883E3688A
:103530004FF4167133F817004FEA470980B2FFF7CE
:1035400037FA0028E9D0E36809F1020933F80900E5
:103550004FF4966180B2FFF7F7F920B1760046F09C
:1035600001060237D3E7E3684FF4167133F8090018
:1035700080B2FFF7E9F90028ACD07600F1E7666089
:103580000423B6E79C000020F8B5314B04465B7875
:10359000452B01D80020F8BDC36840F2EE215888C1
:1035A00080B2FFF7D1F90028F4D0E36840F2EE21B1
:1035B000988880B2FFF7FCF90028EBD0E36840F66A
:1035C0002231D88880B2FFF7BFF90028E2D0E36843
:1035D00040F62231188980B2FFF7EAF90028D9D0E5
:1035E00005260025E36840F2EE2133F81600770047
:1035F00080B2FFF7A9F90028CCD0E3680237D85B86
:1036000040F6660180B2FFF7D3F9B0B16D0045F026
:1036100001050236452EE5D1E36840F2EE21B3F80C
:103620008A0080B2FFF790F90028B3D020232381CD
:103630000823656023700120F8BDE36840F2EE21A5
:10364000D85B80B2FFF7B4F90028A3D06D00E0E7A3
:103650009C0000202DE9F3410D4616464FF47A7781
:10366000DFF82C804400009733462A46214608485C
:10367000FDF780FF40B9064C2046FEF7D3F920281D
:10368000FAD102B0BDE8F0814046FEF7CEF9EAE794
:10369000100300202DE9FF411D4604AB03F8011D76
:1036A0000446164619460122FFF7D4FF4FF47A77F5
:1036B000DFF830806400ADB200972B4632462146D9
:1036C0000848FEF72DF840B9064C2046FEF7AAF947
:1036D0002028FAD104B0BDE8F0814046FEF7A5F9F4
:1036E000EAE700BF100300206B2307B58DF8003018
:1036F00000236946022268208DF80130FFF7AAFFF7
:103700001B238DF8003008236946022268208DF8BB
:103710000130FFF79FFF1C238DF800301023022299
:10372000694668208DF80130FFF794FF03B05DF81B
:1037300004FB1FB50E233B2104466A466820FFF7B1
:10374000A9FF00230A210DEB03021DF903005278A3
:1037500002EB002292FBF1F2E2520233062BF2D18D
:103760009DF808209DF8093003EB0223E3809DF8C3
:103770000A209DF80B3003EB022323819DF80C20D7
:103780009DF80D3003EB0223638104B010BD0000EF
:103790000148FFF7CEBF00BFC4020020F0B54FF4D0
:1037A0007A771A4E1A4D1B4C85B001A8FFF7C1FF5E
:1037B000BDF90400FDF708FA3168FDF751F93060F2
:1037C000BDF90600FDF700FA2968FDF749F9286000
:1037D000BDF90800FDF7F8F92168FDF741F920600F
:1037E0000320FDF7DDFB013FDFD130680A49FDF71B
:1037F000F3FA094930602868FDF7EEFA06492860B7
:103800002068FDF7E9FA206005B0F0BD84060020CD
:10381000C4050020E005002000007A4410B590B0F7
:103820002822002106A800F02FFB0021142201A865
:1038300000F02AFB4FF480330122022407930E93F9
:103840004FF4E01306A806920A920F930D94FEF728
:10385000EFF80F234FF4806201930023214601A863
:103860000294039304920593FEF7AAFA10B010BDD8
:103870002DE9F04FABB0FDF76FFBFFF7CFFF102244
:10388000002112A800F000FB934B00249A6912A9B2
:1038900042F020029A619A69904802F02002039255
:1038A000039A9A698E4E42F004029A619A694FF423
:1038B000805802F004020492049A9A69602742F048
:1038C00008029A619B69874D03F008030593059BE5
:1038D00020231293FDF7ECFB8348844A844BC46099
:1038E00080E81C004FF48043446103618461C4613B
:1038F0000462FDF7BFFD4FF4E1337E49304686E8B0
:103900000A000C23B4607361F4603461B461F46143
:10391000FEF708FFFFF7E8FEFFF740FF1022214601
:1039200008A800F0B1FA1C22214612A806940794B8
:1039300000F0AAFA704B284685E81800AC60EC60ED
:103940002C61AC61FEF742FD08A92846CDF8208025
:10395000FEF7A5FB2846FEF753FD06A92846069468
:103960000794FEF7F5FD224612A9284612971394F4
:1039700014941694FEF78AFD284600F05FF9102291
:10398000214612A800F080FA40F2CF235B4D5C483C
:10399000089485E809004FF496732846EB60099473
:1039A000AC602C616C61AC61FEF710FD12A9284679
:1039B000CDF84880FEF773FB08A9284608940994BF
:1039C000FEF7C6FD4F48FFF7B4FE3A46214612A85F
:1039D00000F05AFA4C4912A800F0B6FA12A8FCF707
:1039E000B7FB642382B212A93046FEF7C9FEFFF787
:1039F00013F8DFF810A1DFF82CB1BAF90000FDF7D9
:103A0000E3F8424B1968FDF729F8FCF70DFD00F0CB
:103A1000ABFE0646BAF902000F46FDF7D5F8DBF813
:103A20000010FDF71BF8FCF7FFFC00F09DFE804640
:103A3000BAF904008946FDF7C7F8354B1968FDF758
:103A40000DF8FCF7F1FC00F08FFE04460D464046F1
:103A50004946FCF7D7FF39460FFA80F83046FCF7A5
:103A6000D1FF294606B22046FCF7CCFF00B20090F9
:103A700043463246274908A800F042FA264C82B253
:103A80004FF0FF3308A91648FEF77AFE2046FFF7ED
:103A900061F80028B1D0B4F90830204A019394F9B4
:103AA00000306021013352F8233012A8009363687C
:103AB0001B4A00F0F1F912A8FCF74AFB642382B21A
:103AC00012A90748FEF75CFE4FF49670FDF768FAFE
:103AD000FEF7DAFF91E700BF00100240000C014042
:103AE000F4050020D0020020100300200058004000
:103AF000A086010000380140000800403806002080
:103B0000002C0140C4020020E04800088406002088
:103B1000E005002015490008A4020020984800088C
:103B20002C490008C40500200E4B82B09A6942F06F
:103B300001029A619A6902F001020092009ADA6920
:103B400042F08052DA61DB69074A03F08053019347
:103B5000019B536823F0E06343F00073536002B0AD
:103B6000704700BF00100240000001400268184B7F
:103B700013B59A42044612D103F50233DA691E20C6
:103B800042F00402DA610022DB69114603F004030B
:103B90000093009BFDF728FA1E20FDF759FA2268D2
:103BA0000C4B9A4212D103F564439A69192042F4EE
:103BB00000629A6100229B69114603F4006301933D
:103BC000019BFDF711FA1920FDF742FA02B010BD72
:103BD00000080040002C014010B5044686B01022B9
:103BE000002102A800F050F92268114B9A421DD121
:103BF000104C02A9A369104843F00803A361A3690C
:103C000003F008030093009B4FF4406302931223D8
:103C1000039303230593FDF74BFAE36943F4800311
:103C2000E361E36903F480030193019B06B010BDD7
:103C30000058004000100240000C014010B504463E
:103C400086B01022002102A800F01EF922680C4B59
:103C50009A4213D103F502339A6902A942F008028D
:103C60009A619B69074803F008030193019B402375
:103C70000293022303930593FDF71AFA06B010BDD1
:103C800000080040000C014002680E4B10B59A423B
:103C9000044607D10C4A1E20D36923F00403D361E4
:103CA000FDF7E2F92268094B9A4209D1BDE81040BC
:103CB000054A1920936923F400639361FDF7D4B991
:103CC00010BD00BF0008004000100240002C014061
:103CD00010B5044686B01022002102A800F0D4F8E6
:103CE0002268174B9A4228D103F558439A6902A9D2
:103CF00042F480429A619A69124802F4804200922A
:103D0000009A9A6942F004029A619B6903F00403E5
:103D10000193019B4FF40073029302230393032347
:103D20000593FDF7C5F94FF480630293002302A9C0
:103D3000044803930493FDF7BBF906B010BD00BF20
:103D400000380140000801407047FEE7FEE7FEE74B
:103D5000FEE7704770477047FDF710B90148FEF75E
:103D60005BBA00BFD002002008B50A4B02461968B2
:103D700009B9094919606946186802448A4206D996
:103D800000F058F80C2303604FF0FF3008BD1A60B4
:103D900008BD00BF8C000020940D00200F4B1A6856
:103DA00042F001021A6059680D4A0A405A601A68C6
:103DB00022F0847222F480321A601A6822F480227F
:103DC0001A605A6822F4FE025A604FF41F029A6089
:103DD0004FF00062034B9A60704700BF0010024032
:103DE0000000FFF800ED00E0002103E00B4B5B5802
:103DF000435004310A480B4B42189A42F6D30A4A00
:103E000002E0002342F8043B084B9A42F9D3FFF743
:103E1000C5FF00F015F8FFF72BFD7047184A0008A2
:103E2000000000207000002070000020940D002091
:103E3000FEE70000014B1868704700BF0C0000202F
:103E400070B500250C4E0D4CA41BA410A54209D141
:103E500000F00EFD00250A4E0A4CA41BA410A5423A
:103E600005D170BD56F8253098470135EEE756F874
:103E7000253098470135F2E7104A0008104A00083B
:103E8000104A0008144A000803460244934200D135
:103E9000704703F8011BF9E70CB430B5174B0C1E43
:103EA0009DB01D6808DA8B234FF0FF302B601DB0EA
:103EB000BDE8304002B070474FF40273ADF81430E3
:103EC0000CBF234604F1FF33049307934FF6FF73AF
:103ED00002900690ADF81630209A21AB02A9284630
:103EE000019300F095F8431CBCBF8B232B60002C82
:103EF000DDD00022029B1A70D9E700BF0C00002021
:103F00000EB44FF4027100B59CB0ADF814106FF010
:103F10000041049107914FF6FF711DAB029006908E
:103F2000084853F8042BADF81610006802A9019355
:103F300000F06EF80022029B1A701CB05DF804EBD2
:103F400003B070470C000020034611F8012B03F862
:103F5000012B002AF9D170472DE9F0478E6882467F
:103F60009E420C469146984635D88A8912F4906F45
:103F700031D00223256809696F1A656905EB45058B
:103F800095FBF3F508F101033B449D4238BF1D4604
:103F9000530531D5294600F047FB064650B90C239E
:103FA000CAF80030A3894FF0FF3043F04003A381EB
:103FB000BDE8F0873A46216900F0C4FAA38923F4EA
:103FC000906343F08003A38126613E442660464609
:103FD0006561ED1BA560464528BF46464946324609
:103FE000206800F0BAFAA36800209B1BA360236836
:103FF0001E442660BDE8F0872A4600F073FB0646A3
:104000000028E1D12169504600F0C2FAC7E700005C
:104010002DE9F04F9DB003938B8980461C060D4619
:1040200016460FD50B696BB9402100F0FDFA2860E8
:10403000286128B90C23C8F800304FF0FF30C4E0E5
:1040400040236B610023099320238DF8293030230E
:104050004FF0010B8DF82A3037463C4614F8013BEF
:10406000002B3CD1B7EB060A0BD05346324629460B
:104070004046FFF771FF013000F0A280099B5344D6
:1040800009933B78002B00F09B8000234FF0FF3218
:1040900004930793059206938DF853301A930522E3
:1040A0002178504800F040FA671C049BD8B9D90623
:1040B00044BF20228DF853201A0744BF2B228DF8CD
:1040C000532022782A2A16D000210A20079A274650
:1040D0003B780134303B092B50D9C9B111E0252B75
:1040E000C0D02746B9E73F4A3C46801A0BFA00F099
:1040F00018430490D3E7039A111D12680391002A14
:1041000001DB079204E0524243F00203079204935A
:104110003B782E2B0DD17B78791C2A2B32D1039B37
:1041200002371A1D1B680392002BB8BF4FF0FF33F4
:1041300005932D4C03223978204600F0F5F938B16B
:104140004023001B03FA00F0049B01370343049350
:104150003978062225487E1C8DF8281000F0E4F9F5
:10416000002835D0224BFBB9039B073323F007030C
:1041700008330393099B4B4409936DE700FB02321C
:104180000121A4E700230A24184605930F463A7834
:104190000131303A092A03D9002BCAD00590C8E76B
:1041A00004FB00200123F1E703AB00932A46114BE7
:1041B00004A94046AFF30080B0F1FF3F8146D9D15A
:1041C000AB895B063FF539AF09981DB0BDE8F08FAC
:1041D00003AB00932A46074B04A9404600F084F83D
:1041E000EAE700BFDA490008E0490008E4490008AE
:1041F00000000000593F00082DE9F04791461F4696
:104200008A680B6906469342B8BF1346C9F8003066
:1042100091F843200C46DDF8208012B10133C9F833
:1042200000302368990642BFD9F800300233C9F83C
:104230000030256815F0060507D104F1190AE36876
:10424000D9F800209B1A9D422ADB94F8433022685B
:10425000003318BF012392062FD404F143023946DC
:104260003046C047013022D02368E56803F00603DA
:10427000042B18BF0025D9F800204FF0000908BF13
:10428000AD1AA368226908BF25EAE5759342C4BF49
:104290009B1AED181A344D451BD10020BDE8F0875C
:1042A0000123524639463046C047013003D14FF012
:1042B000FF30BDE8F0870135C1E73020E11881F813
:1042C00043005A1C94F845102244023382F84310EC
:1042D000C3E70123224639463046C0470130E6D0C5
:1042E00009F10109D7E700002DE9F04317460A7EDE
:1042F00085B06E2A984606460C460C9B01F1430E8B
:1043000000F0BC801AD8632A2ED00AD8002A00F008
:10431000C880582A00F08A8004F1420584F84220BF
:104320002AE0642A01D0692AF6D121681A6811F0BE
:10433000800F23D0111D1960136827E0732A00F045
:10434000B48008D86F2A2AD0702AE5D10A6842F0D2
:1043500020020A6003E0752A21D0782ADCD1782275
:104360006F4984F8452064E01A6801F14205111D87
:104370001960136884F842300123A3E011F0400F64
:1043800002F104011960D7D0B2F90030002B03DA32
:104390002D225B4284F8432062490A2217E02068FC
:1043A000196810F0800F03D0081D18600B6806E034
:1043B00010F0400F01F104001860F7D00B886F2A4D
:1043C00014BF0A2208225749002084F84300656878
:1043D000002DA560C0F29C80206820F004002060C1
:1043E000002B3FD1002D40F095807546082A0BD157
:1043F0002368DA0708D5236962689A42DEBF302352
:1044000005F8013C05F1FF35AEEB05032361CDF85E
:1044100000803B4603AA21463046FFF7EDFE0130FF
:1044200055D14FF0FF3005B0BDE8F08381F845204D
:104430003C492268186812F0800F00F104051D60E5
:1044400001D0036802E05506FBD50388D00744BFBE
:1044500042F0200222601BB9226822F02002226072
:104460001022B1E77546B3FBF2F002FB1033CB5CD0
:1044700005F8013D03460028F5D1B7E708681A683A
:1044800010F0800F496904D0101D1860136819607E
:1044900007E010F0400F02F1040018601368F6D036
:1044A0001980002375462361B1E71A68111D196050
:1044B000156800216268284600F036F808B1401BF4
:1044C000606063682361002384F843309FE72369B9
:1044D0002A4639463046C0470130A2D023689B07A0
:1044E00007D5002504F11909E368039A9B1A9D4238
:1044F00005DBE068039B9842B8BF184693E70123A9
:104500004A4639463046C04701308AD00135EBE78C
:10451000002BA7D10B7804F1420584F8423065E7FF
:10452000FC490008EB49000810B5C9B202449042AA
:10453000034601D1002010BD1C7801308C42F6D119
:10454000184610BD10B5431E0A44914200D110BD5B
:1045500011F8014B03F8014FF7E7884210B501EB62
:10456000020303D8421E99420CD110BD9842F9D2E1
:104570008118D21AD34200D110BD13F8014D01F8B1
:10458000014DF7E711F8014B02F8014FEBE700008E
:1045900038B50546002943D051F8043C0C1F002BC8
:1045A000B8BFE41800F0D4F81E4A1368104633B9B7
:1045B000636014602846BDE8384000F0CAB8A342E2
:1045C0000BD921686218934201BF1A685B685218C0
:1045D000226063600460EDE713465A680AB1A242A4
:1045E000FAD919685818A0420BD12068014458180C
:1045F00082421960DED110685268014419605A6025
:10460000D8E702D90C232B60D4E7206821188A420E
:1046100001BF116852680918216062605C60C9E7D7
:1046200038BD00BF9000002070B5CD1C25F00305FB
:1046300008350C2D38BF0C25002D064601DBA9429C
:1046400003D90C233360002070BD00F081F8234AA9
:104650001468214691B9224C23681BB9304600F0FA
:1046600067F820602946304600F062F8431C26D1E6
:104670000C233046336000F06CF8E4E70B685B1BFA
:104680001AD40B2B0FD90B60CC18CD50304600F04C
:1046900060F804F10B00231D20F00700C31A1BD0A3
:1046A0005A42E25070BD8C420BBF63684B68136086
:1046B000636018BF0C46E9E70C464968CAE7C41CAA
:1046C00024F00304A04205D0211A304600F030F84F
:1046D0000130CDD02560D9E770BD00BF900000202B
:1046E00094000020F8B5074614460E4621B911463D
:1046F000BDE8F840FFF798BF22B9FFF749FF25460C
:104700002846F8BD00F026F884420FD921463846E5
:10471000FFF78AFF05460028F2D031462246FFF710
:1047200011FF31463846FFF733FFE9E73546E7E743
:1047300038B50023054C054608462360FFF714FBF7
:10474000431C02D1236803B12B6038BD900D0020BB
:104750007047704751F8040C0028A0F10400BCBF5A
:104760000B58C018704700002DE9F843C1F30A58F0
:10477000A8F2FF36132E07460B460C46054635DCDD
:10478000002E16DA36A3D3E90023FBF7EFFC002254
:104790000023FCF72DF948B1002C5CDA24F000432B
:1047A0003B43314B4FF0000518BF1C4623462F46B4
:1047B00027E02E4A42FA06F801EA0802024320D016
:1047C00027A3D3E90023FBF7D1FC00220023FCF749
:1047D0000FF90028EAD0002CBEBF4FF4801343FA33
:1047E00006F6A41924EA08040025DFE7332E0CDDC1
:1047F000B6F5806F05D10B460246FBF7B7FC0746BE
:104800000B4638461946BDE8F8834FF0FF32A8F250
:10481000134822FA08F810EA080FF2D010A3D3E9DF
:104820000023FBF7A3FC00220023FCF7E1F800289B
:10483000BCD0002C02DA142E03D1013425EA08057D
:10484000B4E70123C6F1340603FA06F63544AF4255
:1048500088BFE418F2E700252C46A7E7AFF30080F5
:104860009C7500883CE4377E0000F0BFFFFF0F001E
:10487000F8B500BFF8BC08BC9E467047F8B500BF4D
:08488000F8BC08BC9E4670471D
:1048880002030405060708090A0B0C0D0E0F101089
:104898004B490008524900085A4900085E49000877
:1048A80062490008664900086B4900087549000814
:1048B8007949000881490008894900089649000893
:1048C800994900089F490008AA490008AF4900080B
:1048D800B5490008BB49000849522D7265632D741B
:1048E80072616E732068747470733A2F2F697374D1
:1048F8006172696B2E72752F626C6F672F73746D9E
:1049080033322F3132352E68746D6C0A0061786548
:104918006C3A20783A256920793A2569207A3A252F
:10492800690D0A00436F643A202570207C20547971
:1049380070653A202573207C20426974733A2025DB
:10494800640A00554E5553454400554E4B4E4F573B
:104958004E0052433500524336004E454300534FF4
:104968004E590050414E41534F4E4943004A564319
:104978000053414D53554E47005748594E544552E0
:1049880000414957415F52435F54353031004C472D
:104998000053414E594F004D4954535542495348CD
:1049A8004900444953480053484152500044454E39
:1049B8004F4E0050524F4E544F0000000000000070
:1049C80000000102030406070809000000000102B4
:1049D8000304232D302B2000686C4C006566674566
:1049E800464700303132333435363738394142435F
:1049F8004445460030313233343536373839616210
:084A0800636465660000000014
:044A10003501000864
:044A14001101000884
:104A1800010000001000000000A24A04100000205D
:104A2800000000000000000000000000000000007E
:104A3800000000000000000000000000000000006E
:104A4800000000000000000000000000000000005E
:104A5800000000000000000000000000000000004E
:104A6800000000000000000000000000000000003E
:104A7800000000000000000000000000000000002E
:0400000508003DE9C9
:00000001FF
